{
  "_format": "hh-sol-artifact-1",
  "contractName": "AdsFactory",
  "sourceName": "contracts/AdsFactory.sol",
  "abi": [
    {
      "inputs": [
        {
          "internalType": "address",
          "name": "admin",
          "type": "address"
        },
        {
          "internalType": "address",
          "name": "adsManager_",
          "type": "address"
        },
        {
          "internalType": "uint256",
          "name": "factoryId_",
          "type": "uint256"
        },
        {
          "internalType": "string",
          "name": "name_",
          "type": "string"
        },
        {
          "internalType": "string",
          "name": "symbol_",
          "type": "string"
        },
        {
          "internalType": "uint96",
          "name": "royalty",
          "type": "uint96"
        }
      ],
      "stateMutability": "nonpayable",
      "type": "constructor"
    },
    {
      "inputs": [
        {
          "internalType": "uint256",
          "name": "tokenId",
          "type": "uint256"
        }
      ],
      "name": "AdNotOwned",
      "type": "error"
    },
    {
      "inputs": [
        {
          "internalType": "uint256",
          "name": "tokenId",
          "type": "uint256"
        }
      ],
      "name": "AdReserved",
      "type": "error"
    },
    {
      "inputs": [
        {
          "internalType": "uint256",
          "name": "numerator",
          "type": "uint256"
        },
        {
          "internalType": "uint256",
          "name": "denominator",
          "type": "uint256"
        }
      ],
      "name": "ERC2981InvalidDefaultRoyalty",
      "type": "error"
    },
    {
      "inputs": [
        {
          "internalType": "address",
          "name": "receiver",
          "type": "address"
        }
      ],
      "name": "ERC2981InvalidDefaultRoyaltyReceiver",
      "type": "error"
    },
    {
      "inputs": [
        {
          "internalType": "uint256",
          "name": "tokenId",
          "type": "uint256"
        },
        {
          "internalType": "uint256",
          "name": "numerator",
          "type": "uint256"
        },
        {
          "internalType": "uint256",
          "name": "denominator",
          "type": "uint256"
        }
      ],
      "name": "ERC2981InvalidTokenRoyalty",
      "type": "error"
    },
    {
      "inputs": [
        {
          "internalType": "uint256",
          "name": "tokenId",
          "type": "uint256"
        },
        {
          "internalType": "address",
          "name": "receiver",
          "type": "address"
        }
      ],
      "name": "ERC2981InvalidTokenRoyaltyReceiver",
      "type": "error"
    },
    {
      "inputs": [
        {
          "internalType": "address",
          "name": "sender",
          "type": "address"
        },
        {
          "internalType": "uint256",
          "name": "tokenId",
          "type": "uint256"
        },
        {
          "internalType": "address",
          "name": "owner",
          "type": "address"
        }
      ],
      "name": "ERC721IncorrectOwner",
      "type": "error"
    },
    {
      "inputs": [
        {
          "internalType": "address",
          "name": "operator",
          "type": "address"
        },
        {
          "internalType": "uint256",
          "name": "tokenId",
          "type": "uint256"
        }
      ],
      "name": "ERC721InsufficientApproval",
      "type": "error"
    },
    {
      "inputs": [
        {
          "internalType": "address",
          "name": "approver",
          "type": "address"
        }
      ],
      "name": "ERC721InvalidApprover",
      "type": "error"
    },
    {
      "inputs": [
        {
          "internalType": "address",
          "name": "operator",
          "type": "address"
        }
      ],
      "name": "ERC721InvalidOperator",
      "type": "error"
    },
    {
      "inputs": [
        {
          "internalType": "address",
          "name": "owner",
          "type": "address"
        }
      ],
      "name": "ERC721InvalidOwner",
      "type": "error"
    },
    {
      "inputs": [
        {
          "internalType": "address",
          "name": "receiver",
          "type": "address"
        }
      ],
      "name": "ERC721InvalidReceiver",
      "type": "error"
    },
    {
      "inputs": [
        {
          "internalType": "address",
          "name": "sender",
          "type": "address"
        }
      ],
      "name": "ERC721InvalidSender",
      "type": "error"
    },
    {
      "inputs": [
        {
          "internalType": "uint256",
          "name": "tokenId",
          "type": "uint256"
        }
      ],
      "name": "ERC721NonexistentToken",
      "type": "error"
    },
    {
      "inputs": [],
      "name": "FeePaymentFailed",
      "type": "error"
    },
    {
      "inputs": [
        {
          "internalType": "uint256",
          "name": "amount",
          "type": "uint256"
        }
      ],
      "name": "InsufficientAmount",
      "type": "error"
    },
    {
      "inputs": [
        {
          "internalType": "uint256",
          "name": "tokenId",
          "type": "uint256"
        }
      ],
      "name": "LotteryClosed",
      "type": "error"
    },
    {
      "inputs": [
        {
          "internalType": "uint256",
          "name": "tokenId",
          "type": "uint256"
        }
      ],
      "name": "LotteryOpen",
      "type": "error"
    },
    {
      "inputs": [
        {
          "internalType": "uint256",
          "name": "tokenId",
          "type": "uint256"
        }
      ],
      "name": "NonexistentAd",
      "type": "error"
    },
    {
      "inputs": [
        {
          "internalType": "address",
          "name": "owner",
          "type": "address"
        }
      ],
      "name": "OwnableInvalidOwner",
      "type": "error"
    },
    {
      "inputs": [
        {
          "internalType": "address",
          "name": "account",
          "type": "address"
        }
      ],
      "name": "OwnableUnauthorizedAccount",
      "type": "error"
    },
    {
      "inputs": [],
      "name": "ParameterError",
      "type": "error"
    },
    {
      "inputs": [],
      "name": "PaymentFailed",
      "type": "error"
    },
    {
      "inputs": [
        {
          "internalType": "address",
          "name": "sender",
          "type": "address"
        }
      ],
      "name": "UnauthorizedSender",
      "type": "error"
    },
    {
      "inputs": [],
      "name": "WithdrawalError",
      "type": "error"
    },
    {
      "anonymous": false,
      "inputs": [
        {
          "indexed": false,
          "internalType": "uint256",
          "name": "tokenId",
          "type": "uint256"
        }
      ],
      "name": "AdAdded",
      "type": "event"
    },
    {
      "anonymous": false,
      "inputs": [
        {
          "indexed": true,
          "internalType": "address",
          "name": "owner",
          "type": "address"
        },
        {
          "indexed": true,
          "internalType": "address",
          "name": "approved",
          "type": "address"
        },
        {
          "indexed": true,
          "internalType": "uint256",
          "name": "tokenId",
          "type": "uint256"
        }
      ],
      "name": "Approval",
      "type": "event"
    },
    {
      "anonymous": false,
      "inputs": [
        {
          "indexed": true,
          "internalType": "address",
          "name": "owner",
          "type": "address"
        },
        {
          "indexed": true,
          "internalType": "address",
          "name": "operator",
          "type": "address"
        },
        {
          "indexed": false,
          "internalType": "bool",
          "name": "approved",
          "type": "bool"
        }
      ],
      "name": "ApprovalForAll",
      "type": "event"
    },
    {
      "anonymous": false,
      "inputs": [
        {
          "indexed": false,
          "internalType": "uint256",
          "name": "_fromTokenId",
          "type": "uint256"
        },
        {
          "indexed": false,
          "internalType": "uint256",
          "name": "_toTokenId",
          "type": "uint256"
        }
      ],
      "name": "BatchMetadataUpdate",
      "type": "event"
    },
    {
      "anonymous": false,
      "inputs": [],
      "name": "ContractMetadataUpdate",
      "type": "event"
    },
    {
      "anonymous": false,
      "inputs": [
        {
          "indexed": false,
          "internalType": "uint256",
          "name": "tokenId",
          "type": "uint256"
        },
        {
          "indexed": false,
          "internalType": "address",
          "name": "winner",
          "type": "address"
        }
      ],
      "name": "LotteryCompleted",
      "type": "event"
    },
    {
      "anonymous": false,
      "inputs": [
        {
          "indexed": false,
          "internalType": "uint256",
          "name": "_tokenId",
          "type": "uint256"
        }
      ],
      "name": "MetadataUpdate",
      "type": "event"
    },
    {
      "anonymous": false,
      "inputs": [
        {
          "indexed": true,
          "internalType": "address",
          "name": "previousOwner",
          "type": "address"
        },
        {
          "indexed": true,
          "internalType": "address",
          "name": "newOwner",
          "type": "address"
        }
      ],
      "name": "OwnershipTransferred",
      "type": "event"
    },
    {
      "anonymous": false,
      "inputs": [
        {
          "indexed": false,
          "internalType": "uint256",
          "name": "tokenId",
          "type": "uint256"
        }
      ],
      "name": "TicketPurchased",
      "type": "event"
    },
    {
      "anonymous": false,
      "inputs": [
        {
          "indexed": true,
          "internalType": "address",
          "name": "from",
          "type": "address"
        },
        {
          "indexed": true,
          "internalType": "address",
          "name": "to",
          "type": "address"
        },
        {
          "indexed": true,
          "internalType": "uint256",
          "name": "tokenId",
          "type": "uint256"
        }
      ],
      "name": "Transfer",
      "type": "event"
    },
    {
      "inputs": [
        {
          "internalType": "uint256",
          "name": "price",
          "type": "uint256"
        },
        {
          "internalType": "uint32",
          "name": "width",
          "type": "uint32"
        },
        {
          "internalType": "uint32",
          "name": "height",
          "type": "uint32"
        },
        {
          "internalType": "uint16",
          "name": "ticketAmountToStart",
          "type": "uint16"
        },
        {
          "internalType": "address",
          "name": "reservedFor",
          "type": "address"
        }
      ],
      "name": "addAd",
      "outputs": [],
      "stateMutability": "nonpayable",
      "type": "function"
    },
    {
      "inputs": [
        {
          "internalType": "uint256[]",
          "name": "prices",
          "type": "uint256[]"
        },
        {
          "internalType": "uint32[]",
          "name": "widths",
          "type": "uint32[]"
        },
        {
          "internalType": "uint32[]",
          "name": "heights",
          "type": "uint32[]"
        },
        {
          "internalType": "uint16[]",
          "name": "ticketsToStart",
          "type": "uint16[]"
        },
        {
          "internalType": "address[]",
          "name": "whitelists",
          "type": "address[]"
        }
      ],
      "name": "addAds",
      "outputs": [],
      "stateMutability": "nonpayable",
      "type": "function"
    },
    {
      "inputs": [],
      "name": "adsManager",
      "outputs": [
        {
          "internalType": "contract IAdsManager",
          "name": "",
          "type": "address"
        }
      ],
      "stateMutability": "view",
      "type": "function"
    },
    {
      "inputs": [
        {
          "internalType": "address",
          "name": "to",
          "type": "address"
        },
        {
          "internalType": "uint256",
          "name": "tokenId",
          "type": "uint256"
        }
      ],
      "name": "approve",
      "outputs": [],
      "stateMutability": "nonpayable",
      "type": "function"
    },
    {
      "inputs": [
        {
          "internalType": "address",
          "name": "owner",
          "type": "address"
        }
      ],
      "name": "balanceOf",
      "outputs": [
        {
          "internalType": "uint256",
          "name": "",
          "type": "uint256"
        }
      ],
      "stateMutability": "view",
      "type": "function"
    },
    {
      "inputs": [
        {
          "internalType": "uint256",
          "name": "tokenId",
          "type": "uint256"
        }
      ],
      "name": "buyTicket",
      "outputs": [],
      "stateMutability": "payable",
      "type": "function"
    },
    {
      "inputs": [],
      "name": "contractURI",
      "outputs": [
        {
          "internalType": "string",
          "name": "",
          "type": "string"
        }
      ],
      "stateMutability": "view",
      "type": "function"
    },
    {
      "inputs": [],
      "name": "currentSupply",
      "outputs": [
        {
          "internalType": "uint256",
          "name": "",
          "type": "uint256"
        }
      ],
      "stateMutability": "view",
      "type": "function"
    },
    {
      "inputs": [],
      "name": "factoryId",
      "outputs": [
        {
          "internalType": "uint256",
          "name": "",
          "type": "uint256"
        }
      ],
      "stateMutability": "view",
      "type": "function"
    },
    {
      "inputs": [
        {
          "internalType": "uint256",
          "name": "tokenId",
          "type": "uint256"
        }
      ],
      "name": "getAdData",
      "outputs": [
        {
          "components": [
            {
              "internalType": "uint256",
              "name": "mintPrice",
              "type": "uint256"
            },
            {
              "internalType": "uint32",
              "name": "width",
              "type": "uint32"
            },
            {
              "internalType": "uint32",
              "name": "height",
              "type": "uint32"
            },
            {
              "internalType": "string",
              "name": "ipfsUri",
              "type": "string"
            },
            {
              "internalType": "address",
              "name": "reservedFor",
              "type": "address"
            },
            {
              "internalType": "bool",
              "name": "isLottery",
              "type": "bool"
            }
          ],
          "internalType": "struct AdsFactory.AdData",
          "name": "",
          "type": "tuple"
        }
      ],
      "stateMutability": "view",
      "type": "function"
    },
    {
      "inputs": [
        {
          "internalType": "uint256",
          "name": "tokenId",
          "type": "uint256"
        }
      ],
      "name": "getApproved",
      "outputs": [
        {
          "internalType": "address",
          "name": "",
          "type": "address"
        }
      ],
      "stateMutability": "view",
      "type": "function"
    },
    {
      "inputs": [
        {
          "internalType": "uint256",
          "name": "tokenId",
          "type": "uint256"
        }
      ],
      "name": "getLotteryData",
      "outputs": [
        {
          "components": [
            {
              "internalType": "uint256",
              "name": "ticketPrice",
              "type": "uint256"
            },
            {
              "internalType": "uint16",
              "name": "ticketAmountToStart",
              "type": "uint16"
            },
            {
              "internalType": "address[]",
              "name": "addresses",
              "type": "address[]"
            }
          ],
          "internalType": "struct AdsFactory.LotteryData",
          "name": "",
          "type": "tuple"
        }
      ],
      "stateMutability": "view",
      "type": "function"
    },
    {
      "inputs": [
        {
          "internalType": "address",
          "name": "owner",
          "type": "address"
        },
        {
          "internalType": "address",
          "name": "operator",
          "type": "address"
        }
      ],
      "name": "isApprovedForAll",
      "outputs": [
        {
          "internalType": "bool",
          "name": "",
          "type": "bool"
        }
      ],
      "stateMutability": "view",
      "type": "function"
    },
    {
      "inputs": [
        {
          "internalType": "uint256",
          "name": "tokenId",
          "type": "uint256"
        },
        {
          "internalType": "string",
          "name": "name",
          "type": "string"
        },
        {
          "internalType": "string",
          "name": "description",
          "type": "string"
        },
        {
          "internalType": "string",
          "name": "image",
          "type": "string"
        },
        {
          "internalType": "string",
          "name": "site",
          "type": "string"
        }
      ],
      "name": "mintAd",
      "outputs": [],
      "stateMutability": "payable",
      "type": "function"
    },
    {
      "inputs": [],
      "name": "name",
      "outputs": [
        {
          "internalType": "string",
          "name": "",
          "type": "string"
        }
      ],
      "stateMutability": "view",
      "type": "function"
    },
    {
      "inputs": [],
      "name": "owner",
      "outputs": [
        {
          "internalType": "address",
          "name": "",
          "type": "address"
        }
      ],
      "stateMutability": "view",
      "type": "function"
    },
    {
      "inputs": [
        {
          "internalType": "uint256",
          "name": "tokenId",
          "type": "uint256"
        }
      ],
      "name": "ownerOf",
      "outputs": [
        {
          "internalType": "address",
          "name": "",
          "type": "address"
        }
      ],
      "stateMutability": "view",
      "type": "function"
    },
    {
      "inputs": [
        {
          "internalType": "uint256",
          "name": "tokenId",
          "type": "uint256"
        }
      ],
      "name": "ownerOfUnsafe",
      "outputs": [
        {
          "internalType": "address",
          "name": "",
          "type": "address"
        }
      ],
      "stateMutability": "view",
      "type": "function"
    },
    {
      "inputs": [],
      "name": "renounceOwnership",
      "outputs": [],
      "stateMutability": "nonpayable",
      "type": "function"
    },
    {
      "inputs": [
        {
          "internalType": "uint256",
          "name": "tokenId",
          "type": "uint256"
        },
        {
          "internalType": "uint256",
          "name": "salePrice",
          "type": "uint256"
        }
      ],
      "name": "royaltyInfo",
      "outputs": [
        {
          "internalType": "address",
          "name": "",
          "type": "address"
        },
        {
          "internalType": "uint256",
          "name": "",
          "type": "uint256"
        }
      ],
      "stateMutability": "view",
      "type": "function"
    },
    {
      "inputs": [
        {
          "internalType": "address",
          "name": "from",
          "type": "address"
        },
        {
          "internalType": "address",
          "name": "to",
          "type": "address"
        },
        {
          "internalType": "uint256",
          "name": "tokenId",
          "type": "uint256"
        }
      ],
      "name": "safeTransferFrom",
      "outputs": [],
      "stateMutability": "nonpayable",
      "type": "function"
    },
    {
      "inputs": [
        {
          "internalType": "address",
          "name": "from",
          "type": "address"
        },
        {
          "internalType": "address",
          "name": "to",
          "type": "address"
        },
        {
          "internalType": "uint256",
          "name": "tokenId",
          "type": "uint256"
        },
        {
          "internalType": "bytes",
          "name": "data",
          "type": "bytes"
        }
      ],
      "name": "safeTransferFrom",
      "outputs": [],
      "stateMutability": "nonpayable",
      "type": "function"
    },
    {
      "inputs": [
        {
          "internalType": "address",
          "name": "operator",
          "type": "address"
        },
        {
          "internalType": "bool",
          "name": "approved",
          "type": "bool"
        }
      ],
      "name": "setApprovalForAll",
      "outputs": [],
      "stateMutability": "nonpayable",
      "type": "function"
    },
    {
      "inputs": [
        {
          "internalType": "string",
          "name": "uri",
          "type": "string"
        }
      ],
      "name": "setContractUri",
      "outputs": [],
      "stateMutability": "nonpayable",
      "type": "function"
    },
    {
      "inputs": [
        {
          "internalType": "uint256",
          "name": "tokenId",
          "type": "uint256"
        },
        {
          "internalType": "uint256",
          "name": "randomValue",
          "type": "uint256"
        }
      ],
      "name": "setLotteryWinner",
      "outputs": [],
      "stateMutability": "nonpayable",
      "type": "function"
    },
    {
      "inputs": [
        {
          "internalType": "uint256",
          "name": "tokenId",
          "type": "uint256"
        },
        {
          "internalType": "string",
          "name": "uri",
          "type": "string"
        }
      ],
      "name": "setNFTUri",
      "outputs": [],
      "stateMutability": "nonpayable",
      "type": "function"
    },
    {
      "inputs": [
        {
          "internalType": "bytes4",
          "name": "interfaceId",
          "type": "bytes4"
        }
      ],
      "name": "supportsInterface",
      "outputs": [
        {
          "internalType": "bool",
          "name": "",
          "type": "bool"
        }
      ],
      "stateMutability": "view",
      "type": "function"
    },
    {
      "inputs": [],
      "name": "symbol",
      "outputs": [
        {
          "internalType": "string",
          "name": "",
          "type": "string"
        }
      ],
      "stateMutability": "view",
      "type": "function"
    },
    {
      "inputs": [
        {
          "internalType": "uint256",
          "name": "tokenId",
          "type": "uint256"
        }
      ],
      "name": "tokenURI",
      "outputs": [
        {
          "internalType": "string",
          "name": "",
          "type": "string"
        }
      ],
      "stateMutability": "view",
      "type": "function"
    },
    {
      "inputs": [
        {
          "internalType": "address",
          "name": "from",
          "type": "address"
        },
        {
          "internalType": "address",
          "name": "to",
          "type": "address"
        },
        {
          "internalType": "uint256",
          "name": "tokenId",
          "type": "uint256"
        }
      ],
      "name": "transferFrom",
      "outputs": [],
      "stateMutability": "nonpayable",
      "type": "function"
    },
    {
      "inputs": [
        {
          "internalType": "address",
          "name": "newOwner",
          "type": "address"
        }
      ],
      "name": "transferOwnership",
      "outputs": [],
      "stateMutability": "nonpayable",
      "type": "function"
    },
    {
      "inputs": [
        {
          "internalType": "uint256",
          "name": "tokenId",
          "type": "uint256"
        },
        {
          "internalType": "string",
          "name": "name",
          "type": "string"
        },
        {
          "internalType": "string",
          "name": "description",
          "type": "string"
        },
        {
          "internalType": "string",
          "name": "image",
          "type": "string"
        },
        {
          "internalType": "string",
          "name": "site",
          "type": "string"
        }
      ],
      "name": "updateAd",
      "outputs": [],
      "stateMutability": "nonpayable",
      "type": "function"
    },
    {
      "inputs": [
        {
          "internalType": "string",
          "name": "name",
          "type": "string"
        },
        {
          "internalType": "string",
          "name": "description",
          "type": "string"
        },
        {
          "internalType": "string",
          "name": "logo",
          "type": "string"
        },
        {
          "internalType": "string",
          "name": "banner",
          "type": "string"
        },
        {
          "internalType": "string",
          "name": "site",
          "type": "string"
        }
      ],
      "name": "updateContractMetadata",
      "outputs": [],
      "stateMutability": "nonpayable",
      "type": "function"
    },
    {
      "inputs": [],
      "name": "withdraw",
      "outputs": [],
      "stateMutability": "nonpayable",
      "type": "function"
    }
  ],
  "bytecode": "0x60806040523480156200001157600080fd5b5060405162003477380380620034778339810160408190526200003491620002a4565b8282876001600160a01b0381166200006757604051631e4fbdf760e01b8152600060048201526024015b60405180910390fd5b6200007281620000cb565b506003620000818382620003ef565b506004620000908282620003ef565b505050600b849055600a80546001600160a01b0319166001600160a01b038716179055620000bf86826200011b565b505050505050620004bb565b600080546001600160a01b038381166001600160a01b0319831681178455604051919092169283917f8be0079c531659141344cd1fd0a4f28419497f9722a3daafe3b4186f6b6457e09190a35050565b6127106001600160601b0382168110156200015c57604051636f483d0960e01b81526001600160601b0383166004820152602481018290526044016200005e565b6001600160a01b0383166200018857604051635b6cc80560e11b8152600060048201526024016200005e565b50604080518082019091526001600160a01b039092168083526001600160601b039091166020909201829052600160a01b90910217600155565b80516001600160a01b0381168114620001da57600080fd5b919050565b634e487b7160e01b600052604160045260246000fd5b600082601f8301126200020757600080fd5b81516001600160401b0380821115620002245762000224620001df565b604051601f8301601f19908116603f011681019082821181831017156200024f576200024f620001df565b816040528381526020925086838588010111156200026c57600080fd5b600091505b8382101562000290578582018301518183018401529082019062000271565b600093810190920192909252949350505050565b60008060008060008060c08789031215620002be57600080fd5b620002c987620001c2565b9550620002d960208801620001c2565b6040880151606089015191965094506001600160401b0380821115620002fe57600080fd5b6200030c8a838b01620001f5565b945060808901519150808211156200032357600080fd5b506200033289828a01620001f5565b60a089015190935090506001600160601b03811681146200035257600080fd5b809150509295509295509295565b600181811c908216806200037557607f821691505b6020821081036200039657634e487b7160e01b600052602260045260246000fd5b50919050565b601f821115620003ea57600081815260208120601f850160051c81016020861015620003c55750805b601f850160051c820191505b81811015620003e657828155600101620003d1565b5050505b505050565b81516001600160401b038111156200040b576200040b620001df565b62000423816200041c845462000360565b846200039c565b602080601f8311600181146200045b5760008415620004425750858301515b600019600386901b1c1916600185901b178555620003e6565b600085815260208120601f198616915b828110156200048c578886015182559484019460019091019084016200046b565b5085821015620004ab5787850151600019600388901b60f8161c191681555b5050505050600190811b01905550565b612fac80620004cb6000396000f3fe6080604052600436106101f95760003560e01c80638805cab41161010d578063ccb4807b116100a0578063e056b38f1161006f578063e056b38f146105c5578063e485cf50146105e5578063e8a3d48514610605578063e985e9c51461061a578063f2fde38b1461063a57600080fd5b8063ccb4807b14610552578063cd4866da14610572578063dba254ed14610592578063dbeee21e146105a557600080fd5b8063a75c05d8116100dc578063a75c05d8146104d2578063b0dd8ac1146104f2578063b88d4fde14610512578063c87b56dd1461053257600080fd5b80638805cab41461045f5780638da5cb5b1461047f57806395d89b411461049d578063a22cb465146104b257600080fd5b806342842e0e1161019057806367dd74ca1161015f57806367dd74ca146103d457806370a08231146103e7578063715018a614610407578063771282f61461041c57806384ebd3711461043257600080fd5b806342842e0e14610347578063490f2798146103675780636352211e1461038757806363bb48c5146103a757600080fd5b8063095ea7b3116101cc578063095ea7b3146102b157806323b872dd146102d35780632a55205a146102f35780633ccfd60b1461033257600080fd5b806301ffc9a7146101fe57806304ce07f11461023357806306fdde0314610257578063081812fc14610279575b600080fd5b34801561020a57600080fd5b5061021e61021936600461244d565b61065a565b60405190151581526020015b60405180910390f35b34801561023f57600080fd5b50610249600b5481565b60405190815260200161022a565b34801561026357600080fd5b5061026c610694565b60405161022a91906124b7565b34801561028557600080fd5b506102996102943660046124ca565b610726565b6040516001600160a01b03909116815260200161022a565b3480156102bd57600080fd5b506102d16102cc3660046124f8565b61074f565b005b3480156102df57600080fd5b506102d16102ee366004612524565b61075e565b3480156102ff57600080fd5b5061031361030e366004612565565b6107ee565b604080516001600160a01b03909316835260208301919091520161022a565b34801561033e57600080fd5b506102d161089c565b34801561035357600080fd5b506102d1610362366004612524565b610910565b34801561037357600080fd5b50600a54610299906001600160a01b031681565b34801561039357600080fd5b506102996103a23660046124ca565b610930565b3480156103b357600080fd5b506103c76103c23660046124ca565b61093b565b60405161022a9190612587565b6102d16103e23660046124ca565b6109e2565b3480156103f357600080fd5b506102496104023660046125fa565b610bd9565b34801561041357600080fd5b506102d1610c21565b34801561042857600080fd5b5061024960095481565b34801561043e57600080fd5b5061045261044d3660046124ca565b610c35565b60405161022a9190612617565b34801561046b57600080fd5b506102d161047a366004612733565b610d6b565b34801561048b57600080fd5b506000546001600160a01b0316610299565b3480156104a957600080fd5b5061026c610df0565b3480156104be57600080fd5b506102d16104cd36600461277a565b610dff565b3480156104de57600080fd5b506102996104ed3660046124ca565b610e0a565b3480156104fe57600080fd5b506102d161050d3660046127fd565b610e27565b34801561051e57600080fd5b506102d161052d3660046128ee565b610f50565b34801561053e57600080fd5b5061026c61054d3660046124ca565b610f67565b34801561055e57600080fd5b506102d161056d36600461296e565b61100c565b34801561057e57600080fd5b506102d161058d3660046129ce565b61105d565b6102d16105a0366004612a72565b611297565b3480156105b157600080fd5b506102d16105c0366004612b42565b6113ed565b3480156105d157600080fd5b506102d16105e0366004612a72565b611527565b3480156105f157600080fd5b506102d1610600366004612565565b611577565b34801561061157600080fd5b5061026c611634565b34801561062657600080fd5b5061021e610635366004612c14565b611643565b34801561064657600080fd5b506102d16106553660046125fa565b611671565b60006001600160e01b03198216632483248360e11b148061067f575061067f826116ac565b8061068e575061068e826116b3565b92915050565b6060600380546106a390612c42565b80601f01602080910402602001604051908101604052809291908181526020018280546106cf90612c42565b801561071c5780601f106106f15761010080835404028352916020019161071c565b820191906000526020600020905b8154815290600101906020018083116106ff57829003601f168201915b5050505050905090565b6000610731826116f3565b506000828152600760205260409020546001600160a01b031661068e565b61075a82823361172c565b5050565b6001600160a01b03821661078d57604051633250574960e11b8152600060048201526024015b60405180910390fd5b600061079a838333611739565b9050836001600160a01b0316816001600160a01b0316146107e8576040516364283d7b60e01b81526001600160a01b0380861660048301526024820184905282166044820152606401610784565b50505050565b60008281526002602090815260408083208151808301909252546001600160a01b038116808352600160a01b9091046001600160601b03169282019290925282916108635750604080518082019091526001546001600160a01b0381168252600160a01b90046001600160601b031660208201525b602081015160009061271090610882906001600160601b031687612c92565b61088c9190612cbf565b91519350909150505b9250929050565b6108a4611832565b604051600090339047908381818185875af1925050503d80600081146108e6576040519150601f19603f3d011682016040523d82523d6000602084013e6108eb565b606091505b505090508061090d57604051639e0eb9f560e01b815260040160405180910390fd5b50565b61092b83838360405180602001604052806000815250610f50565b505050565b600061068e826116f3565b604080516060808201835260008083526020808401829052838501839052858252600e8152908490208451928301855280548352600181015461ffff168383015260028101805486518185028101850188528181529596949592948601938301828280156109d257602002820191906000526020600020905b81546001600160a01b031681526001909101906020018083116109b4575b5050505050815250509050919050565b6000818152600d602052604090206001015463ffffffff16610a1a576040516304945dfd60e41b815260048101829052602401610784565b6000818152600e60205260409020600181015460029091015461ffff90911611610a5a57604051631e3985c760e21b815260048101829052602401610784565b600a546000828152600e602052604080822054905163165c0cf360e11b815291926001600160a01b031691632cb819e691610a9b9160040190815260200190565b6020604051808303816000875af1158015610aba573d6000803e3d6000fd5b505050506040513d601f19601f82011682018060405250810190610ade9190612cd3565b9050610aea813461185f565b6000828152600e602090815260408220600281018054600180820183558286529385200180546001600160a01b03191633179055928590520154905461ffff9091169003610ba157600a54600b546040516355b610d760e11b81526001600160a01b039092169163ab6c21ae91610b6e918690600401918252602082015260400190565b600060405180830381600087803b158015610b8857600080fd5b505af1158015610b9c573d6000803e3d6000fd5b505050505b6040518281527f0e0f5c745de6637f5404ab23a3074a8a62a2285b098ff831750d40f08078a8e6906020015b60405180910390a15050565b60006001600160a01b038216610c05576040516322718ad960e21b815260006004820152602401610784565b506001600160a01b031660009081526006602052604090205490565b610c29611832565b610c336000611a22565b565b6040805160c080820183526000808352602080840182905283850182905260608085018190526080850183905260a08501839052868352600d8252918590208551938401865280548452600181015463ffffffff808216938601939093526401000000009004909116948301949094526002840180549394929391840191610cbc90612c42565b80601f0160208091040260200160405190810160405280929190818152602001828054610ce890612c42565b8015610d355780601f10610d0a57610100808354040283529160200191610d35565b820191906000526020600020905b815481529060010190602001808311610d1857829003601f168201915b5050509183525050600391909101546001600160a01b0381166020830152600160a01b900460ff16151560409091015292915050565b600a546001600160a01b03163314610da457335b604051633fcc3f1760e01b81526001600160a01b039091166004820152602401610784565b6000828152600d60205260409020600201610dbf8282612d3a565b506040518281527ff8e1a15aba9398e019f0b49df1a4fde98ee17ae345cb5f6b5e2c27f5033e8ce790602001610bcd565b6060600480546106a390612c42565b61075a338383611a72565b6000818152600560205260408120546001600160a01b031661068e565b610e2f611832565b8887148015610e3d57508885145b8015610e4857508883145b8015610e5357508881145b610e7057604051631372c76160e11b815260040160405180910390fd5b60005b89811015610f4357610f338b8b83818110610e9057610e90612dfa565b905060200201358a8a84818110610ea957610ea9612dfa565b9050602002016020810190610ebe9190612e10565b898985818110610ed057610ed0612dfa565b9050602002016020810190610ee59190612e10565b888886818110610ef757610ef7612dfa565b9050602002016020810190610f0c9190612e2b565b878787818110610f1e57610f1e612dfa565b905060200201602081019061058d91906125fa565b610f3c81612e46565b9050610e73565b5050505050505050505050565b610f5b84848461075e565b6107e884848484611b11565b6000818152600d60205260409020600201805460609190610f8790612c42565b80601f0160208091040260200160405190810160405280929190818152602001828054610fb390612c42565b80156110005780601f10610fd557610100808354040283529160200191611000565b820191906000526020600020905b815481529060010190602001808311610fe357829003601f168201915b50505050509050919050565b600a546001600160a01b031633146110245733610d7f565b600c6110308282612d3a565b506040517f847fec1b3d99ab9e473aa358e122b964c45692ec20b1396d1783cdae59a5a89490600090a150565b611065611832565b63ffffffff8416158061107c575063ffffffff8316155b1561109a57604051631372c76160e11b815260040160405180910390fd5b60098054600091826110ab83612e46565b9190505590506000808461ffff161190506040518060c00160405280826110d257886110d5565b60005b81526020018763ffffffff1681526020018663ffffffff168152602001604051806020016040528060008152508152602001826111125784611115565b60005b6001600160a01b031681528215156020918201526000848152600d825260409081902083518155918301516001830180549285015163ffffffff9081166401000000000267ffffffffffffffff19909416921691909117919091179055606082015160028201906111869082612d3a565b5060808201516003909101805460a0909301511515600160a01b026001600160a81b03199093166001600160a01b0390921691909117919091179055801561125b576040805160608101825288815261ffff86166020820152908101600060405190808252806020026020018201604052801561120d578160200160208202803683370190505b5090526000838152600e6020908152604091829020835181558382015160018201805461ffff191661ffff90921691909117905591830151805161125792600285019201906123bd565b5050505b6040518281527f23e4714c230249c70218a7a3a5828c144250401e53330cc25b97bcba0c110e259060200160405180910390a150505050505050565b6000898152600d60205260409020600301546001600160a01b0316156112f9576000898152600d60205260409020600301546001600160a01b031633146112f4576040516382cdff9360e01b8152600481018a9052602401610784565b611336565b6000898152600d6020526040902060030154600160a01b900460ff161561133657604051637a442ba160e11b8152600481018a9052602401610784565b600a5460008a8152600d602052604080822054905163165c0cf360e11b815291926001600160a01b031691632cb819e6916113779160040190815260200190565b6020604051808303816000875af1158015611396573d6000803e3d6000fd5b505050506040513d601f19601f820116820180604052508101906113ba9190612cd3565b90506113c6813461185f565b6113d78a8a8a8a8a8a8a8a8a611c33565b6113e1338b611fe8565b50505050505050505050565b6113f5611832565b60408051600580825260c08201909252600091816020015b606081526020019060019003908161140d579050509050858160008151811061143857611438612dfa565b6020026020010181905250848160018151811061145757611457612dfa565b6020026020010181905250838160028151811061147657611476612dfa565b6020026020010181905250828160038151811061149557611495612dfa565b602002602001018190525081816004815181106114b4576114b4612dfa565b6020908102919091010152600a54600b5460405163616cb3ef60e01b81526001600160a01b039092169163616cb3ef916114f991600191906000908790600401612eb1565b600060405180830381600087803b15801561151357600080fd5b505af11580156113e1573d6000803e3d6000fd5b336115318a610930565b6001600160a01b03161461155b57604051636583509f60e01b8152600481018a9052602401610784565b61156c898989898989898989611c33565b505050505050505050565b600a546001600160a01b0316331461158f5733610d7f565b6000828152600e6020526040812060020180546115ac9084612ee2565b815481106115bc576115bc612dfa565b600091825260208083209190910154858352600d825260409283902060030180546001600160a01b0319166001600160a01b039092169182179055825186815291820181905292507f3fdbec0178fff7ad6510bfe23187c8f0686fbdd9a44e17618271a48b47c160f1910160405180910390a1505050565b6060600c80546106a390612c42565b6001600160a01b03918216600090815260086020908152604080832093909416825291909152205460ff1690565b611679611832565b6001600160a01b0381166116a357604051631e4fbdf760e01b815260006004820152602401610784565b61090d81611a22565b600061068e825b60006001600160e01b031982166380ac58cd60e01b14806116e457506001600160e01b03198216635b5e139f60e01b145b8061068e575061068e8261204d565b6000818152600560205260408120546001600160a01b03168061068e57604051637e27328960e01b815260048101849052602401610784565b61092b8383836001612082565b6000828152600560205260408120546001600160a01b039081169083161561176657611766818486612188565b6001600160a01b038116156117a457611783600085600080612082565b6001600160a01b038116600090815260066020526040902080546000190190555b6001600160a01b038516156117d3576001600160a01b0385166000908152600660205260409020805460010190555b60008481526005602052604080822080546001600160a01b0319166001600160a01b0389811691821790925591518793918516917fddf252ad1be2c89b69c2b068fc378daa952ba7f163c4a11628f55a4df523b3ef91a4949350505050565b6000546001600160a01b03163314610c335760405163118cdaa760e01b8152336004820152602401610784565b811561075a5780821115611889576040516377b8dde360e01b815260048101829052602401610784565b60006118958383612ef6565b9050600181111561190b57604051600090339083908381818185875af1925050503d80600081146118e2576040519150601f19603f3d011682016040523d82523d6000602084013e6118e7565b606091505b5050905080611909576040516307a4ced160e51b815260040160405180910390fd5b505b600061271061191a8385612ef6565b6119249190612cbf565b61192f9060c8612c92565b90506000600a60009054906101000a90046001600160a01b03166001600160a01b0316638da5cb5b6040518163ffffffff1660e01b8152600401602060405180830381865afa158015611986573d6000803e3d6000fd5b505050506040513d601f19601f820116820180604052508101906119aa9190612f09565b6001600160a01b03168260405160006040518083038185875af1925050503d80600081146119f4576040519150601f19603f3d011682016040523d82523d6000602084013e6119f9565b606091505b5050905080611a1b5760405163f0e492a360e01b815260040160405180910390fd5b5050505050565b600080546001600160a01b038381166001600160a01b0319831681178455604051919092169283917f8be0079c531659141344cd1fd0a4f28419497f9722a3daafe3b4186f6b6457e09190a35050565b6001600160a01b038216611aa457604051630b61174360e31b81526001600160a01b0383166004820152602401610784565b6001600160a01b03838116600081815260086020908152604080832094871680845294825291829020805460ff191686151590811790915591519182527f17307eab39ab6107e8899845ad3d59bd9653f200f220920489ca2b5937696c31910160405180910390a3505050565b6001600160a01b0383163b156107e857604051630a85bd0160e11b81526001600160a01b0384169063150b7a0290611b53903390889087908790600401612f26565b6020604051808303816000875af1925050508015611b8e575060408051601f3d908101601f19168201909252611b8b91810190612f59565b60015b611bf7573d808015611bbc576040519150601f19603f3d011682016040523d82523d6000602084013e611bc1565b606091505b508051600003611bef57604051633250574960e11b81526001600160a01b0385166004820152602401610784565b805181602001fd5b6001600160e01b03198116630a85bd0160e11b14611a1b57604051633250574960e11b81526001600160a01b0385166004820152602401610784565b6000898152600d602052604090206001015463ffffffff16611c6b576040516304945dfd60e41b8152600481018a9052602401610784565b6000898152600d6020526040812060030154600160a01b900460ff169081611c94576007611c97565b60085b60ff1667ffffffffffffffff811115611cb257611cb2612687565b604051908082528060200260200182016040528015611ce557816020015b6060815260200190600190039081611cd05790505b50905089898080601f0160208091040260200160405190810160405280939291908181526020018383808284376000920182905250855186945090925015159050611d3257611d32612dfa565b602002602001018190525087878080601f016020809104026020016040519081016040528093929190818152602001838380828437600092019190915250508351849250600191508110611d8857611d88612dfa565b602002602001018190525085858080601f016020809104026020016040519081016040528093929190818152602001838380828437600092019190915250508351849250600291508110611dde57611dde612dfa565b602002602001018190525083838080601f016020809104026020016040519081016040528093929190818152602001838380828437600092019190915250508351849250600391508110611e3457611e34612dfa565b60209081029190910181019190915260008c8152600d9091526040902060010154611e649063ffffffff166121ec565b81600481518110611e7757611e77612dfa565b60209081029190910181019190915260008c8152600d9091526040902060010154611eaf90640100000000900463ffffffff166121ec565b81600581518110611ec257611ec2612dfa565b6020026020010181905250611efd82611ee95760008c8152600d60205260409020546121ec565b60008c8152600e60205260409020546121ec565b81600681518110611f1057611f10612dfa565b60200260200101819052508115611f5f5760008b8152600e6020526040902060010154611f409061ffff166121ec565b81600781518110611f5357611f53612dfa565b60200260200101819052505b600a60009054906101000a90046001600160a01b03166001600160a01b031663616cb3ef6000600b548e856040518563ffffffff1660e01b8152600401611fa99493929190612eb1565b600060405180830381600087803b158015611fc357600080fd5b505af1158015611fd7573d6000803e3d6000fd5b505050505050505050505050505050565b6001600160a01b03821661201257604051633250574960e11b815260006004820152602401610784565b600061202083836000611739565b90506001600160a01b0381161561092b576040516339e3563760e11b815260006004820152602401610784565b60006001600160e01b0319821663152a902d60e11b148061068e57506301ffc9a760e01b6001600160e01b031983161461068e565b808061209657506001600160a01b03821615155b156121585760006120a6846116f3565b90506001600160a01b038316158015906120d25750826001600160a01b0316816001600160a01b031614155b80156120e557506120e38184611643565b155b1561210e5760405163a9fbf51f60e01b81526001600160a01b0384166004820152602401610784565b81156121565783856001600160a01b0316826001600160a01b03167f8c5be1e5ebec7d5bd14f71427d1e84f3dd0314c0f7b2291e5b200ac8c7c3b92560405160405180910390a45b505b5050600090815260076020526040902080546001600160a01b0319166001600160a01b0392909216919091179055565b61219383838361227f565b61092b576001600160a01b0383166121c157604051637e27328960e01b815260048101829052602401610784565b60405163177e802f60e01b81526001600160a01b038316600482015260248101829052604401610784565b606060006121f9836122e5565b600101905060008167ffffffffffffffff81111561221957612219612687565b6040519080825280601f01601f191660200182016040528015612243576020820181803683370190505b5090508181016020015b600019016f181899199a1a9b1b9c1cb0b131b232b360811b600a86061a8153600a850494508461224d57509392505050565b60006001600160a01b038316158015906122dd5750826001600160a01b0316846001600160a01b031614806122b957506122b98484611643565b806122dd57506000828152600760205260409020546001600160a01b038481169116145b949350505050565b60008072184f03e93ff9f4daa797ed6e38ed64bf6a1f0160401b83106123245772184f03e93ff9f4daa797ed6e38ed64bf6a1f0160401b830492506040015b6d04ee2d6d415b85acef81000000008310612350576d04ee2d6d415b85acef8100000000830492506020015b662386f26fc10000831061236e57662386f26fc10000830492506010015b6305f5e1008310612386576305f5e100830492506008015b612710831061239a57612710830492506004015b606483106123ac576064830492506002015b600a831061068e5760010192915050565b828054828255906000526020600020908101928215612412579160200282015b8281111561241257825182546001600160a01b0319166001600160a01b039091161782556020909201916001909101906123dd565b5061241e929150612422565b5090565b5b8082111561241e5760008155600101612423565b6001600160e01b03198116811461090d57600080fd5b60006020828403121561245f57600080fd5b813561246a81612437565b9392505050565b6000815180845260005b818110156124975760208185018101518683018201520161247b565b506000602082860101526020601f19601f83011685010191505092915050565b60208152600061246a6020830184612471565b6000602082840312156124dc57600080fd5b5035919050565b6001600160a01b038116811461090d57600080fd5b6000806040838503121561250b57600080fd5b8235612516816124e3565b946020939093013593505050565b60008060006060848603121561253957600080fd5b8335612544816124e3565b92506020840135612554816124e3565b929592945050506040919091013590565b6000806040838503121561257857600080fd5b50508035926020909101359150565b600060208083526080830184518285015261ffff82860151166040850152604085015160608086015281815180845260a0870191508483019350600092505b808310156125ef5783516001600160a01b031682529284019260019290920191908401906125c6565b509695505050505050565b60006020828403121561260c57600080fd5b813561246a816124e3565b60208152815160208201526000602083015163ffffffff80821660408501528060408601511660608501525050606083015160c0608084015261265d60e0840182612471565b905060018060a01b0360808501511660a084015260a0840151151560c08401528091505092915050565b634e487b7160e01b600052604160045260246000fd5b600067ffffffffffffffff808411156126b8576126b8612687565b604051601f8501601f19908116603f011681019082821181831017156126e0576126e0612687565b816040528093508581528686860111156126f957600080fd5b858560208301376000602087830101525050509392505050565b600082601f83011261272457600080fd5b61246a8383356020850161269d565b6000806040838503121561274657600080fd5b82359150602083013567ffffffffffffffff81111561276457600080fd5b61277085828601612713565b9150509250929050565b6000806040838503121561278d57600080fd5b8235612798816124e3565b9150602083013580151581146127ad57600080fd5b809150509250929050565b60008083601f8401126127ca57600080fd5b50813567ffffffffffffffff8111156127e257600080fd5b6020830191508360208260051b850101111561089557600080fd5b60008060008060008060008060008060a08b8d03121561281c57600080fd5b8a3567ffffffffffffffff8082111561283457600080fd5b6128408e838f016127b8565b909c509a5060208d013591508082111561285957600080fd5b6128658e838f016127b8565b909a50985060408d013591508082111561287e57600080fd5b61288a8e838f016127b8565b909850965060608d01359150808211156128a357600080fd5b6128af8e838f016127b8565b909650945060808d01359150808211156128c857600080fd5b506128d58d828e016127b8565b915080935050809150509295989b9194979a5092959850565b6000806000806080858703121561290457600080fd5b843561290f816124e3565b9350602085013561291f816124e3565b925060408501359150606085013567ffffffffffffffff81111561294257600080fd5b8501601f8101871361295357600080fd5b6129628782356020840161269d565b91505092959194509250565b60006020828403121561298057600080fd5b813567ffffffffffffffff81111561299757600080fd5b6122dd84828501612713565b803563ffffffff811681146129b757600080fd5b919050565b803561ffff811681146129b757600080fd5b600080600080600060a086880312156129e657600080fd5b853594506129f6602087016129a3565b9350612a04604087016129a3565b9250612a12606087016129bc565b91506080860135612a22816124e3565b809150509295509295909350565b60008083601f840112612a4257600080fd5b50813567ffffffffffffffff811115612a5a57600080fd5b60208301915083602082850101111561089557600080fd5b600080600080600080600080600060a08a8c031215612a9057600080fd5b8935985060208a013567ffffffffffffffff80821115612aaf57600080fd5b612abb8d838e01612a30565b909a50985060408c0135915080821115612ad457600080fd5b612ae08d838e01612a30565b909850965060608c0135915080821115612af957600080fd5b612b058d838e01612a30565b909650945060808c0135915080821115612b1e57600080fd5b50612b2b8c828d01612a30565b915080935050809150509295985092959850929598565b600080600080600060a08688031215612b5a57600080fd5b853567ffffffffffffffff80821115612b7257600080fd5b612b7e89838a01612713565b96506020880135915080821115612b9457600080fd5b612ba089838a01612713565b95506040880135915080821115612bb657600080fd5b612bc289838a01612713565b94506060880135915080821115612bd857600080fd5b612be489838a01612713565b93506080880135915080821115612bfa57600080fd5b50612c0788828901612713565b9150509295509295909350565b60008060408385031215612c2757600080fd5b8235612c32816124e3565b915060208301356127ad816124e3565b600181811c90821680612c5657607f821691505b602082108103612c7657634e487b7160e01b600052602260045260246000fd5b50919050565b634e487b7160e01b600052601160045260246000fd5b808202811582820484141761068e5761068e612c7c565b634e487b7160e01b600052601260045260246000fd5b600082612cce57612cce612ca9565b500490565b600060208284031215612ce557600080fd5b5051919050565b601f82111561092b57600081815260208120601f850160051c81016020861015612d135750805b601f850160051c820191505b81811015612d3257828155600101612d1f565b505050505050565b815167ffffffffffffffff811115612d5457612d54612687565b612d6881612d628454612c42565b84612cec565b602080601f831160018114612d9d5760008415612d855750858301515b600019600386901b1c1916600185901b178555612d32565b600085815260208120601f198616915b82811015612dcc57888601518255948401946001909101908401612dad565b5085821015612dea5787850151600019600388901b60f8161c191681555b5050505050600190811b01905550565b634e487b7160e01b600052603260045260246000fd5b600060208284031215612e2257600080fd5b61246a826129a3565b600060208284031215612e3d57600080fd5b61246a826129bc565b600060018201612e5857612e58612c7c565b5060010190565b6000815180845260208085019450848260051b860182860160005b85811015612ea4578383038952612e92838351612471565b98850198925090840190600101612e7a565b5090979650505050505050565b8415158152836020820152826040820152608060608201526000612ed86080830184612e5f565b9695505050505050565b600082612ef157612ef1612ca9565b500690565b8181038181111561068e5761068e612c7c565b600060208284031215612f1b57600080fd5b815161246a816124e3565b6001600160a01b0385811682528416602082015260408101839052608060608201819052600090612ed890830184612471565b600060208284031215612f6b57600080fd5b815161246a8161243756fea2646970667358221220b43422a360ab25d1556c31051b732ca61468f70982e2fb86931906b76aec37f464736f6c63430008140033",
  "linkReferences": {},
  "deployedLinkReferences": {}
}