{
  "_format": "hh-sol-artifact-1",
  "contractName": "GameManager",
  "sourceName": "contracts/demo-game00/GameManager.sol",
  "abi": [
    {
      "inputs": [
        {
          "internalType": "address",
          "name": "factory_",
          "type": "address"
        }
      ],
      "stateMutability": "nonpayable",
      "type": "constructor"
    },
    {
      "inputs": [],
      "name": "EmptySecrets",
      "type": "error"
    },
    {
      "inputs": [],
      "name": "EmptySource",
      "type": "error"
    },
    {
      "inputs": [],
      "name": "NoInlineSecrets",
      "type": "error"
    },
    {
      "inputs": [],
      "name": "OnlyRouterCanFulfill",
      "type": "error"
    },
    {
      "inputs": [
        {
          "internalType": "address",
          "name": "owner",
          "type": "address"
        }
      ],
      "name": "OwnableInvalidOwner",
      "type": "error"
    },
    {
      "inputs": [
        {
          "internalType": "address",
          "name": "account",
          "type": "address"
        }
      ],
      "name": "OwnableUnauthorizedAccount",
      "type": "error"
    },
    {
      "anonymous": false,
      "inputs": [
        {
          "indexed": false,
          "internalType": "address",
          "name": "winner",
          "type": "address"
        },
        {
          "indexed": false,
          "internalType": "bytes",
          "name": "errors",
          "type": "bytes"
        }
      ],
      "name": "ChallengeFulfilled",
      "type": "event"
    },
    {
      "anonymous": false,
      "inputs": [
        {
          "indexed": true,
          "internalType": "address",
          "name": "previousOwner",
          "type": "address"
        },
        {
          "indexed": true,
          "internalType": "address",
          "name": "newOwner",
          "type": "address"
        }
      ],
      "name": "OwnershipTransferred",
      "type": "event"
    },
    {
      "anonymous": false,
      "inputs": [
        {
          "indexed": true,
          "internalType": "bytes32",
          "name": "id",
          "type": "bytes32"
        }
      ],
      "name": "RequestFulfilled",
      "type": "event"
    },
    {
      "anonymous": false,
      "inputs": [
        {
          "indexed": true,
          "internalType": "bytes32",
          "name": "id",
          "type": "bytes32"
        }
      ],
      "name": "RequestSent",
      "type": "event"
    },
    {
      "inputs": [
        {
          "internalType": "bytes",
          "name": "",
          "type": "bytes"
        }
      ],
      "name": "checkUpkeep",
      "outputs": [
        {
          "internalType": "bool",
          "name": "upkeepNeeded",
          "type": "bool"
        },
        {
          "internalType": "bytes",
          "name": "",
          "type": "bytes"
        }
      ],
      "stateMutability": "view",
      "type": "function"
    },
    {
      "inputs": [],
      "name": "donId",
      "outputs": [
        {
          "internalType": "bytes32",
          "name": "",
          "type": "bytes32"
        }
      ],
      "stateMutability": "view",
      "type": "function"
    },
    {
      "inputs": [],
      "name": "encryptedSecretsUrls",
      "outputs": [
        {
          "internalType": "bytes",
          "name": "",
          "type": "bytes"
        }
      ],
      "stateMutability": "view",
      "type": "function"
    },
    {
      "inputs": [],
      "name": "endDate",
      "outputs": [
        {
          "internalType": "uint256",
          "name": "",
          "type": "uint256"
        }
      ],
      "stateMutability": "view",
      "type": "function"
    },
    {
      "inputs": [
        {
          "internalType": "bytes32",
          "name": "",
          "type": "bytes32"
        }
      ],
      "name": "errors",
      "outputs": [
        {
          "internalType": "bytes",
          "name": "",
          "type": "bytes"
        }
      ],
      "stateMutability": "view",
      "type": "function"
    },
    {
      "inputs": [],
      "name": "factory",
      "outputs": [
        {
          "internalType": "contract IERC721",
          "name": "",
          "type": "address"
        }
      ],
      "stateMutability": "view",
      "type": "function"
    },
    {
      "inputs": [],
      "name": "gasLimit",
      "outputs": [
        {
          "internalType": "uint32",
          "name": "",
          "type": "uint32"
        }
      ],
      "stateMutability": "view",
      "type": "function"
    },
    {
      "inputs": [
        {
          "internalType": "bytes32",
          "name": "requestId",
          "type": "bytes32"
        },
        {
          "internalType": "bytes",
          "name": "response",
          "type": "bytes"
        },
        {
          "internalType": "bytes",
          "name": "err",
          "type": "bytes"
        }
      ],
      "name": "handleOracleFulfillment",
      "outputs": [],
      "stateMutability": "nonpayable",
      "type": "function"
    },
    {
      "inputs": [],
      "name": "nftsSended",
      "outputs": [
        {
          "internalType": "bool",
          "name": "",
          "type": "bool"
        }
      ],
      "stateMutability": "view",
      "type": "function"
    },
    {
      "inputs": [
        {
          "internalType": "address",
          "name": "",
          "type": "address"
        },
        {
          "internalType": "address",
          "name": "",
          "type": "address"
        },
        {
          "internalType": "uint256",
          "name": "",
          "type": "uint256"
        },
        {
          "internalType": "bytes",
          "name": "",
          "type": "bytes"
        }
      ],
      "name": "onERC721Received",
      "outputs": [
        {
          "internalType": "bytes4",
          "name": "",
          "type": "bytes4"
        }
      ],
      "stateMutability": "nonpayable",
      "type": "function"
    },
    {
      "inputs": [],
      "name": "owner",
      "outputs": [
        {
          "internalType": "address",
          "name": "",
          "type": "address"
        }
      ],
      "stateMutability": "view",
      "type": "function"
    },
    {
      "inputs": [
        {
          "internalType": "bytes",
          "name": "",
          "type": "bytes"
        }
      ],
      "name": "performUpkeep",
      "outputs": [],
      "stateMutability": "nonpayable",
      "type": "function"
    },
    {
      "inputs": [],
      "name": "renounceOwnership",
      "outputs": [],
      "stateMutability": "nonpayable",
      "type": "function"
    },
    {
      "inputs": [],
      "name": "router",
      "outputs": [
        {
          "internalType": "address",
          "name": "",
          "type": "address"
        }
      ],
      "stateMutability": "view",
      "type": "function"
    },
    {
      "inputs": [],
      "name": "sendRequest",
      "outputs": [],
      "stateMutability": "nonpayable",
      "type": "function"
    },
    {
      "inputs": [],
      "name": "subscriptionId",
      "outputs": [
        {
          "internalType": "uint64",
          "name": "",
          "type": "uint64"
        }
      ],
      "stateMutability": "view",
      "type": "function"
    },
    {
      "inputs": [
        {
          "internalType": "address",
          "name": "newOwner",
          "type": "address"
        }
      ],
      "name": "transferOwnership",
      "outputs": [],
      "stateMutability": "nonpayable",
      "type": "function"
    },
    {
      "inputs": [
        {
          "internalType": "bytes32",
          "name": "donId_",
          "type": "bytes32"
        }
      ],
      "name": "updateDonId",
      "outputs": [],
      "stateMutability": "nonpayable",
      "type": "function"
    },
    {
      "inputs": [
        {
          "internalType": "bytes",
          "name": "encryptedSecretsUrls_",
          "type": "bytes"
        }
      ],
      "name": "updateEncryptedSecretsUrls",
      "outputs": [],
      "stateMutability": "nonpayable",
      "type": "function"
    },
    {
      "inputs": [
        {
          "internalType": "uint256",
          "name": "endDate_",
          "type": "uint256"
        }
      ],
      "name": "updateEndDate",
      "outputs": [],
      "stateMutability": "nonpayable",
      "type": "function"
    },
    {
      "inputs": [
        {
          "internalType": "address",
          "name": "factory_",
          "type": "address"
        }
      ],
      "name": "updateFactory",
      "outputs": [],
      "stateMutability": "nonpayable",
      "type": "function"
    },
    {
      "inputs": [
        {
          "internalType": "uint32",
          "name": "gasLimit_",
          "type": "uint32"
        }
      ],
      "name": "updateGasLimit",
      "outputs": [],
      "stateMutability": "nonpayable",
      "type": "function"
    },
    {
      "inputs": [
        {
          "internalType": "address",
          "name": "router_",
          "type": "address"
        }
      ],
      "name": "updateRouter",
      "outputs": [],
      "stateMutability": "nonpayable",
      "type": "function"
    },
    {
      "inputs": [
        {
          "internalType": "string",
          "name": "source_",
          "type": "string"
        }
      ],
      "name": "updateSource",
      "outputs": [],
      "stateMutability": "nonpayable",
      "type": "function"
    },
    {
      "inputs": [
        {
          "internalType": "uint64",
          "name": "subscriptionId_",
          "type": "uint64"
        }
      ],
      "name": "updateSubscriptionId",
      "outputs": [],
      "stateMutability": "nonpayable",
      "type": "function"
    },
    {
      "inputs": [],
      "name": "winner",
      "outputs": [
        {
          "internalType": "address",
          "name": "",
          "type": "address"
        }
      ],
      "stateMutability": "view",
      "type": "function"
    }
  ],
  "bytecode": "0x63658363e060025560038054600160a81b600160e81b03191661036b60a91b179055610160604052609160a0818152906200210d60c03960049062000045908262000262565b50600580546001600160a01b03191673a9d587a00a31a52ed70d6026794a8fc5e2f5dcb01790557f66756e2d6176616c616e6368652d66756a692d310000000000000000000000006006556007805463ffffffff1916620493e017905560408051610480810190915261045e8082526200219e6020830139600990620000cc908262000262565b50348015620000da57600080fd5b50604051620025fc380380620025fc833981016040819052620000fd916200032e565b6005546001600160a01b031633806200013057604051631e4fbdf760e01b81526000600482015260240160405180910390fd5b6200013b816200016d565b506001600160a01b0390811660805260038054610100600160a81b031916610100939092169290920217905562000360565b600080546001600160a01b038381166001600160a01b0319831681178455604051919092169283917f8be0079c531659141344cd1fd0a4f28419497f9722a3daafe3b4186f6b6457e09190a35050565b634e487b7160e01b600052604160045260246000fd5b600181811c90821680620001e857607f821691505b6020821081036200020957634e487b7160e01b600052602260045260246000fd5b50919050565b601f8211156200025d57600081815260208120601f850160051c81016020861015620002385750805b601f850160051c820191505b81811015620002595782815560010162000244565b5050505b505050565b81516001600160401b038111156200027e576200027e620001bd565b62000296816200028f8454620001d3565b846200020f565b602080601f831160018114620002ce5760008415620002b55750858301515b600019600386901b1c1916600185901b17855562000259565b600085815260208120601f198616915b82811015620002ff57888601518255948401946001909101908401620002de565b50858210156200031e5787850151600019600388901b60f8161c191681555b5050505050600190811b01905550565b6000602082840312156200034157600080fd5b81516001600160a01b03811681146200035957600080fd5b9392505050565b608051611d8a62000383600039600081816103fd0152610de20152611d8a6000f3fe608060405234801561001057600080fd5b506004361061018e5760003560e01c8063be41cee3116100de578063dfbf53ae11610097578063f60ce3c411610071578063f60ce3c41461038a578063f68016b71461039d578063f6feca37146103c2578063f887ea40146103df57600080fd5b8063dfbf53ae14610351578063ef2bbbdf14610364578063f2fde38b1461037757600080fd5b8063be41cee3146102e2578063c24a0f8b14610302578063c45a01551461030b578063c851cc3214610323578063d9f165dc14610336578063dab79c401461034957600080fd5b80634585e33b1161014b578063715018a611610125578063715018a61461028b5780638da5cb5b146102935780638dbe7b9d146102b8578063a42f3b2f146102cf57600080fd5b80634585e33b146102445780636df0c747146102575780636e04ff0d1461026a57600080fd5b806309c1ba2e146101935780630ca76175146101ca57806314b1dd1b146101df578063150b7a02146101f25780631bee2f2a1461022957806334303bcd14610231575b600080fd5b6003546101ad90600160a81b90046001600160401b031681565b6040516001600160401b0390911681526020015b60405180910390f35b6101dd6101d8366004611691565b6103f2565b005b6101dd6101ed3660046116fd565b610476565b610210610200366004611742565b630a85bd0160e11b949350505050565b6040516001600160e01b031990911681526020016101c1565b6101dd6104ab565b6101dd61023f3660046117a9565b6104bd565b6101dd6102523660046117cf565b6104e1565b6101dd610265366004611840565b610506565b61027d6102783660046117cf565b610513565b6040516101c192919061189f565b6101dd610534565b6000546001600160a01b03165b6040516001600160a01b0390911681526020016101c1565b6102c160065481565b6040519081526020016101c1565b6101dd6102dd3660046118c2565b610546565b6102f56102f0366004611840565b61055a565b6040516101c191906118f6565b6102c160025481565b6003546102a09061010090046001600160a01b031681565b6101dd610331366004611909565b6105f4565b6101dd610344366004611909565b61061e565b6102f561064e565b6001546102a0906001600160a01b031681565b6101dd610372366004611840565b61065b565b6101dd610385366004611909565b610668565b6101dd610398366004611924565b6106ab565b6007546103ad9063ffffffff1681565b60405163ffffffff90911681526020016101c1565b6003546103cf9060ff1681565b60405190151581526020016101c1565b6005546102a0906001600160a01b031681565b336001600160a01b037f0000000000000000000000000000000000000000000000000000000000000000161461043b5760405163c6829f8360e01b815260040160405180910390fd5b6104468383836106bf565b60405183907f85e1543bf2f84fe80c6badbce3648c8539ad1df4d2b3d822938ca0538be727e690600090a2505050565b61047e61082c565b600380546001600160401b03909216600160a81b0267ffffffffffffffff60a81b19909216919091179055565b6104b361082c565b6104bb610859565b565b6104c561082c565b6007805463ffffffff191663ffffffff92909216919091179055565b600254421180156104f5575060035460ff16155b1561050257610502610859565b5050565b61050e61082c565b600655565b600060606002544211801561052b575060035460ff16155b91509250929050565b61053c61082c565b6104bb6000610a16565b61054e61082c565b600461050282826119f4565b600860205260009081526040902080546105739061196c565b80601f016020809104026020016040519081016040528092919081815260200182805461059f9061196c565b80156105ec5780601f106105c1576101008083540402835291602001916105ec565b820191906000526020600020905b8154815290600101906020018083116105cf57829003601f168201915b505050505081565b6105fc61082c565b600580546001600160a01b0319166001600160a01b0392909216919091179055565b61062661082c565b600380546001600160a01b0390921661010002610100600160a81b0319909216919091179055565b600480546105739061196c565b61066361082c565b600255565b61067061082c565b6001600160a01b03811661069f57604051631e4fbdf760e01b8152600060048201526024015b60405180910390fd5b6106a881610a16565b50565b6106b361082c565b600961050282826119f4565b60008381526008602052604090206106d782826119f4565b506106e182610a66565b600180546001600160a01b0319166001600160a01b03928316908117909155600354604051632142170760e11b81523060048201526024810192909252600060448301526101009004909116906342842e0e90606401600060405180830381600087803b15801561075157600080fd5b505af1158015610765573d6000803e3d6000fd5b505060035460018054604051632142170760e11b81523060048201526001600160a01b039182166024820152604481019290925261010090920490911692506342842e0e9150606401600060405180830381600087803b1580156107c857600080fd5b505af11580156107dc573d6000803e3d6000fd5b50506001546040517f8b78bce071b02f296d7efee39b7ca0f3180fb1212df820d3f4c28bfd5dba5c4a935061081f92506001600160a01b03909116908490611ab3565b60405180910390a1505050565b6000546001600160a01b031633146104bb5760405163118cdaa760e01b8152336004820152602401610696565b6003805460ff191660011790556108a76040805160e0810190915280600081526020016000815260200160008152602001606081526020016060815260200160608152602001606081525090565b610944600980546108b79061196c565b80601f01602080910402602001604051908101604052809291908181526020018280546108e39061196c565b80156109305780601f1061090557610100808354040283529160200191610930565b820191906000526020600020905b81548152906001019060200180831161091357829003601f168201915b505050505082610ac790919063ffffffff16565b6109e1600480546109549061196c565b80601f01602080910402602001604051908101604052809291908181526020018280546109809061196c565b80156109cd5780601f106109a2576101008083540402835291602001916109cd565b820191906000526020600020905b8154815290600101906020018083116109b057829003601f168201915b505050505082610ad490919063ffffffff16565b6105026109ed82610b05565b600354600754600654600160a81b9092046001600160401b03169163ffffffff90911690610ddd565b600080546001600160a01b038381166001600160a01b0319831681178455604051919092169283917f8be0079c531659141344cd1fd0a4f28419497f9722a3daafe3b4186f6b6457e09190a35050565b600080610a7283610eaf565b9050601581511015610ab65760405162461bcd60e51b815260206004820152600d60248201526c4f7574206f6620626f756e647360981b6044820152606401610696565b60210151600160601b900492915050565b6105028260008084610fd7565b8051600003610af65760405163e889636f60e01b815260040160405180910390fd5b60016020830152608090910152565b60606000610b14610100611055565b9050610b4d6040518060400160405280600c81526020016b31b7b232a637b1b0ba34b7b760a11b8152508261107690919063ffffffff16565b8251610b6b906002811115610b6457610b64611ad7565b8290611094565b6040805180820190915260088152676c616e677561676560c01b6020820152610b95908290611076565b6040830151610bac908015610b6457610b64611ad7565b604080518082019091526006815265736f7572636560d01b6020820152610bd4908290611076565b6060830151610be4908290611076565b60a08301515115610c78576040805180820190915260048152636172677360e01b6020820152610c15908290611076565b610c1e816110cd565b60005b8360a0015151811015610c6e57610c5e8460a001518281518110610c4757610c47611aed565b60200260200101518361107690919063ffffffff16565b610c6781611b19565b9050610c21565b50610c78816110f1565b60808301515115610d3c57600083602001516002811115610c9b57610c9b611ad7565b03610cb95760405163a80d31f760e01b815260040160405180910390fd5b60408051808201909152600f81526e39b2b1b932ba39a637b1b0ba34b7b760891b6020820152610cea908290611076565b610d0383602001516002811115610b6457610b64611ad7565b6040805180820190915260078152667365637265747360c81b6020820152610d2c908290611076565b6080830151610d3c90829061110f565b60c08301515115610dd55760408051808201909152600981526862797465734172677360b81b6020820152610d72908290611076565b610d7b816110cd565b60005b8360c0015151811015610dcb57610dbb8460c001518281518110610da457610da4611aed565b60200260200101518361110f90919063ffffffff16565b610dc481611b19565b9050610d7e565b50610dd5816110f1565b515192915050565b6000807f00000000000000000000000000000000000000000000000000000000000000006001600160a01b031663461d27628688600188886040518663ffffffff1660e01b8152600401610e35959493929190611b32565b6020604051808303816000875af1158015610e54573d6000803e3d6000fd5b505050506040513d601f19601f82011682018060405250810190610e789190611b7b565b60405190915081907f1131472297a800fee664d1d89cfa8f7676ff07189ecc53f80bbb5f4969099db890600090a295945050505050565b80516060908290610ec290600290611baa565b15610ecc57600080fd5b600060028251610edc9190611bbe565b6001600160401b03811115610ef357610ef36115e6565b6040519080825280601f01601f191660200182016040528015610f1d576020820181803683370190505b50905060005b60028351610f319190611bbe565b811015610fcf57610f6f83610f47836002611bd2565b610f52906001611be9565b81518110610f6257610f62611aed565b016020015160f81c61111c565b610f7e84610f52846002611bd2565b610f89906010611bfc565b610f939190611c1f565b60f81b828281518110610fa857610fa8611aed565b60200101906001600160f81b031916908160001a905350610fc881611b19565b9050610f23565b509392505050565b8051600003610ff9576040516322ce3edd60e01b815260040160405180910390fd5b8383600281111561100c5761100c611ad7565b9081600281111561101f5761101f611ad7565b9052506040840182801561103557611035611ad7565b9081801561104557611045611ad7565b9052506060909301929092525050565b61105d6115b1565b80516110699083611206565b5060006020820152919050565b611083826003835161127d565b815161108f908261139c565b505050565b81516110a19060c26113c4565b5061050282826040516020016110b991815260200190565b60405160208183030381529060405261110f565b6110d881600461142d565b6001816020018181516110eb9190611be9565b90525050565b6110fc81600761142d565b6001816020018181516110eb9190611c38565b611083826002835161127d565b6000600360fc1b60f883901b6001600160f81b031916108015906111525750603960f81b60f883901b6001600160f81b03191611155b1561116857611162603083611c4b565b92915050565b606160f81b60f883901b6001600160f81b0319161080159061119c5750603360f91b60f883901b6001600160f81b03191611155b156111b85760616111ae83600a611c1f565b6111629190611c4b565b604160f81b60f883901b6001600160f81b031916108015906111ec5750602360f91b60f883901b6001600160f81b03191611155b156111fe5760416111ae83600a611c1f565b506000919050565b604080518082019091526060815260006020820152611226602083611baa565b1561124e57611236602083611baa565b611241906020611c38565b61124b9083611be9565b91505b60208084018390526040518085526000815290818401018181101561127257600080fd5b604052509192915050565b6017816001600160401b0316116112a95782516112a39060e0600585901b1683176113c4565b50505050565b60ff816001600160401b0316116112e95782516112d1906018611fe0600586901b16176113c4565b5082516112a3906001600160401b0383166001611444565b61ffff816001600160401b03161161132a578251611312906019611fe0600586901b16176113c4565b5082516112a3906001600160401b0383166002611444565b63ffffffff816001600160401b03161161136d57825161135590601a611fe0600586901b16176113c4565b5082516112a3906001600160401b0383166004611444565b825161138490601b611fe0600586901b16176113c4565b5082516112a3906001600160401b0383166008611444565b6040805180820190915260608152600060208201526113bd838384516114c9565b9392505050565b60408051808201909152606081526000602082015282515160006113e9826001611be9565b90508460200151821061140a5761140a85611405836002611bd2565b61159a565b8451602083820101858153508051821115611423578181525b5093949350505050565b815161108f90601f611fe0600585901b16176113c4565b60408051808201909152606081526000602082015283515160006114688285611be9565b905085602001518111156114855761148586611405836002611bd2565b6000600161149586610100611d48565b61149f9190611c38565b905086518281018783198251161781525080518311156114bd578281525b50959695505050505050565b60408051808201909152606081526000602082015282518211156114ec57600080fd5b83515160006114fb8483611be9565b905085602001518111156115185761151886611405836002611bd2565b855180518382016020019160009180851115611532578482525b505050602086015b602086106115725780518252611551602083611be9565b915061155e602082611be9565b905061156b602087611c38565b955061153a565b51815160001960208890036101000a0190811690199190911617905250849150509392505050565b81516115a68383611206565b506112a3838261139c565b60405180604001604052806115d9604051806040016040528060608152602001600081525090565b8152602001600081525090565b634e487b7160e01b600052604160045260246000fd5b60006001600160401b0380841115611616576116166115e6565b604051601f8501601f19908116603f0116810190828211818310171561163e5761163e6115e6565b8160405280935085815286868601111561165757600080fd5b858560208301376000602087830101525050509392505050565b600082601f83011261168257600080fd5b6113bd838335602085016115fc565b6000806000606084860312156116a657600080fd5b8335925060208401356001600160401b03808211156116c457600080fd5b6116d087838801611671565b935060408601359150808211156116e657600080fd5b506116f386828701611671565b9150509250925092565b60006020828403121561170f57600080fd5b81356001600160401b03811681146113bd57600080fd5b80356001600160a01b038116811461173d57600080fd5b919050565b6000806000806080858703121561175857600080fd5b61176185611726565b935061176f60208601611726565b92506040850135915060608501356001600160401b0381111561179157600080fd5b61179d87828801611671565b91505092959194509250565b6000602082840312156117bb57600080fd5b813563ffffffff811681146113bd57600080fd5b600080602083850312156117e257600080fd5b82356001600160401b03808211156117f957600080fd5b818501915085601f83011261180d57600080fd5b81358181111561181c57600080fd5b86602082850101111561182e57600080fd5b60209290920196919550909350505050565b60006020828403121561185257600080fd5b5035919050565b6000815180845260005b8181101561187f57602081850181015186830182015201611863565b506000602082860101526020601f19601f83011685010191505092915050565b82151581526040602082015260006118ba6040830184611859565b949350505050565b6000602082840312156118d457600080fd5b81356001600160401b038111156118ea57600080fd5b6118ba84828501611671565b6020815260006113bd6020830184611859565b60006020828403121561191b57600080fd5b6113bd82611726565b60006020828403121561193657600080fd5b81356001600160401b0381111561194c57600080fd5b8201601f8101841361195d57600080fd5b6118ba848235602084016115fc565b600181811c9082168061198057607f821691505b6020821081036119a057634e487b7160e01b600052602260045260246000fd5b50919050565b601f82111561108f57600081815260208120601f850160051c810160208610156119cd5750805b601f850160051c820191505b818110156119ec578281556001016119d9565b505050505050565b81516001600160401b03811115611a0d57611a0d6115e6565b611a2181611a1b845461196c565b846119a6565b602080601f831160018114611a565760008415611a3e5750858301515b600019600386901b1c1916600185901b1785556119ec565b600085815260208120601f198616915b82811015611a8557888601518255948401946001909101908401611a66565b5085821015611aa35787850151600019600388901b60f8161c191681555b5050505050600190811b01905550565b6001600160a01b03831681526040602082018190526000906118ba90830184611859565b634e487b7160e01b600052602160045260246000fd5b634e487b7160e01b600052603260045260246000fd5b634e487b7160e01b600052601160045260246000fd5b600060018201611b2b57611b2b611b03565b5060010190565b6001600160401b038616815260a060208201526000611b5460a0830187611859565b61ffff9590951660408301525063ffffffff92909216606083015260809091015292915050565b600060208284031215611b8d57600080fd5b5051919050565b634e487b7160e01b600052601260045260246000fd5b600082611bb957611bb9611b94565b500690565b600082611bcd57611bcd611b94565b500490565b808202811582820484141761116257611162611b03565b8082018082111561116257611162611b03565b60ff8181168382160290811690818114611c1857611c18611b03565b5092915050565b60ff818116838216019081111561116257611162611b03565b8181038181111561116257611162611b03565b60ff828116828216039081111561116257611162611b03565b600181815b80851115611c9f578160001904821115611c8557611c85611b03565b80851615611c9257918102915b93841c9390800290611c69565b509250929050565b600082611cb657506001611162565b81611cc357506000611162565b8160018114611cd95760028114611ce357611cff565b6001915050611162565b60ff841115611cf457611cf4611b03565b50506001821b611162565b5060208310610133831016604e8410600b8410161715611d22575081810a611162565b611d2c8383611c64565b8060001904821115611d4057611d40611b03565b029392505050565b60006113bd8383611ca756fea2646970667358221220314bce598378385419a328a2c365dc785ceaf7ee8196f83a98fcbe3e3415e8dc64736f6c634300081400333e1d02d274f82e20df6b75193cc7b9d202d3e1841dee24913f2d5c5efb3c51bb813aba0b77e269b8c94106c394e311fa6ec2916704e1f2aed1ad9ee11e7891ebd0afe6fc6c11a6dfa63aa590539fe38e25f88ec5da2103d0f809026288dba6ce49f3e643feebd856a47ab4a98f92449cf3b8fc5fd538ed09e7595df512c2b2c285af7ce9cdfc605cf16f376dc530e5f749636f6e7374207469746c654964203d20273345413434273b636f6e7374207374617469737469634e616d65203d20276c6576656c273b636f6e7374207374617274506f736974696f6e203d20303b636f6e7374206d6178526573756c7473436f756e74203d20313b636f6e7374206765744c6561646572626f61726455726c203d206068747470733a2f2f247b7469746c6549647d2e706c61796661626170692e636f6d2f5365727665722f4765744c6561646572626f6172643f5374617469737469634e616d653d247b7374617469737469634e616d657d265374617274506f736974696f6e3d247b7374617274506f736974696f6e7d264d6178526573756c7473436f756e743d247b6d6178526573756c7473436f756e747d603b636f6e737420676574557365724163636f756e74496e666f55726c203d206068747470733a2f2f247b7469746c6549647d2e706c61796661626170692e636f6d2f5365727665722f476574557365724163636f756e74496e666f603b636f6e7374206c6561646572626f617264526571203d2061776169742046756e6374696f6e732e6d616b654874747052657175657374287b75726c3a206765744c6561646572626f61726455726c2c6d6574686f643a2027504f5354272c686561646572733a207b27436f6e74656e742d54797065273a20276170706c69636174696f6e2f6a736f6e272c274163636570742d456e636f64696e67273a20276964656e74697479272c27582d5365637265744b6579273a20736563726574732e706c61796661624170694b65797d2c7d293b696620286c6561646572626f6172645265712e6572726f7229207468726f77206e6577204572726f722860247b6c6561646572626f6172645265712e6d6573736167657d60293b636f6e737420706c61794661624964203d206c6561646572626f6172645265712e646174612e646174612e4c6561646572626f6172645b305d2e506c617946616249643b636f6e737420617069526573706f6e7365203d2061776169742046756e6374696f6e732e6d616b654874747052657175657374287b75726c3a20676574557365724163636f756e74496e666f55726c2c6d6574686f643a2027504f5354272c686561646572733a207b27436f6e74656e742d54797065273a20276170706c69636174696f6e2f6a736f6e272c274163636570742d456e636f64696e67273a20276964656e74697479272c27582d5365637265744b6579273a20736563726574732e706c61796661624170694b65797d2c706172616d733a7b27506c61794661624944273a20706c617946616249642c7d7d293b69662028617069526573706f6e73652e6572726f7229207468726f77206e6577204572726f722860247b617069526573706f6e73652e6d6573736167657d60293b72657475726e2046756e6374696f6e732e656e636f6465537472696e6728617069526573706f6e73652e646174612e646174612e55736572496e666f2e437573746f6d4964496e666f2e437573746f6d4964293b",
  "linkReferences": {},
  "deployedLinkReferences": {}
}