{
  "_format": "hh-sol-artifact-1",
  "contractName": "LotteryManager",
  "sourceName": "contracts/LotteryManager.sol",
  "abi": [
    {
      "inputs": [],
      "stateMutability": "nonpayable",
      "type": "constructor"
    },
    {
      "inputs": [
        {
          "internalType": "address",
          "name": "have",
          "type": "address"
        },
        {
          "internalType": "address",
          "name": "want",
          "type": "address"
        }
      ],
      "name": "OnlyCoordinatorCanFulfill",
      "type": "error"
    },
    {
      "inputs": [
        {
          "internalType": "address",
          "name": "owner",
          "type": "address"
        }
      ],
      "name": "OwnableInvalidOwner",
      "type": "error"
    },
    {
      "inputs": [
        {
          "internalType": "address",
          "name": "account",
          "type": "address"
        }
      ],
      "name": "OwnableUnauthorizedAccount",
      "type": "error"
    },
    {
      "anonymous": false,
      "inputs": [
        {
          "indexed": true,
          "internalType": "address",
          "name": "previousOwner",
          "type": "address"
        },
        {
          "indexed": true,
          "internalType": "address",
          "name": "newOwner",
          "type": "address"
        }
      ],
      "name": "OwnershipTransferred",
      "type": "event"
    },
    {
      "inputs": [],
      "name": "adsManager",
      "outputs": [
        {
          "internalType": "contract IAdsManager",
          "name": "",
          "type": "address"
        }
      ],
      "stateMutability": "view",
      "type": "function"
    },
    {
      "inputs": [],
      "name": "callbackGasLimit",
      "outputs": [
        {
          "internalType": "uint32",
          "name": "",
          "type": "uint32"
        }
      ],
      "stateMutability": "view",
      "type": "function"
    },
    {
      "inputs": [],
      "name": "keyHash",
      "outputs": [
        {
          "internalType": "bytes32",
          "name": "",
          "type": "bytes32"
        }
      ],
      "stateMutability": "view",
      "type": "function"
    },
    {
      "inputs": [],
      "name": "owner",
      "outputs": [
        {
          "internalType": "address",
          "name": "",
          "type": "address"
        }
      ],
      "stateMutability": "view",
      "type": "function"
    },
    {
      "inputs": [
        {
          "internalType": "uint256",
          "name": "requestId",
          "type": "uint256"
        },
        {
          "internalType": "uint256[]",
          "name": "randomWords",
          "type": "uint256[]"
        }
      ],
      "name": "rawFulfillRandomWords",
      "outputs": [],
      "stateMutability": "nonpayable",
      "type": "function"
    },
    {
      "inputs": [],
      "name": "renounceOwnership",
      "outputs": [],
      "stateMutability": "nonpayable",
      "type": "function"
    },
    {
      "inputs": [],
      "name": "requestConfirmations",
      "outputs": [
        {
          "internalType": "uint16",
          "name": "",
          "type": "uint16"
        }
      ],
      "stateMutability": "view",
      "type": "function"
    },
    {
      "inputs": [],
      "name": "startLottery",
      "outputs": [
        {
          "internalType": "uint256",
          "name": "requestId",
          "type": "uint256"
        }
      ],
      "stateMutability": "nonpayable",
      "type": "function"
    },
    {
      "inputs": [],
      "name": "subscriptionId",
      "outputs": [
        {
          "internalType": "uint64",
          "name": "",
          "type": "uint64"
        }
      ],
      "stateMutability": "view",
      "type": "function"
    },
    {
      "inputs": [
        {
          "internalType": "address",
          "name": "newOwner",
          "type": "address"
        }
      ],
      "name": "transferOwnership",
      "outputs": [],
      "stateMutability": "nonpayable",
      "type": "function"
    },
    {
      "inputs": [
        {
          "internalType": "address",
          "name": "adsManager_",
          "type": "address"
        }
      ],
      "name": "updateAdsManager",
      "outputs": [],
      "stateMutability": "nonpayable",
      "type": "function"
    },
    {
      "inputs": [
        {
          "internalType": "address",
          "name": "vrfCoordinator_",
          "type": "address"
        }
      ],
      "name": "updateCordinator",
      "outputs": [],
      "stateMutability": "nonpayable",
      "type": "function"
    },
    {
      "inputs": [
        {
          "internalType": "uint32",
          "name": "gasLimit",
          "type": "uint32"
        }
      ],
      "name": "updateGasLimit",
      "outputs": [],
      "stateMutability": "nonpayable",
      "type": "function"
    },
    {
      "inputs": [
        {
          "internalType": "bytes32",
          "name": "keyHash_",
          "type": "bytes32"
        }
      ],
      "name": "updateKeyHash",
      "outputs": [],
      "stateMutability": "nonpayable",
      "type": "function"
    },
    {
      "inputs": [
        {
          "internalType": "uint16",
          "name": "requestConfirmations_",
          "type": "uint16"
        }
      ],
      "name": "updateRequestConfirmations",
      "outputs": [],
      "stateMutability": "nonpayable",
      "type": "function"
    },
    {
      "inputs": [
        {
          "internalType": "uint64",
          "name": "subscriptionId_",
          "type": "uint64"
        }
      ],
      "name": "updateSubscriptionId",
      "outputs": [],
      "stateMutability": "nonpayable",
      "type": "function"
    },
    {
      "inputs": [],
      "name": "vrfCoordinator",
      "outputs": [
        {
          "internalType": "contract VRFCoordinatorV2Interface",
          "name": "",
          "type": "address"
        }
      ],
      "stateMutability": "view",
      "type": "function"
    }
  ],
  "bytecode": "0x60a060405260028054600160a01b600160e01b03191661031760a01b1790557f354d2f95da55398f44b7cff77da56283d9c6c829a4bdf1bbcaf2ad6a4d081f61600355600480546001600160501b0319166601000300009c4017905534801561006757600080fd5b50732ed832ba664535e5886b75d64c46eb9a228c261033806100a357604051631e4fbdf760e01b81526000600482015260240160405180910390fd5b6100ac816100e4565b506001600160a01b0316608052600280546001600160a01b031916732ed832ba664535e5886b75d64c46eb9a228c2610179055610134565b600080546001600160a01b038381166001600160a01b0319831681178455604051919092169283917f8be0079c531659141344cd1fd0a4f28419497f9722a3daafe3b4186f6b6457e09190a35050565b60805161085f610156600039600081816103cd015261040f015261085f6000f3fe608060405234801561001057600080fd5b506004361061010b5760003560e01c8063715018a6116100a2578063a3e56fa811610071578063a3e56fa814610232578063b0fb162f14610245578063ba00f6c51461026e578063e7fa67e514610281578063f2fde38b1461029457600080fd5b8063715018a6146101f35780638da5cb5b146101fb578063986ff1711461020c578063a043274d1461021f57600080fd5b806324f74697116100de57806324f746971461018757806334303bcd146101ac578063490f2798146101bf57806361728f39146101ea57600080fd5b806309c1ba2e1461011057806314b1dd1b14610149578063160344e21461015e5780631fe543e314610174575b600080fd5b60025461012b90600160a01b900467ffffffffffffffff1681565b60405167ffffffffffffffff90911681526020015b60405180910390f35b61015c61015736600461065d565b6102a7565b005b6101666102dd565b604051908152602001610140565b61015c6101823660046106a4565b6103c2565b6004546101979063ffffffff1681565b60405163ffffffff9091168152602001610140565b61015c6101ba36600461076e565b61044f565b6001546101d2906001600160a01b031681565b6040516001600160a01b039091168152602001610140565b61016660035481565b61015c610473565b6000546001600160a01b03166101d2565b61015c61021a366004610794565b610487565b61015c61022d366004610794565b6104b1565b6002546101d2906001600160a01b031681565b60045461025b90640100000000900461ffff1681565b60405161ffff9091168152602001610140565b61015c61027c3660046107bd565b6104db565b61015c61028f3660046107e1565b610507565b61015c6102a2366004610794565b610514565b6102af610552565b6002805467ffffffffffffffff909216600160a01b0267ffffffffffffffff60a01b19909216919091179055565b6001546000906001600160a01b0316336001600160a01b03161461030057600080fd5b600254600354600480546040516305d3b1d360e41b815291820192909252600160a01b830467ffffffffffffffff166024820152640100000000820461ffff16604482015263ffffffff8083166064830152660100000000000090920490911660848201526001600160a01b0390911690635d3b1d309060a4016020604051808303816000875af1158015610399573d6000803e3d6000fd5b505050506040513d601f19601f820116820180604052508101906103bd91906107fa565b905090565b336001600160a01b037f000000000000000000000000000000000000000000000000000000000000000016146104415760405163073e64fd60e21b81523360048201526001600160a01b037f00000000000000000000000000000000000000000000000000000000000000001660248201526044015b60405180910390fd5b61044b828261057f565b5050565b610457610552565b6004805463ffffffff191663ffffffff92909216919091179055565b61047b610552565b610485600061060d565b565b61048f610552565b600280546001600160a01b0319166001600160a01b0392909216919091179055565b6104b9610552565b600180546001600160a01b0319166001600160a01b0392909216919091179055565b6104e3610552565b6004805461ffff9092166401000000000265ffff0000000019909216919091179055565b61050f610552565b600355565b61051c610552565b6001600160a01b03811661054657604051631e4fbdf760e01b815260006004820152602401610438565b61054f8161060d565b50565b6000546001600160a01b031633146104855760405163118cdaa760e01b8152336004820152602401610438565b60015481516001600160a01b039091169063e485cf5090849084906000906105a9576105a9610813565b60200260200101516040518363ffffffff1660e01b81526004016105d7929190918252602082015260400190565b600060405180830381600087803b1580156105f157600080fd5b505af1158015610605573d6000803e3d6000fd5b505050505050565b600080546001600160a01b038381166001600160a01b0319831681178455604051919092169283917f8be0079c531659141344cd1fd0a4f28419497f9722a3daafe3b4186f6b6457e09190a35050565b60006020828403121561066f57600080fd5b813567ffffffffffffffff8116811461068757600080fd5b9392505050565b634e487b7160e01b600052604160045260246000fd5b600080604083850312156106b757600080fd5b8235915060208084013567ffffffffffffffff808211156106d757600080fd5b818601915086601f8301126106eb57600080fd5b8135818111156106fd576106fd61068e565b8060051b604051601f19603f830116810181811085821117156107225761072261068e565b60405291825284820192508381018501918983111561074057600080fd5b938501935b8285101561075e57843584529385019392850192610745565b8096505050505050509250929050565b60006020828403121561078057600080fd5b813563ffffffff8116811461068757600080fd5b6000602082840312156107a657600080fd5b81356001600160a01b038116811461068757600080fd5b6000602082840312156107cf57600080fd5b813561ffff8116811461068757600080fd5b6000602082840312156107f357600080fd5b5035919050565b60006020828403121561080c57600080fd5b5051919050565b634e487b7160e01b600052603260045260246000fdfea2646970667358221220cf9263f73ad351e4e2ab3e83af67b00ed14d9751b6911d696a8574759127fd4464736f6c63430008140033",
  "linkReferences": {},
  "deployedLinkReferences": {}
}