{
  "_format": "hh-sol-artifact-1",
  "contractName": "PriceFeedManager",
  "sourceName": "contracts/PriceFeedManager.sol",
  "abi": [
    {
      "inputs": [],
      "stateMutability": "nonpayable",
      "type": "constructor"
    },
    {
      "inputs": [
        {
          "internalType": "address",
          "name": "owner",
          "type": "address"
        }
      ],
      "name": "OwnableInvalidOwner",
      "type": "error"
    },
    {
      "inputs": [
        {
          "internalType": "address",
          "name": "account",
          "type": "address"
        }
      ],
      "name": "OwnableUnauthorizedAccount",
      "type": "error"
    },
    {
      "inputs": [],
      "name": "ParameterError",
      "type": "error"
    },
    {
      "inputs": [],
      "name": "PriceRequestError",
      "type": "error"
    },
    {
      "anonymous": false,
      "inputs": [
        {
          "indexed": true,
          "internalType": "address",
          "name": "previousOwner",
          "type": "address"
        },
        {
          "indexed": true,
          "internalType": "address",
          "name": "newOwner",
          "type": "address"
        }
      ],
      "name": "OwnershipTransferred",
      "type": "event"
    },
    {
      "inputs": [
        {
          "internalType": "int256",
          "name": "usdAmount",
          "type": "int256"
        }
      ],
      "name": "getTokenNativePrice",
      "outputs": [
        {
          "internalType": "int256",
          "name": "coinPrice",
          "type": "int256"
        }
      ],
      "stateMutability": "view",
      "type": "function"
    },
    {
      "inputs": [],
      "name": "nativeTokenUsd_Pair",
      "outputs": [
        {
          "internalType": "address",
          "name": "",
          "type": "address"
        }
      ],
      "stateMutability": "view",
      "type": "function"
    },
    {
      "inputs": [],
      "name": "owner",
      "outputs": [
        {
          "internalType": "address",
          "name": "",
          "type": "address"
        }
      ],
      "stateMutability": "view",
      "type": "function"
    },
    {
      "inputs": [],
      "name": "renounceOwnership",
      "outputs": [],
      "stateMutability": "nonpayable",
      "type": "function"
    },
    {
      "inputs": [
        {
          "internalType": "address",
          "name": "newOwner",
          "type": "address"
        }
      ],
      "name": "transferOwnership",
      "outputs": [],
      "stateMutability": "nonpayable",
      "type": "function"
    },
    {
      "inputs": [
        {
          "internalType": "address",
          "name": "pairAddress",
          "type": "address"
        }
      ],
      "name": "updatePairAddress",
      "outputs": [],
      "stateMutability": "nonpayable",
      "type": "function"
    }
  ],
  "bytecode": "0x6080604052600180546001600160a01b031916735498bb86bc934c8d34fda08e81d444153d0d06ad17905534801561003657600080fd5b50338061005d57604051631e4fbdf760e01b81526000600482015260240160405180910390fd5b6100668161006c565b506100bc565b600080546001600160a01b038381166001600160a01b0319831681178455604051919092169283917f8be0079c531659141344cd1fd0a4f28419497f9722a3daafe3b4186f6b6457e09190a35050565b610683806100cb6000396000f3fe608060405234801561001057600080fd5b50600436106100625760003560e01c8063715018a614610067578063733e039e1461007157806381a3aaa6146100a15780638da5cb5b146100c2578063b23e5c4c146100d3578063f2fde38b146100e6575b600080fd5b61006f6100f9565b005b600154610084906001600160a01b031681565b6040516001600160a01b0390911681526020015b60405180910390f35b6100b46100af36600461038d565b61010d565b604051908152602001610098565b6000546001600160a01b0316610084565b61006f6100e13660046103a6565b6101c6565b61006f6100f43660046103a6565b6101f0565b610101610233565b61010b6000610260565b565b60008082121561013057604051631372c76160e11b815260040160405180910390fd5b8160000361014057506000919050565b600154600090819061015a906001600160a01b03166102b0565b915091506000821361017f57604051634c52c18760e01b815260040160405180910390fd5b61018a8160126103ec565b61019590600a610540565b61019f908361054f565b9150816101b485670de0b6b3a764000061054f565b6101be919061057f565b949350505050565b6101ce610233565b600180546001600160a01b0319166001600160a01b0392909216919091179055565b6101f8610233565b6001600160a01b03811661022757604051631e4fbdf760e01b8152600060048201526024015b60405180910390fd5b61023081610260565b50565b6000546001600160a01b0316331461010b5760405163118cdaa760e01b815233600482015260240161021e565b600080546001600160a01b038381166001600160a01b0319831681178455604051919092169283917f8be0079c531659141344cd1fd0a4f28419497f9722a3daafe3b4186f6b6457e09190a35050565b6000806000839050806001600160a01b031663313ce5676040518163ffffffff1660e01b8152600401602060405180830381865afa1580156102f6573d6000803e3d6000fd5b505050506040513d601f19601f8201168201806040525081019061031a91906105bb565b9150806001600160a01b031663feaf968c6040518163ffffffff1660e01b815260040160a060405180830381865afa15801561035a573d6000803e3d6000fd5b505050506040513d601f19601f8201168201806040525081019061037e91906105fd565b50919794965093945050505050565b60006020828403121561039f57600080fd5b5035919050565b6000602082840312156103b857600080fd5b81356001600160a01b03811681146103cf57600080fd5b9392505050565b634e487b7160e01b600052601160045260246000fd5b60ff8281168282160390811115610405576104056103d6565b92915050565b80825b600180861161041d5750610450565b6001600160ff1b03829004821115610437576104376103d6565b8086161561044457918102915b9490941c93800261040e565b935093915050565b600082801561046e576001811461047857610481565b6001915050610405565b82915050610405565b508161048f57506000610405565b506001600082138082146104a85780156104c7576104e1565b6001600160ff1b038390048311156104c2576104c26103d6565b6104e1565b6001600160ff1b038390058312156104e1576104e16103d6565b50808316156104ed5750805b6104fd8360011c8384028361040b565b600082136001600160ff1b038290048311161561051c5761051c6103d6565b60008212600160ff1b82900583121615610538576105386103d6565b029392505050565b60006103cf60ff841683610458565b80820260008212600160ff1b8414161561056b5761056b6103d6565b8181058314821517610405576104056103d6565b60008261059c57634e487b7160e01b600052601260045260246000fd5b600160ff1b8214600019841416156105b6576105b66103d6565b500590565b6000602082840312156105cd57600080fd5b815160ff811681146103cf57600080fd5b805169ffffffffffffffffffff811681146105f857600080fd5b919050565b600080600080600060a0868803121561061557600080fd5b61061e866105de565b9450602086015193506040860151925060608601519150610641608087016105de565b9050929550929590935056fea26469706673582212201cd8413baa8139dcf1356bd7b226737f2b95412d1211cc2b2094ebd9745b02e864736f6c63430008140033",
  "linkReferences": {},
  "deployedLinkReferences": {}
}