{
  "_format": "hh-sol-artifact-1",
  "contractName": "IPFSManager",
  "sourceName": "contracts/IPFSManager.sol",
  "abi": [
    {
      "inputs": [],
      "stateMutability": "nonpayable",
      "type": "constructor"
    },
    {
      "inputs": [],
      "name": "EmptyArgs",
      "type": "error"
    },
    {
      "inputs": [],
      "name": "EmptySecrets",
      "type": "error"
    },
    {
      "inputs": [],
      "name": "EmptySource",
      "type": "error"
    },
    {
      "inputs": [],
      "name": "NoInlineSecrets",
      "type": "error"
    },
    {
      "inputs": [],
      "name": "OnlyRouterCanFulfill",
      "type": "error"
    },
    {
      "inputs": [
        {
          "internalType": "address",
          "name": "owner",
          "type": "address"
        }
      ],
      "name": "OwnableInvalidOwner",
      "type": "error"
    },
    {
      "inputs": [
        {
          "internalType": "address",
          "name": "account",
          "type": "address"
        }
      ],
      "name": "OwnableUnauthorizedAccount",
      "type": "error"
    },
    {
      "inputs": [],
      "name": "UnauthorizedSender",
      "type": "error"
    },
    {
      "anonymous": false,
      "inputs": [
        {
          "indexed": true,
          "internalType": "address",
          "name": "previousOwner",
          "type": "address"
        },
        {
          "indexed": true,
          "internalType": "address",
          "name": "newOwner",
          "type": "address"
        }
      ],
      "name": "OwnershipTransferred",
      "type": "event"
    },
    {
      "anonymous": false,
      "inputs": [
        {
          "indexed": true,
          "internalType": "bytes32",
          "name": "id",
          "type": "bytes32"
        }
      ],
      "name": "RequestFulfilled",
      "type": "event"
    },
    {
      "anonymous": false,
      "inputs": [
        {
          "indexed": true,
          "internalType": "bytes32",
          "name": "id",
          "type": "bytes32"
        }
      ],
      "name": "RequestSent",
      "type": "event"
    },
    {
      "anonymous": false,
      "inputs": [
        {
          "indexed": false,
          "internalType": "bytes32",
          "name": "requestId",
          "type": "bytes32"
        },
        {
          "indexed": false,
          "internalType": "string",
          "name": "ipfsUri",
          "type": "string"
        },
        {
          "indexed": false,
          "internalType": "bytes",
          "name": "errors",
          "type": "bytes"
        }
      ],
      "name": "Response",
      "type": "event"
    },
    {
      "inputs": [],
      "name": "adsManager",
      "outputs": [
        {
          "internalType": "contract IAdsManager",
          "name": "",
          "type": "address"
        }
      ],
      "stateMutability": "view",
      "type": "function"
    },
    {
      "inputs": [
        {
          "internalType": "bool",
          "name": "contractOrToken",
          "type": "bool"
        },
        {
          "internalType": "string[]",
          "name": "args",
          "type": "string[]"
        }
      ],
      "name": "createMetadata",
      "outputs": [
        {
          "internalType": "bytes32",
          "name": "",
          "type": "bytes32"
        }
      ],
      "stateMutability": "nonpayable",
      "type": "function"
    },
    {
      "inputs": [],
      "name": "donId",
      "outputs": [
        {
          "internalType": "bytes32",
          "name": "",
          "type": "bytes32"
        }
      ],
      "stateMutability": "view",
      "type": "function"
    },
    {
      "inputs": [],
      "name": "encryptedSecretsUrls",
      "outputs": [
        {
          "internalType": "bytes",
          "name": "",
          "type": "bytes"
        }
      ],
      "stateMutability": "view",
      "type": "function"
    },
    {
      "inputs": [
        {
          "internalType": "bytes32",
          "name": "",
          "type": "bytes32"
        }
      ],
      "name": "errors",
      "outputs": [
        {
          "internalType": "bytes",
          "name": "",
          "type": "bytes"
        }
      ],
      "stateMutability": "view",
      "type": "function"
    },
    {
      "inputs": [],
      "name": "gasLimit",
      "outputs": [
        {
          "internalType": "uint32",
          "name": "",
          "type": "uint32"
        }
      ],
      "stateMutability": "view",
      "type": "function"
    },
    {
      "inputs": [
        {
          "internalType": "bytes32",
          "name": "requestId",
          "type": "bytes32"
        },
        {
          "internalType": "bytes",
          "name": "response",
          "type": "bytes"
        },
        {
          "internalType": "bytes",
          "name": "err",
          "type": "bytes"
        }
      ],
      "name": "handleOracleFulfillment",
      "outputs": [],
      "stateMutability": "nonpayable",
      "type": "function"
    },
    {
      "inputs": [],
      "name": "owner",
      "outputs": [
        {
          "internalType": "address",
          "name": "",
          "type": "address"
        }
      ],
      "stateMutability": "view",
      "type": "function"
    },
    {
      "inputs": [],
      "name": "renounceOwnership",
      "outputs": [],
      "stateMutability": "nonpayable",
      "type": "function"
    },
    {
      "inputs": [],
      "name": "router",
      "outputs": [
        {
          "internalType": "address",
          "name": "",
          "type": "address"
        }
      ],
      "stateMutability": "view",
      "type": "function"
    },
    {
      "inputs": [],
      "name": "subscriptionId",
      "outputs": [
        {
          "internalType": "uint64",
          "name": "",
          "type": "uint64"
        }
      ],
      "stateMutability": "view",
      "type": "function"
    },
    {
      "inputs": [
        {
          "internalType": "address",
          "name": "newOwner",
          "type": "address"
        }
      ],
      "name": "transferOwnership",
      "outputs": [],
      "stateMutability": "nonpayable",
      "type": "function"
    },
    {
      "inputs": [
        {
          "internalType": "address",
          "name": "adsManager_",
          "type": "address"
        }
      ],
      "name": "updateAdsManager",
      "outputs": [],
      "stateMutability": "nonpayable",
      "type": "function"
    },
    {
      "inputs": [
        {
          "internalType": "bytes32",
          "name": "donId_",
          "type": "bytes32"
        }
      ],
      "name": "updateDonId",
      "outputs": [],
      "stateMutability": "nonpayable",
      "type": "function"
    },
    {
      "inputs": [
        {
          "internalType": "bytes",
          "name": "encryptedSecretsUrls_",
          "type": "bytes"
        }
      ],
      "name": "updateEncryptedSecretsUrls",
      "outputs": [],
      "stateMutability": "nonpayable",
      "type": "function"
    },
    {
      "inputs": [
        {
          "internalType": "uint32",
          "name": "gasLimit_",
          "type": "uint32"
        }
      ],
      "name": "updateGasLimit",
      "outputs": [],
      "stateMutability": "nonpayable",
      "type": "function"
    },
    {
      "inputs": [
        {
          "internalType": "address",
          "name": "router_",
          "type": "address"
        }
      ],
      "name": "updateRouter",
      "outputs": [],
      "stateMutability": "nonpayable",
      "type": "function"
    },
    {
      "inputs": [
        {
          "internalType": "bool",
          "name": "contractOrToken",
          "type": "bool"
        },
        {
          "internalType": "string",
          "name": "source_",
          "type": "string"
        }
      ],
      "name": "updateSource",
      "outputs": [],
      "stateMutability": "nonpayable",
      "type": "function"
    },
    {
      "inputs": [
        {
          "internalType": "uint64",
          "name": "subscriptionId_",
          "type": "uint64"
        }
      ],
      "name": "updateSubscriptionId",
      "outputs": [],
      "stateMutability": "nonpayable",
      "type": "function"
    }
  ],
  "bytecode": "0x60018054600160a01b600160e01b0319166105eb60a01b179055610160604052609160a0818152906200247160c0396002906200003d90826200023d565b50600380546001600160a01b03191673a9d587a00a31a52ed70d6026794a8fc5e2f5dcb01790557f66756e2d6176616c616e6368652d66756a692d310000000000000000000000006004556005805463ffffffff1916620493e017905560408051610540810190915261050480825262001f6d6020830139600790620000c490826200023d565b5060405180610340016040528061031d815260200162001c5061031d9139600890620000f190826200023d565b50348015620000ff57600080fd5b506003546001600160a01b031660805233806200013657604051631e4fbdf760e01b81526000600482015260240160405180910390fd5b620001418162000148565b5062000309565b600080546001600160a01b038381166001600160a01b0319831681178455604051919092169283917f8be0079c531659141344cd1fd0a4f28419497f9722a3daafe3b4186f6b6457e09190a35050565b634e487b7160e01b600052604160045260246000fd5b600181811c90821680620001c357607f821691505b602082108103620001e457634e487b7160e01b600052602260045260246000fd5b50919050565b601f8211156200023857600081815260208120601f850160051c81016020861015620002135750805b601f850160051c820191505b8181101562000234578281556001016200021f565b5050505b505050565b81516001600160401b0381111562000259576200025962000198565b62000271816200026a8454620001ae565b84620001ea565b602080601f831160018114620002a95760008415620002905750858301515b600019600386901b1c1916600185901b17855562000234565b600085815260208120601f198616915b82811015620002da57888601518255948401946001909101908401620002b9565b5085821015620002f95787850151600019600388901b60f8161c191681555b5050505050600190811b01905550565b6080516119246200032c600039600081816102e30152610be201526119246000f3fe608060405234801561001057600080fd5b50600436106101215760003560e01c80638dbe7b9d116100ad578063c851cc3211610071578063c851cc3214610272578063dab79c4014610285578063f2fde38b1461028d578063f68016b7146102a0578063f887ea40146102c557600080fd5b80638dbe7b9d1461020257806398b8d04a14610219578063a043274d1461022c578063a42f3b2f1461023f578063be41cee31461025257600080fd5b8063490f2798116100f4578063490f2798146101985780636df0c747146101c3578063715018a6146101d6578063888f3036146101de5780638da5cb5b146101f157600080fd5b806309c1ba2e146101265780630ca761751461015d57806314b1dd1b1461017257806334303bcd14610185575b600080fd5b60015461014090600160a01b90046001600160401b031681565b6040516001600160401b0390911681526020015b60405180910390f35b61017061016b366004611284565b6102d8565b005b6101706101803660046112f0565b61035c565b610170610193366004611319565b610391565b6001546101ab906001600160a01b031681565b6040516001600160a01b039091168152602001610154565b6101706101d136600461133f565b6103b5565b6101706103c2565b6101706101ec36600461136d565b6103d6565b6000546001600160a01b03166101ab565b61020b60045481565b604051908152602001610154565b61020b6102273660046113ba565b610405565b61017061023a36600461148f565b610610565b61017061024d3660046114b8565b61063a565b61026561026036600461133f565b61064e565b604051610154919061153a565b61017061028036600461148f565b6106e8565b610265610712565b61017061029b36600461148f565b61071f565b6005546102b09063ffffffff1681565b60405163ffffffff9091168152602001610154565b6003546101ab906001600160a01b031681565b336001600160a01b037f000000000000000000000000000000000000000000000000000000000000000016146103215760405163c6829f8360e01b815260040160405180910390fd5b61032c838383610762565b60405183907f85e1543bf2f84fe80c6badbce3648c8539ad1df4d2b3d822938ca0538be727e690600090a2505050565b610364610820565b600180546001600160401b03909216600160a01b0267ffffffffffffffff60a01b19909216919091179055565b610399610820565b6005805463ffffffff191663ffffffff92909216919091179055565b6103bd610820565b600455565b6103ca610820565b6103d4600061084d565b565b6103de610820565b81156103f55760086103f082826115d5565b505050565b60076103f082826115d5565b5050565b6001546000906001600160a01b0316336001600160a01b03161461043c57604051630101292160e31b815260040160405180910390fd5b61047d6040805160e0810190915280600081526020016000815260200160008152602001606081526020016060815260200160608152602001606081525090565b6105278461048c57600761048f565b60085b805461049a9061154d565b80601f01602080910402602001604051908101604052809291908181526020018280546104c69061154d565b80156105135780601f106104e857610100808354040283529160200191610513565b820191906000526020600020905b8154815290600101906020018083116104f657829003601f168201915b50505050508261089d90919063ffffffff16565b6105c4600280546105379061154d565b80601f01602080910402602001604051908101604052809291908181526020018280546105639061154d565b80156105b05780601f10610585576101008083540402835291602001916105b0565b820191906000526020600020905b81548152906001019060200180831161059357829003601f168201915b5050505050826108aa90919063ffffffff16565b6105ce81846108db565b60006106056105dc83610905565b600154600554600454600160a01b9092046001600160401b03169163ffffffff90911690610bdd565b925050505b92915050565b610618610820565b600180546001600160a01b0319166001600160a01b0392909216919091179055565b610642610820565b600261040182826115d5565b600660205260009081526040902080546106679061154d565b80601f01602080910402602001604051908101604052809291908181526020018280546106939061154d565b80156106e05780601f106106b5576101008083540402835291602001916106e0565b820191906000526020600020905b8154815290600101906020018083116106c357829003601f168201915b505050505081565b6106f0610820565b600380546001600160a01b0319166001600160a01b0392909216919091179055565b600280546106679061154d565b610727610820565b6001600160a01b03811661075657604051631e4fbdf760e01b8152600060048201526024015b60405180910390fd5b61075f8161084d565b50565b600083815260066020526040902061077a82826115d5565b5060015460405163075d8c5960e21b815283916001600160a01b031690631d763164906107ad9087908590600401611694565b600060405180830381600087803b1580156107c757600080fd5b505af11580156107db573d6000803e3d6000fd5b505050507f17aac589b115f42ae5c9320ca9eb350d352b376d8c07f7d1b166e9a9b155481b848284604051610812939291906116ad565b60405180910390a150505050565b6000546001600160a01b031633146103d45760405163118cdaa760e01b815233600482015260240161074d565b600080546001600160a01b038381166001600160a01b0319831681178455604051919092169283917f8be0079c531659141344cd1fd0a4f28419497f9722a3daafe3b4186f6b6457e09190a35050565b6104018260008084610caf565b80516000036108cc5760405163e889636f60e01b815260040160405180910390fd5b60016020830152608090910152565b80516000036108fd5760405163fe936cb760e01b815260040160405180910390fd5b60a090910152565b60606000610914610100610d2d565b905061094d6040518060400160405280600c81526020016b31b7b232a637b1b0ba34b7b760a11b81525082610d4e90919063ffffffff16565b825161096b906002811115610964576109646116e2565b8290610d67565b6040805180820190915260088152676c616e677561676560c01b6020820152610995908290610d4e565b60408301516109ac908015610964576109646116e2565b604080518082019091526006815265736f7572636560d01b60208201526109d4908290610d4e565b60608301516109e4908290610d4e565b60a08301515115610a78576040805180820190915260048152636172677360e01b6020820152610a15908290610d4e565b610a1e81610da0565b60005b8360a0015151811015610a6e57610a5e8460a001518281518110610a4757610a476116f8565b602002602001015183610d4e90919063ffffffff16565b610a6781611724565b9050610a21565b50610a7881610dc4565b60808301515115610b3c57600083602001516002811115610a9b57610a9b6116e2565b03610ab95760405163a80d31f760e01b815260040160405180910390fd5b60408051808201909152600f81526e39b2b1b932ba39a637b1b0ba34b7b760891b6020820152610aea908290610d4e565b610b0383602001516002811115610964576109646116e2565b6040805180820190915260078152667365637265747360c81b6020820152610b2c908290610d4e565b6080830151610b3c908290610de2565b60c08301515115610bd55760408051808201909152600981526862797465734172677360b81b6020820152610b72908290610d4e565b610b7b81610da0565b60005b8360c0015151811015610bcb57610bbb8460c001518281518110610ba457610ba46116f8565b602002602001015183610de290919063ffffffff16565b610bc481611724565b9050610b7e565b50610bd581610dc4565b515192915050565b6000807f00000000000000000000000000000000000000000000000000000000000000006001600160a01b031663461d27628688600188886040518663ffffffff1660e01b8152600401610c3595949392919061173d565b6020604051808303816000875af1158015610c54573d6000803e3d6000fd5b505050506040513d601f19601f82011682018060405250810190610c789190611786565b60405190915081907f1131472297a800fee664d1d89cfa8f7676ff07189ecc53f80bbb5f4969099db890600090a295945050505050565b8051600003610cd1576040516322ce3edd60e01b815260040160405180910390fd5b83836002811115610ce457610ce46116e2565b90816002811115610cf757610cf76116e2565b90525060408401828015610d0d57610d0d6116e2565b90818015610d1d57610d1d6116e2565b9052506060909301929092525050565b610d3561119a565b8051610d419083610def565b5060006020820152919050565b610d5b8260038351610e66565b81516103f09082610f85565b8151610d749060c2610fad565b506104018282604051602001610d8c91815260200190565b604051602081830303815290604052610de2565b610dab816004611016565b600181602001818151610dbe919061179f565b90525050565b610dcf816007611016565b600181602001818151610dbe91906117b2565b610d5b8260028351610e66565b604080518082019091526060815260006020820152610e0f6020836117c5565b15610e3757610e1f6020836117c5565b610e2a9060206117b2565b610e34908361179f565b91505b602080840183905260405180855260008152908184010181811015610e5b57600080fd5b604052509192915050565b6017816001600160401b031611610e92578251610e8c9060e0600585901b168317610fad565b50505050565b60ff816001600160401b031611610ed2578251610eba906018611fe0600586901b1617610fad565b508251610e8c906001600160401b038316600161102d565b61ffff816001600160401b031611610f13578251610efb906019611fe0600586901b1617610fad565b508251610e8c906001600160401b038316600261102d565b63ffffffff816001600160401b031611610f56578251610f3e90601a611fe0600586901b1617610fad565b508251610e8c906001600160401b038316600461102d565b8251610f6d90601b611fe0600586901b1617610fad565b508251610e8c906001600160401b038316600861102d565b604080518082019091526060815260006020820152610fa6838384516110b2565b9392505050565b6040805180820190915260608152600060208201528251516000610fd282600161179f565b905084602001518210610ff357610ff385610fee8360026117e7565b611183565b845160208382010185815350805182111561100c578181525b5093949350505050565b81516103f090601f611fe0600585901b1617610fad565b6040805180820190915260608152600060208201528351516000611051828561179f565b9050856020015181111561106e5761106e86610fee8360026117e7565b6000600161107e866101006118e2565b61108891906117b2565b905086518281018783198251161781525080518311156110a6578281525b50959695505050505050565b60408051808201909152606081526000602082015282518211156110d557600080fd5b83515160006110e4848361179f565b905085602001518111156111015761110186610fee8360026117e7565b85518051838201602001916000918085111561111b578482525b505050602086015b6020861061115b578051825261113a60208361179f565b915061114760208261179f565b90506111546020876117b2565b9550611123565b51815160001960208890036101000a0190811690199190911617905250849150509392505050565b815161118f8383610def565b50610e8c8382610f85565b60405180604001604052806111c2604051806040016040528060608152602001600081525090565b8152602001600081525090565b634e487b7160e01b600052604160045260246000fd5b604051601f8201601f191681016001600160401b038111828210171561120d5761120d6111cf565b604052919050565b600082601f83011261122657600080fd5b81356001600160401b0381111561123f5761123f6111cf565b611252601f8201601f19166020016111e5565b81815284602083860101111561126757600080fd5b816020850160208301376000918101602001919091529392505050565b60008060006060848603121561129957600080fd5b8335925060208401356001600160401b03808211156112b757600080fd5b6112c387838801611215565b935060408601359150808211156112d957600080fd5b506112e686828701611215565b9150509250925092565b60006020828403121561130257600080fd5b81356001600160401b0381168114610fa657600080fd5b60006020828403121561132b57600080fd5b813563ffffffff81168114610fa657600080fd5b60006020828403121561135157600080fd5b5035919050565b8035801515811461136857600080fd5b919050565b6000806040838503121561138057600080fd5b61138983611358565b915060208301356001600160401b038111156113a457600080fd5b6113b085828601611215565b9150509250929050565b600080604083850312156113cd57600080fd5b6113d683611358565b91506020808401356001600160401b03808211156113f357600080fd5b818601915086601f83011261140757600080fd5b813581811115611419576114196111cf565b8060051b6114288582016111e5565b918252838101850191858101908a84111561144257600080fd5b86860192505b8383101561147e578235858111156114605760008081fd5b61146e8c89838a0101611215565b8352509186019190860190611448565b809750505050505050509250929050565b6000602082840312156114a157600080fd5b81356001600160a01b0381168114610fa657600080fd5b6000602082840312156114ca57600080fd5b81356001600160401b038111156114e057600080fd5b6114ec84828501611215565b949350505050565b6000815180845260005b8181101561151a576020818501810151868301820152016114fe565b506000602082860101526020601f19601f83011685010191505092915050565b602081526000610fa660208301846114f4565b600181811c9082168061156157607f821691505b60208210810361158157634e487b7160e01b600052602260045260246000fd5b50919050565b601f8211156103f057600081815260208120601f850160051c810160208610156115ae5750805b601f850160051c820191505b818110156115cd578281556001016115ba565b505050505050565b81516001600160401b038111156115ee576115ee6111cf565b611602816115fc845461154d565b84611587565b602080601f831160018114611637576000841561161f5750858301515b600019600386901b1c1916600185901b1785556115cd565b600085815260208120601f198616915b8281101561166657888601518255948401946001909101908401611647565b50858210156116845787850151600019600388901b60f8161c191681555b5050505050600190811b01905550565b8281526040602082015260006114ec60408301846114f4565b8381526060602082015260006116c660608301856114f4565b82810360408401526116d881856114f4565b9695505050505050565b634e487b7160e01b600052602160045260246000fd5b634e487b7160e01b600052603260045260246000fd5b634e487b7160e01b600052601160045260246000fd5b6000600182016117365761173661170e565b5060010190565b6001600160401b038616815260a06020820152600061175f60a08301876114f4565b61ffff9590951660408301525063ffffffff92909216606083015260809091015292915050565b60006020828403121561179857600080fd5b5051919050565b8082018082111561060a5761060a61170e565b8181038181111561060a5761060a61170e565b6000826117e257634e487b7160e01b600052601260045260246000fd5b500690565b808202811582820484141761060a5761060a61170e565b600181815b8085111561183957816000190482111561181f5761181f61170e565b8085161561182c57918102915b93841c9390800290611803565b509250929050565b6000826118505750600161060a565b8161185d5750600061060a565b8160018114611873576002811461187d57611899565b600191505061060a565b60ff84111561188e5761188e61170e565b50506001821b61060a565b5060208310610133831016604e8410600b84101617156118bc575081810a61060a565b6118c683836117fe565b80600019048211156118da576118da61170e565b029392505050565b6000610fa6838361184156fea2646970667358221220e620748590569a7893c0770e339bc899e519289e12af7e59241c6d58d424dfea64736f6c63430008140033636f6e7374206e616d65203d20617267735b305d3b636f6e7374206465736372697074696f6e203d20617267735b315d3b636f6e737420696d616765203d20617267735b325d3b636f6e73742062616e6e6572203d20617267735b335d3b636f6e73742065787465726e616c5f6c696e6b203d20617267735b345d3b636f6e7374206a736f6e44617461203d207b202070696e617461436f6e74656e743a207b202020206e616d653a206e616d652c202020206465736372697074696f6e3a206465736372697074696f6e2c2020202065787465726e616c5f6c696e6b3a2065787465726e616c5f6c696e6b2c20202020696d6167653a20696d6167652c2020202062616e6e65723a2062616e6e657220207d7d3b636f6e737420617069526573706f6e7365203d2061776169742046756e6374696f6e732e6d616b654874747052657175657374287b202075726c3a202768747470733a2f2f6170692e70696e6174612e636c6f75642f70696e6e696e672f70696e4a534f4e546f49504653272c20206d6574686f643a2027504f5354272c2020686561646572733a207b2020202027436f6e74656e742d54797065273a20276170706c69636174696f6e2f6a736f6e272c2020202027416363657074273a20276170706c69636174696f6e2f6a736f6e272c2020202027417574686f72697a6174696f6e273a206042656172657220247b736563726574732e70696e6174614a57547d6020207d2c2020646174613a206a736f6e446174617d293b69662028617069526573706f6e73652e6572726f7229207b20207468726f77206e6577204572726f7228606d6573736167653a20247b617069526573706f6e73652e6d6573736167657d20636f64653a20247b617069526573706f6e73652e636f64657d20726573706f6e73653a20247b4a534f4e2e737472696e6769667928617069526573706f6e73652e726573706f6e7365297d60293b7d72657475726e2046756e6374696f6e732e656e636f6465537472696e67286068747470733a2f2f697066732e696f2f697066732f247b617069526573706f6e73652e646174612e49706673486173687d60293b636f6e7374206e616d65203d20617267735b305d3b636f6e7374206465736372697074696f6e203d20617267735b315d3b636f6e737420696d616765203d20617267735b325d3b636f6e73742065787465726e616c5f75726c203d20617267735b335d3b636f6e7374207769647468203d20617267735b345d3b636f6e737420686569676874203d20617267735b355d3b636f6e7374207072696365203d207061727365466c6f617428617267735b365d29202f204d6174682e706f772831302c203138293b636f6e7374206c6f7474657279203d20617267732e6c656e677468203e20373b636f6e7374206a736f6e44617461203d207b202070696e617461436f6e74656e743a207b202020206e616d653a206e616d652c202020206465736372697074696f6e3a206465736372697074696f6e2c2020202065787465726e616c5f75726c3a2065787465726e616c5f75726c2c20202020696d6167653a20696d6167652c20202020616e696d6174696f6e5f75726c3a206068747470733a2f2f7777772e6f6e636861696e636f6e736f6c652e636f6d2f707265766965772e68746d6c3f696d6167653d247b696d6167657d2677696474683d247b77696474687d266865696768743d247b6865696768747d2669734c6f74746572793d247b6c6f74746572797d602c20202020617474726962757465733a205b7b2074726169745f747970653a202757696474682028636d29272c2076616c75653a2060247b77696474687d60207d2c207b2074726169745f747970653a20274865696768742028636d29272c2076616c75653a2060247b6865696768747d60207d2c207b2074726169745f747970653a20216c6f7474657279203f20274d696e7420507269636520285553442927203a20275469636b6574205072696365202855534429272c2076616c75653a2060247b70726963657d60207d2c20216c6f7474657279203f207b7d203a207b74726169745f747970653a20275469636b657420416d6f756e74272c2076616c75653a20617267735b375d7d5d20207d7d3b636f6e737420617069526573706f6e7365203d2061776169742046756e6374696f6e732e6d616b654874747052657175657374287b202075726c3a202768747470733a2f2f6170692e70696e6174612e636c6f75642f70696e6e696e672f70696e4a534f4e546f49504653272c20206d6574686f643a2027504f5354272c2020686561646572733a207b2020202027436f6e74656e742d54797065273a20276170706c69636174696f6e2f6a736f6e272c2020202027416363657074273a20276170706c69636174696f6e2f6a736f6e272c2020202027417574686f72697a6174696f6e273a206042656172657220247b736563726574732e70696e6174614a57547d6020207d2c2020646174613a206a736f6e446174617d293b69662028617069526573706f6e73652e6572726f7229207b20207468726f77206e6577204572726f7228606d6573736167653a20247b617069526573706f6e73652e6d6573736167657d20636f64653a20247b617069526573706f6e73652e636f64657d20726573706f6e73653a20247b4a534f4e2e737472696e6769667928617069526573706f6e73652e726573706f6e7365297d60293b7d72657475726e2046756e6374696f6e732e656e636f6465537472696e67286068747470733a2f2f697066732e696f2f697066732f247b617069526573706f6e73652e646174612e49706673486173687d60293b1e9ce0fe8dc86ffbb0e3511f190d8f7703f26b8a425447b37518e52a69f30ee69395d5d5613761ee019fa13949aea7cd6ca33c7e784895e7229642c52f556297fe4b467dc2014656d4642a7d358fc50735cd038d22aa01b56b3cd1ab3f40c1e472a19ba51d9727caee09f1ff7000586f589205b8eb9d27788488253e5f740770d54ccb9443a8c78b6143c4fd917bbf161a",
  "linkReferences": {},
  "deployedLinkReferences": {}
}