{"contracts/demo-game00/GameManager.sol":{"GameManager":{"abi":[{"inputs":[{"internalType":"address","name":"factory_","type":"address"}],"stateMutability":"nonpayable","type":"constructor"},{"inputs":[],"name":"EmptySecrets","type":"error"},{"inputs":[],"name":"EmptySource","type":"error"},{"inputs":[],"name":"NoInlineSecrets","type":"error"},{"inputs":[],"name":"OnlyRouterCanFulfill","type":"error"},{"inputs":[{"internalType":"address","name":"owner","type":"address"}],"name":"OwnableInvalidOwner","type":"error"},{"inputs":[{"internalType":"address","name":"account","type":"address"}],"name":"OwnableUnauthorizedAccount","type":"error"},{"anonymous":false,"inputs":[{"indexed":false,"internalType":"address","name":"winner","type":"address"},{"indexed":false,"internalType":"bytes","name":"errors","type":"bytes"}],"name":"ChallengeFulfilled","type":"event"},{"anonymous":false,"inputs":[{"indexed":true,"internalType":"address","name":"previousOwner","type":"address"},{"indexed":true,"internalType":"address","name":"newOwner","type":"address"}],"name":"OwnershipTransferred","type":"event"},{"anonymous":false,"inputs":[{"indexed":true,"internalType":"bytes32","name":"id","type":"bytes32"}],"name":"RequestFulfilled","type":"event"},{"anonymous":false,"inputs":[{"indexed":true,"internalType":"bytes32","name":"id","type":"bytes32"}],"name":"RequestSent","type":"event"},{"inputs":[{"internalType":"bytes","name":"","type":"bytes"}],"name":"checkUpkeep","outputs":[{"internalType":"bool","name":"upkeepNeeded","type":"bool"},{"internalType":"bytes","name":"","type":"bytes"}],"stateMutability":"view","type":"function"},{"inputs":[],"name":"donId","outputs":[{"internalType":"bytes32","name":"","type":"bytes32"}],"stateMutability":"view","type":"function"},{"inputs":[],"name":"encryptedSecretsUrls","outputs":[{"internalType":"bytes","name":"","type":"bytes"}],"stateMutability":"view","type":"function"},{"inputs":[],"name":"endDate","outputs":[{"internalType":"uint256","name":"","type":"uint256"}],"stateMutability":"view","type":"function"},{"inputs":[{"internalType":"bytes32","name":"","type":"bytes32"}],"name":"errors","outputs":[{"internalType":"bytes","name":"","type":"bytes"}],"stateMutability":"view","type":"function"},{"inputs":[],"name":"factory","outputs":[{"internalType":"contract IERC721","name":"","type":"address"}],"stateMutability":"view","type":"function"},{"inputs":[],"name":"gasLimit","outputs":[{"internalType":"uint32","name":"","type":"uint32"}],"stateMutability":"view","type":"function"},{"inputs":[{"internalType":"bytes32","name":"requestId","type":"bytes32"},{"internalType":"bytes","name":"response","type":"bytes"},{"internalType":"bytes","name":"err","type":"bytes"}],"name":"handleOracleFulfillment","outputs":[],"stateMutability":"nonpayable","type":"function"},{"inputs":[],"name":"nftsSended","outputs":[{"internalType":"bool","name":"","type":"bool"}],"stateMutability":"view","type":"function"},{"inputs":[{"internalType":"address","name":"","type":"address"},{"internalType":"address","name":"","type":"address"},{"internalType":"uint256","name":"","type":"uint256"},{"internalType":"bytes","name":"","type":"bytes"}],"name":"onERC721Received","outputs":[{"internalType":"bytes4","name":"","type":"bytes4"}],"stateMutability":"nonpayable","type":"function"},{"inputs":[],"name":"owner","outputs":[{"internalType":"address","name":"","type":"address"}],"stateMutability":"view","type":"function"},{"inputs":[{"internalType":"bytes","name":"","type":"bytes"}],"name":"performUpkeep","outputs":[],"stateMutability":"nonpayable","type":"function"},{"inputs":[],"name":"renounceOwnership","outputs":[],"stateMutability":"nonpayable","type":"function"},{"inputs":[],"name":"router","outputs":[{"internalType":"address","name":"","type":"address"}],"stateMutability":"view","type":"function"},{"inputs":[],"name":"sendRequest","outputs":[],"stateMutability":"nonpayable","type":"function"},{"inputs":[],"name":"subscriptionId","outputs":[{"internalType":"uint64","name":"","type":"uint64"}],"stateMutability":"view","type":"function"},{"inputs":[{"internalType":"address","name":"newOwner","type":"address"}],"name":"transferOwnership","outputs":[],"stateMutability":"nonpayable","type":"function"},{"inputs":[{"internalType":"bytes32","name":"donId_","type":"bytes32"}],"name":"updateDonId","outputs":[],"stateMutability":"nonpayable","type":"function"},{"inputs":[{"internalType":"bytes","name":"encryptedSecretsUrls_","type":"bytes"}],"name":"updateEncryptedSecretsUrls","outputs":[],"stateMutability":"nonpayable","type":"function"},{"inputs":[{"internalType":"uint256","name":"endDate_","type":"uint256"}],"name":"updateEndDate","outputs":[],"stateMutability":"nonpayable","type":"function"},{"inputs":[{"internalType":"address","name":"factory_","type":"address"}],"name":"updateFactory","outputs":[],"stateMutability":"nonpayable","type":"function"},{"inputs":[{"internalType":"uint32","name":"gasLimit_","type":"uint32"}],"name":"updateGasLimit","outputs":[],"stateMutability":"nonpayable","type":"function"},{"inputs":[{"internalType":"address","name":"router_","type":"address"}],"name":"updateRouter","outputs":[],"stateMutability":"nonpayable","type":"function"},{"inputs":[{"internalType":"string","name":"source_","type":"string"}],"name":"updateSource","outputs":[],"stateMutability":"nonpayable","type":"function"},{"inputs":[{"internalType":"uint64","name":"subscriptionId_","type":"uint64"}],"name":"updateSubscriptionId","outputs":[],"stateMutability":"nonpayable","type":"function"},{"inputs":[],"name":"winner","outputs":[{"internalType":"address","name":"","type":"address"}],"stateMutability":"view","type":"function"}],"evm":{"bytecode":{"linkReferences":{},"object":"63658363e060025560038054600160a81b600160e81b03191661036b60a91b179055610160604052609160a0818152906200210d60c03960049062000045908262000262565b50600580546001600160a01b03191673a9d587a00a31a52ed70d6026794a8fc5e2f5dcb01790557f66756e2d6176616c616e6368652d66756a692d310000000000000000000000006006556007805463ffffffff1916620493e017905560408051610480810190915261045e8082526200219e6020830139600990620000cc908262000262565b50348015620000da57600080fd5b50604051620025fc380380620025fc833981016040819052620000fd916200032e565b6005546001600160a01b031633806200013057604051631e4fbdf760e01b81526000600482015260240160405180910390fd5b6200013b816200016d565b506001600160a01b0390811660805260038054610100600160a81b031916610100939092169290920217905562000360565b600080546001600160a01b038381166001600160a01b0319831681178455604051919092169283917f8be0079c531659141344cd1fd0a4f28419497f9722a3daafe3b4186f6b6457e09190a35050565b634e487b7160e01b600052604160045260246000fd5b600181811c90821680620001e857607f821691505b6020821081036200020957634e487b7160e01b600052602260045260246000fd5b50919050565b601f8211156200025d57600081815260208120601f850160051c81016020861015620002385750805b601f850160051c820191505b81811015620002595782815560010162000244565b5050505b505050565b81516001600160401b038111156200027e576200027e620001bd565b62000296816200028f8454620001d3565b846200020f565b602080601f831160018114620002ce5760008415620002b55750858301515b600019600386901b1c1916600185901b17855562000259565b600085815260208120601f198616915b82811015620002ff57888601518255948401946001909101908401620002de565b50858210156200031e5787850151600019600388901b60f8161c191681555b5050505050600190811b01905550565b6000602082840312156200034157600080fd5b81516001600160a01b03811681146200035957600080fd5b9392505050565b608051611d8a62000383600039600081816103fd0152610de20152611d8a6000f3fe608060405234801561001057600080fd5b506004361061018e5760003560e01c8063be41cee3116100de578063dfbf53ae11610097578063f60ce3c411610071578063f60ce3c41461038a578063f68016b71461039d578063f6feca37146103c2578063f887ea40146103df57600080fd5b8063dfbf53ae14610351578063ef2bbbdf14610364578063f2fde38b1461037757600080fd5b8063be41cee3146102e2578063c24a0f8b14610302578063c45a01551461030b578063c851cc3214610323578063d9f165dc14610336578063dab79c401461034957600080fd5b80634585e33b1161014b578063715018a611610125578063715018a61461028b5780638da5cb5b146102935780638dbe7b9d146102b8578063a42f3b2f146102cf57600080fd5b80634585e33b146102445780636df0c747146102575780636e04ff0d1461026a57600080fd5b806309c1ba2e146101935780630ca76175146101ca57806314b1dd1b146101df578063150b7a02146101f25780631bee2f2a1461022957806334303bcd14610231575b600080fd5b6003546101ad90600160a81b90046001600160401b031681565b6040516001600160401b0390911681526020015b60405180910390f35b6101dd6101d8366004611691565b6103f2565b005b6101dd6101ed3660046116fd565b610476565b610210610200366004611742565b630a85bd0160e11b949350505050565b6040516001600160e01b031990911681526020016101c1565b6101dd6104ab565b6101dd61023f3660046117a9565b6104bd565b6101dd6102523660046117cf565b6104e1565b6101dd610265366004611840565b610506565b61027d6102783660046117cf565b610513565b6040516101c192919061189f565b6101dd610534565b6000546001600160a01b03165b6040516001600160a01b0390911681526020016101c1565b6102c160065481565b6040519081526020016101c1565b6101dd6102dd3660046118c2565b610546565b6102f56102f0366004611840565b61055a565b6040516101c191906118f6565b6102c160025481565b6003546102a09061010090046001600160a01b031681565b6101dd610331366004611909565b6105f4565b6101dd610344366004611909565b61061e565b6102f561064e565b6001546102a0906001600160a01b031681565b6101dd610372366004611840565b61065b565b6101dd610385366004611909565b610668565b6101dd610398366004611924565b6106ab565b6007546103ad9063ffffffff1681565b60405163ffffffff90911681526020016101c1565b6003546103cf9060ff1681565b60405190151581526020016101c1565b6005546102a0906001600160a01b031681565b336001600160a01b037f0000000000000000000000000000000000000000000000000000000000000000161461043b5760405163c6829f8360e01b815260040160405180910390fd5b6104468383836106bf565b60405183907f85e1543bf2f84fe80c6badbce3648c8539ad1df4d2b3d822938ca0538be727e690600090a2505050565b61047e61082c565b600380546001600160401b03909216600160a81b0267ffffffffffffffff60a81b19909216919091179055565b6104b361082c565b6104bb610859565b565b6104c561082c565b6007805463ffffffff191663ffffffff92909216919091179055565b600254421180156104f5575060035460ff16155b1561050257610502610859565b5050565b61050e61082c565b600655565b600060606002544211801561052b575060035460ff16155b91509250929050565b61053c61082c565b6104bb6000610a16565b61054e61082c565b600461050282826119f4565b600860205260009081526040902080546105739061196c565b80601f016020809104026020016040519081016040528092919081815260200182805461059f9061196c565b80156105ec5780601f106105c1576101008083540402835291602001916105ec565b820191906000526020600020905b8154815290600101906020018083116105cf57829003601f168201915b505050505081565b6105fc61082c565b600580546001600160a01b0319166001600160a01b0392909216919091179055565b61062661082c565b600380546001600160a01b0390921661010002610100600160a81b0319909216919091179055565b600480546105739061196c565b61066361082c565b600255565b61067061082c565b6001600160a01b03811661069f57604051631e4fbdf760e01b8152600060048201526024015b60405180910390fd5b6106a881610a16565b50565b6106b361082c565b600961050282826119f4565b60008381526008602052604090206106d782826119f4565b506106e182610a66565b600180546001600160a01b0319166001600160a01b03928316908117909155600354604051632142170760e11b81523060048201526024810192909252600060448301526101009004909116906342842e0e90606401600060405180830381600087803b15801561075157600080fd5b505af1158015610765573d6000803e3d6000fd5b505060035460018054604051632142170760e11b81523060048201526001600160a01b039182166024820152604481019290925261010090920490911692506342842e0e9150606401600060405180830381600087803b1580156107c857600080fd5b505af11580156107dc573d6000803e3d6000fd5b50506001546040517f8b78bce071b02f296d7efee39b7ca0f3180fb1212df820d3f4c28bfd5dba5c4a935061081f92506001600160a01b03909116908490611ab3565b60405180910390a1505050565b6000546001600160a01b031633146104bb5760405163118cdaa760e01b8152336004820152602401610696565b6003805460ff191660011790556108a76040805160e0810190915280600081526020016000815260200160008152602001606081526020016060815260200160608152602001606081525090565b610944600980546108b79061196c565b80601f01602080910402602001604051908101604052809291908181526020018280546108e39061196c565b80156109305780601f1061090557610100808354040283529160200191610930565b820191906000526020600020905b81548152906001019060200180831161091357829003601f168201915b505050505082610ac790919063ffffffff16565b6109e1600480546109549061196c565b80601f01602080910402602001604051908101604052809291908181526020018280546109809061196c565b80156109cd5780601f106109a2576101008083540402835291602001916109cd565b820191906000526020600020905b8154815290600101906020018083116109b057829003601f168201915b505050505082610ad490919063ffffffff16565b6105026109ed82610b05565b600354600754600654600160a81b9092046001600160401b03169163ffffffff90911690610ddd565b600080546001600160a01b038381166001600160a01b0319831681178455604051919092169283917f8be0079c531659141344cd1fd0a4f28419497f9722a3daafe3b4186f6b6457e09190a35050565b600080610a7283610eaf565b9050601581511015610ab65760405162461bcd60e51b815260206004820152600d60248201526c4f7574206f6620626f756e647360981b6044820152606401610696565b60210151600160601b900492915050565b6105028260008084610fd7565b8051600003610af65760405163e889636f60e01b815260040160405180910390fd5b60016020830152608090910152565b60606000610b14610100611055565b9050610b4d6040518060400160405280600c81526020016b31b7b232a637b1b0ba34b7b760a11b8152508261107690919063ffffffff16565b8251610b6b906002811115610b6457610b64611ad7565b8290611094565b6040805180820190915260088152676c616e677561676560c01b6020820152610b95908290611076565b6040830151610bac908015610b6457610b64611ad7565b604080518082019091526006815265736f7572636560d01b6020820152610bd4908290611076565b6060830151610be4908290611076565b60a08301515115610c78576040805180820190915260048152636172677360e01b6020820152610c15908290611076565b610c1e816110cd565b60005b8360a0015151811015610c6e57610c5e8460a001518281518110610c4757610c47611aed565b60200260200101518361107690919063ffffffff16565b610c6781611b19565b9050610c21565b50610c78816110f1565b60808301515115610d3c57600083602001516002811115610c9b57610c9b611ad7565b03610cb95760405163a80d31f760e01b815260040160405180910390fd5b60408051808201909152600f81526e39b2b1b932ba39a637b1b0ba34b7b760891b6020820152610cea908290611076565b610d0383602001516002811115610b6457610b64611ad7565b6040805180820190915260078152667365637265747360c81b6020820152610d2c908290611076565b6080830151610d3c90829061110f565b60c08301515115610dd55760408051808201909152600981526862797465734172677360b81b6020820152610d72908290611076565b610d7b816110cd565b60005b8360c0015151811015610dcb57610dbb8460c001518281518110610da457610da4611aed565b60200260200101518361110f90919063ffffffff16565b610dc481611b19565b9050610d7e565b50610dd5816110f1565b515192915050565b6000807f00000000000000000000000000000000000000000000000000000000000000006001600160a01b031663461d27628688600188886040518663ffffffff1660e01b8152600401610e35959493929190611b32565b6020604051808303816000875af1158015610e54573d6000803e3d6000fd5b505050506040513d601f19601f82011682018060405250810190610e789190611b7b565b60405190915081907f1131472297a800fee664d1d89cfa8f7676ff07189ecc53f80bbb5f4969099db890600090a295945050505050565b80516060908290610ec290600290611baa565b15610ecc57600080fd5b600060028251610edc9190611bbe565b6001600160401b03811115610ef357610ef36115e6565b6040519080825280601f01601f191660200182016040528015610f1d576020820181803683370190505b50905060005b60028351610f319190611bbe565b811015610fcf57610f6f83610f47836002611bd2565b610f52906001611be9565b81518110610f6257610f62611aed565b016020015160f81c61111c565b610f7e84610f52846002611bd2565b610f89906010611bfc565b610f939190611c1f565b60f81b828281518110610fa857610fa8611aed565b60200101906001600160f81b031916908160001a905350610fc881611b19565b9050610f23565b509392505050565b8051600003610ff9576040516322ce3edd60e01b815260040160405180910390fd5b8383600281111561100c5761100c611ad7565b9081600281111561101f5761101f611ad7565b9052506040840182801561103557611035611ad7565b9081801561104557611045611ad7565b9052506060909301929092525050565b61105d6115b1565b80516110699083611206565b5060006020820152919050565b611083826003835161127d565b815161108f908261139c565b505050565b81516110a19060c26113c4565b5061050282826040516020016110b991815260200190565b60405160208183030381529060405261110f565b6110d881600461142d565b6001816020018181516110eb9190611be9565b90525050565b6110fc81600761142d565b6001816020018181516110eb9190611c38565b611083826002835161127d565b6000600360fc1b60f883901b6001600160f81b031916108015906111525750603960f81b60f883901b6001600160f81b03191611155b1561116857611162603083611c4b565b92915050565b606160f81b60f883901b6001600160f81b0319161080159061119c5750603360f91b60f883901b6001600160f81b03191611155b156111b85760616111ae83600a611c1f565b6111629190611c4b565b604160f81b60f883901b6001600160f81b031916108015906111ec5750602360f91b60f883901b6001600160f81b03191611155b156111fe5760416111ae83600a611c1f565b506000919050565b604080518082019091526060815260006020820152611226602083611baa565b1561124e57611236602083611baa565b611241906020611c38565b61124b9083611be9565b91505b60208084018390526040518085526000815290818401018181101561127257600080fd5b604052509192915050565b6017816001600160401b0316116112a95782516112a39060e0600585901b1683176113c4565b50505050565b60ff816001600160401b0316116112e95782516112d1906018611fe0600586901b16176113c4565b5082516112a3906001600160401b0383166001611444565b61ffff816001600160401b03161161132a578251611312906019611fe0600586901b16176113c4565b5082516112a3906001600160401b0383166002611444565b63ffffffff816001600160401b03161161136d57825161135590601a611fe0600586901b16176113c4565b5082516112a3906001600160401b0383166004611444565b825161138490601b611fe0600586901b16176113c4565b5082516112a3906001600160401b0383166008611444565b6040805180820190915260608152600060208201526113bd838384516114c9565b9392505050565b60408051808201909152606081526000602082015282515160006113e9826001611be9565b90508460200151821061140a5761140a85611405836002611bd2565b61159a565b8451602083820101858153508051821115611423578181525b5093949350505050565b815161108f90601f611fe0600585901b16176113c4565b60408051808201909152606081526000602082015283515160006114688285611be9565b905085602001518111156114855761148586611405836002611bd2565b6000600161149586610100611d48565b61149f9190611c38565b905086518281018783198251161781525080518311156114bd578281525b50959695505050505050565b60408051808201909152606081526000602082015282518211156114ec57600080fd5b83515160006114fb8483611be9565b905085602001518111156115185761151886611405836002611bd2565b855180518382016020019160009180851115611532578482525b505050602086015b602086106115725780518252611551602083611be9565b915061155e602082611be9565b905061156b602087611c38565b955061153a565b51815160001960208890036101000a0190811690199190911617905250849150509392505050565b81516115a68383611206565b506112a3838261139c565b60405180604001604052806115d9604051806040016040528060608152602001600081525090565b8152602001600081525090565b634e487b7160e01b600052604160045260246000fd5b60006001600160401b0380841115611616576116166115e6565b604051601f8501601f19908116603f0116810190828211818310171561163e5761163e6115e6565b8160405280935085815286868601111561165757600080fd5b858560208301376000602087830101525050509392505050565b600082601f83011261168257600080fd5b6113bd838335602085016115fc565b6000806000606084860312156116a657600080fd5b8335925060208401356001600160401b03808211156116c457600080fd5b6116d087838801611671565b935060408601359150808211156116e657600080fd5b506116f386828701611671565b9150509250925092565b60006020828403121561170f57600080fd5b81356001600160401b03811681146113bd57600080fd5b80356001600160a01b038116811461173d57600080fd5b919050565b6000806000806080858703121561175857600080fd5b61176185611726565b935061176f60208601611726565b92506040850135915060608501356001600160401b0381111561179157600080fd5b61179d87828801611671565b91505092959194509250565b6000602082840312156117bb57600080fd5b813563ffffffff811681146113bd57600080fd5b600080602083850312156117e257600080fd5b82356001600160401b03808211156117f957600080fd5b818501915085601f83011261180d57600080fd5b81358181111561181c57600080fd5b86602082850101111561182e57600080fd5b60209290920196919550909350505050565b60006020828403121561185257600080fd5b5035919050565b6000815180845260005b8181101561187f57602081850181015186830182015201611863565b506000602082860101526020601f19601f83011685010191505092915050565b82151581526040602082015260006118ba6040830184611859565b949350505050565b6000602082840312156118d457600080fd5b81356001600160401b038111156118ea57600080fd5b6118ba84828501611671565b6020815260006113bd6020830184611859565b60006020828403121561191b57600080fd5b6113bd82611726565b60006020828403121561193657600080fd5b81356001600160401b0381111561194c57600080fd5b8201601f8101841361195d57600080fd5b6118ba848235602084016115fc565b600181811c9082168061198057607f821691505b6020821081036119a057634e487b7160e01b600052602260045260246000fd5b50919050565b601f82111561108f57600081815260208120601f850160051c810160208610156119cd5750805b601f850160051c820191505b818110156119ec578281556001016119d9565b505050505050565b81516001600160401b03811115611a0d57611a0d6115e6565b611a2181611a1b845461196c565b846119a6565b602080601f831160018114611a565760008415611a3e5750858301515b600019600386901b1c1916600185901b1785556119ec565b600085815260208120601f198616915b82811015611a8557888601518255948401946001909101908401611a66565b5085821015611aa35787850151600019600388901b60f8161c191681555b5050505050600190811b01905550565b6001600160a01b03831681526040602082018190526000906118ba90830184611859565b634e487b7160e01b600052602160045260246000fd5b634e487b7160e01b600052603260045260246000fd5b634e487b7160e01b600052601160045260246000fd5b600060018201611b2b57611b2b611b03565b5060010190565b6001600160401b038616815260a060208201526000611b5460a0830187611859565b61ffff9590951660408301525063ffffffff92909216606083015260809091015292915050565b600060208284031215611b8d57600080fd5b5051919050565b634e487b7160e01b600052601260045260246000fd5b600082611bb957611bb9611b94565b500690565b600082611bcd57611bcd611b94565b500490565b808202811582820484141761116257611162611b03565b8082018082111561116257611162611b03565b60ff8181168382160290811690818114611c1857611c18611b03565b5092915050565b60ff818116838216019081111561116257611162611b03565b8181038181111561116257611162611b03565b60ff828116828216039081111561116257611162611b03565b600181815b80851115611c9f578160001904821115611c8557611c85611b03565b80851615611c9257918102915b93841c9390800290611c69565b509250929050565b600082611cb657506001611162565b81611cc357506000611162565b8160018114611cd95760028114611ce357611cff565b6001915050611162565b60ff841115611cf457611cf4611b03565b50506001821b611162565b5060208310610133831016604e8410600b8410161715611d22575081810a611162565b611d2c8383611c64565b8060001904821115611d4057611d40611b03565b029392505050565b60006113bd8383611ca756fea2646970667358221220314bce598378385419a328a2c365dc785ceaf7ee8196f83a98fcbe3e3415e8dc64736f6c634300081400333e1d02d274f82e20df6b75193cc7b9d202d3e1841dee24913f2d5c5efb3c51bb813aba0b77e269b8c94106c394e311fa6ec2916704e1f2aed1ad9ee11e7891ebd0afe6fc6c11a6dfa63aa590539fe38e25f88ec5da2103d0f809026288dba6ce49f3e643feebd856a47ab4a98f92449cf3b8fc5fd538ed09e7595df512c2b2c285af7ce9cdfc605cf16f376dc530e5f749636f6e7374207469746c654964203d20273345413434273b636f6e7374207374617469737469634e616d65203d20276c6576656c273b636f6e7374207374617274506f736974696f6e203d20303b636f6e7374206d6178526573756c7473436f756e74203d20313b636f6e7374206765744c6561646572626f61726455726c203d206068747470733a2f2f247b7469746c6549647d2e706c61796661626170692e636f6d2f5365727665722f4765744c6561646572626f6172643f5374617469737469634e616d653d247b7374617469737469634e616d657d265374617274506f736974696f6e3d247b7374617274506f736974696f6e7d264d6178526573756c7473436f756e743d247b6d6178526573756c7473436f756e747d603b636f6e737420676574557365724163636f756e74496e666f55726c203d206068747470733a2f2f247b7469746c6549647d2e706c61796661626170692e636f6d2f5365727665722f476574557365724163636f756e74496e666f603b636f6e7374206c6561646572626f617264526571203d2061776169742046756e6374696f6e732e6d616b654874747052657175657374287b75726c3a206765744c6561646572626f61726455726c2c6d6574686f643a2027504f5354272c686561646572733a207b27436f6e74656e742d54797065273a20276170706c69636174696f6e2f6a736f6e272c274163636570742d456e636f64696e67273a20276964656e74697479272c27582d5365637265744b6579273a20736563726574732e706c61796661624170694b65797d2c7d293b696620286c6561646572626f6172645265712e6572726f7229207468726f77206e6577204572726f722860247b6c6561646572626f6172645265712e6d6573736167657d60293b636f6e737420706c61794661624964203d206c6561646572626f6172645265712e646174612e646174612e4c6561646572626f6172645b305d2e506c617946616249643b636f6e737420617069526573706f6e7365203d2061776169742046756e6374696f6e732e6d616b654874747052657175657374287b75726c3a20676574557365724163636f756e74496e666f55726c2c6d6574686f643a2027504f5354272c686561646572733a207b27436f6e74656e742d54797065273a20276170706c69636174696f6e2f6a736f6e272c274163636570742d456e636f64696e67273a20276964656e74697479272c27582d5365637265744b6579273a20736563726574732e706c61796661624170694b65797d2c706172616d733a7b27506c61794661624944273a20706c617946616249642c7d7d293b69662028617069526573706f6e73652e6572726f7229207468726f77206e6577204572726f722860247b617069526573706f6e73652e6d6573736167657d60293b72657475726e2046756e6374696f6e732e656e636f6465537472696e6728617069526573706f6e73652e646174612e646174612e55736572496e666f2e437573746f6d4964496e666f2e437573746f6d4964293b","opcodes":"PUSH4 0x658363E0 PUSH1 0x2 SSTORE PUSH1 0x3 DUP1 SLOAD PUSH1 0x1 PUSH1 0xA8 SHL PUSH1 0x1 PUSH1 0xE8 SHL SUB NOT AND PUSH2 0x36B PUSH1 0xA9 SHL OR SWAP1 SSTORE PUSH2 0x160 PUSH1 0x40 MSTORE PUSH1 0x91 PUSH1 0xA0 DUP2 DUP2 MSTORE SWAP1 PUSH3 0x210D PUSH1 0xC0 CODECOPY PUSH1 0x4 SWAP1 PUSH3 0x45 SWAP1 DUP3 PUSH3 0x262 JUMP JUMPDEST POP PUSH1 0x5 DUP1 SLOAD PUSH1 0x1 PUSH1 0x1 PUSH1 0xA0 SHL SUB NOT AND PUSH20 0xA9D587A00A31A52ED70D6026794A8FC5E2F5DCB0 OR SWAP1 SSTORE PUSH32 0x66756E2D6176616C616E6368652D66756A692D31000000000000000000000000 PUSH1 0x6 SSTORE PUSH1 0x7 DUP1 SLOAD PUSH4 0xFFFFFFFF NOT AND PUSH3 0x493E0 OR SWAP1 SSTORE PUSH1 0x40 DUP1 MLOAD PUSH2 0x480 DUP2 ADD SWAP1 SWAP2 MSTORE PUSH2 0x45E DUP1 DUP3 MSTORE PUSH3 0x219E PUSH1 0x20 DUP4 ADD CODECOPY PUSH1 0x9 SWAP1 PUSH3 0xCC SWAP1 DUP3 PUSH3 0x262 JUMP JUMPDEST POP CALLVALUE DUP1 ISZERO PUSH3 0xDA JUMPI PUSH1 0x0 DUP1 REVERT JUMPDEST POP PUSH1 0x40 MLOAD PUSH3 0x25FC CODESIZE SUB DUP1 PUSH3 0x25FC DUP4 CODECOPY DUP2 ADD PUSH1 0x40 DUP2 SWAP1 MSTORE PUSH3 0xFD SWAP2 PUSH3 0x32E JUMP JUMPDEST PUSH1 0x5 SLOAD PUSH1 0x1 PUSH1 0x1 PUSH1 0xA0 SHL SUB AND CALLER DUP1 PUSH3 0x130 JUMPI PUSH1 0x40 MLOAD PUSH4 0x1E4FBDF7 PUSH1 0xE0 SHL DUP2 MSTORE PUSH1 0x0 PUSH1 0x4 DUP3 ADD MSTORE PUSH1 0x24 ADD PUSH1 0x40 MLOAD DUP1 SWAP2 SUB SWAP1 REVERT JUMPDEST PUSH3 0x13B DUP2 PUSH3 0x16D JUMP JUMPDEST POP PUSH1 0x1 PUSH1 0x1 PUSH1 0xA0 SHL SUB SWAP1 DUP2 AND PUSH1 0x80 MSTORE PUSH1 0x3 DUP1 SLOAD PUSH2 0x100 PUSH1 0x1 PUSH1 0xA8 SHL SUB NOT AND PUSH2 0x100 SWAP4 SWAP1 SWAP3 AND SWAP3 SWAP1 SWAP3 MUL OR SWAP1 SSTORE PUSH3 0x360 JUMP JUMPDEST PUSH1 0x0 DUP1 SLOAD PUSH1 0x1 PUSH1 0x1 PUSH1 0xA0 SHL SUB DUP4 DUP2 AND PUSH1 0x1 PUSH1 0x1 PUSH1 0xA0 SHL SUB NOT DUP4 AND DUP2 OR DUP5 SSTORE PUSH1 0x40 MLOAD SWAP2 SWAP1 SWAP3 AND SWAP3 DUP4 SWAP2 PUSH32 0x8BE0079C531659141344CD1FD0A4F28419497F9722A3DAAFE3B4186F6B6457E0 SWAP2 SWAP1 LOG3 POP POP JUMP JUMPDEST PUSH4 0x4E487B71 PUSH1 0xE0 SHL PUSH1 0x0 MSTORE PUSH1 0x41 PUSH1 0x4 MSTORE PUSH1 0x24 PUSH1 0x0 REVERT JUMPDEST PUSH1 0x1 DUP2 DUP2 SHR SWAP1 DUP3 AND DUP1 PUSH3 0x1E8 JUMPI PUSH1 0x7F DUP3 AND SWAP2 POP JUMPDEST PUSH1 0x20 DUP3 LT DUP2 SUB PUSH3 0x209 JUMPI PUSH4 0x4E487B71 PUSH1 0xE0 SHL PUSH1 0x0 MSTORE PUSH1 0x22 PUSH1 0x4 MSTORE PUSH1 0x24 PUSH1 0x0 REVERT JUMPDEST POP SWAP2 SWAP1 POP JUMP JUMPDEST PUSH1 0x1F DUP3 GT ISZERO PUSH3 0x25D JUMPI PUSH1 0x0 DUP2 DUP2 MSTORE PUSH1 0x20 DUP2 KECCAK256 PUSH1 0x1F DUP6 ADD PUSH1 0x5 SHR DUP2 ADD PUSH1 0x20 DUP7 LT ISZERO PUSH3 0x238 JUMPI POP DUP1 JUMPDEST PUSH1 0x1F DUP6 ADD PUSH1 0x5 SHR DUP3 ADD SWAP2 POP JUMPDEST DUP2 DUP2 LT ISZERO PUSH3 0x259 JUMPI DUP3 DUP2 SSTORE PUSH1 0x1 ADD PUSH3 0x244 JUMP JUMPDEST POP POP POP JUMPDEST POP POP POP JUMP JUMPDEST DUP2 MLOAD PUSH1 0x1 PUSH1 0x1 PUSH1 0x40 SHL SUB DUP2 GT ISZERO PUSH3 0x27E JUMPI PUSH3 0x27E PUSH3 0x1BD JUMP JUMPDEST PUSH3 0x296 DUP2 PUSH3 0x28F DUP5 SLOAD PUSH3 0x1D3 JUMP JUMPDEST DUP5 PUSH3 0x20F JUMP JUMPDEST PUSH1 0x20 DUP1 PUSH1 0x1F DUP4 GT PUSH1 0x1 DUP2 EQ PUSH3 0x2CE JUMPI PUSH1 0x0 DUP5 ISZERO PUSH3 0x2B5 JUMPI POP DUP6 DUP4 ADD MLOAD JUMPDEST PUSH1 0x0 NOT PUSH1 0x3 DUP7 SWAP1 SHL SHR NOT AND PUSH1 0x1 DUP6 SWAP1 SHL OR DUP6 SSTORE PUSH3 0x259 JUMP JUMPDEST PUSH1 0x0 DUP6 DUP2 MSTORE PUSH1 0x20 DUP2 KECCAK256 PUSH1 0x1F NOT DUP7 AND SWAP2 JUMPDEST DUP3 DUP2 LT ISZERO PUSH3 0x2FF JUMPI DUP9 DUP7 ADD MLOAD DUP3 SSTORE SWAP5 DUP5 ADD SWAP5 PUSH1 0x1 SWAP1 SWAP2 ADD SWAP1 DUP5 ADD PUSH3 0x2DE JUMP JUMPDEST POP DUP6 DUP3 LT ISZERO PUSH3 0x31E JUMPI DUP8 DUP6 ADD MLOAD PUSH1 0x0 NOT PUSH1 0x3 DUP9 SWAP1 SHL PUSH1 0xF8 AND SHR NOT AND DUP2 SSTORE JUMPDEST POP POP POP POP POP PUSH1 0x1 SWAP1 DUP2 SHL ADD SWAP1 SSTORE POP JUMP JUMPDEST PUSH1 0x0 PUSH1 0x20 DUP3 DUP5 SUB SLT ISZERO PUSH3 0x341 JUMPI PUSH1 0x0 DUP1 REVERT JUMPDEST DUP2 MLOAD PUSH1 0x1 PUSH1 0x1 PUSH1 0xA0 SHL SUB DUP2 AND DUP2 EQ PUSH3 0x359 JUMPI PUSH1 0x0 DUP1 REVERT JUMPDEST SWAP4 SWAP3 POP POP POP JUMP JUMPDEST PUSH1 0x80 MLOAD PUSH2 0x1D8A PUSH3 0x383 PUSH1 0x0 CODECOPY PUSH1 0x0 DUP2 DUP2 PUSH2 0x3FD ADD MSTORE PUSH2 0xDE2 ADD MSTORE PUSH2 0x1D8A PUSH1 0x0 RETURN INVALID PUSH1 0x80 PUSH1 0x40 MSTORE CALLVALUE DUP1 ISZERO PUSH2 0x10 JUMPI PUSH1 0x0 DUP1 REVERT JUMPDEST POP PUSH1 0x4 CALLDATASIZE LT PUSH2 0x18E JUMPI PUSH1 0x0 CALLDATALOAD PUSH1 0xE0 SHR DUP1 PUSH4 0xBE41CEE3 GT PUSH2 0xDE JUMPI DUP1 PUSH4 0xDFBF53AE GT PUSH2 0x97 JUMPI DUP1 PUSH4 0xF60CE3C4 GT PUSH2 0x71 JUMPI DUP1 PUSH4 0xF60CE3C4 EQ PUSH2 0x38A JUMPI DUP1 PUSH4 0xF68016B7 EQ PUSH2 0x39D JUMPI DUP1 PUSH4 0xF6FECA37 EQ PUSH2 0x3C2 JUMPI DUP1 PUSH4 0xF887EA40 EQ PUSH2 0x3DF JUMPI PUSH1 0x0 DUP1 REVERT JUMPDEST DUP1 PUSH4 0xDFBF53AE EQ PUSH2 0x351 JUMPI DUP1 PUSH4 0xEF2BBBDF EQ PUSH2 0x364 JUMPI DUP1 PUSH4 0xF2FDE38B EQ PUSH2 0x377 JUMPI PUSH1 0x0 DUP1 REVERT JUMPDEST DUP1 PUSH4 0xBE41CEE3 EQ PUSH2 0x2E2 JUMPI DUP1 PUSH4 0xC24A0F8B EQ PUSH2 0x302 JUMPI DUP1 PUSH4 0xC45A0155 EQ PUSH2 0x30B JUMPI DUP1 PUSH4 0xC851CC32 EQ PUSH2 0x323 JUMPI DUP1 PUSH4 0xD9F165DC EQ PUSH2 0x336 JUMPI DUP1 PUSH4 0xDAB79C40 EQ PUSH2 0x349 JUMPI PUSH1 0x0 DUP1 REVERT JUMPDEST DUP1 PUSH4 0x4585E33B GT PUSH2 0x14B JUMPI DUP1 PUSH4 0x715018A6 GT PUSH2 0x125 JUMPI DUP1 PUSH4 0x715018A6 EQ PUSH2 0x28B JUMPI DUP1 PUSH4 0x8DA5CB5B EQ PUSH2 0x293 JUMPI DUP1 PUSH4 0x8DBE7B9D EQ PUSH2 0x2B8 JUMPI DUP1 PUSH4 0xA42F3B2F EQ PUSH2 0x2CF JUMPI PUSH1 0x0 DUP1 REVERT JUMPDEST DUP1 PUSH4 0x4585E33B EQ PUSH2 0x244 JUMPI DUP1 PUSH4 0x6DF0C747 EQ PUSH2 0x257 JUMPI DUP1 PUSH4 0x6E04FF0D EQ PUSH2 0x26A JUMPI PUSH1 0x0 DUP1 REVERT JUMPDEST DUP1 PUSH4 0x9C1BA2E EQ PUSH2 0x193 JUMPI DUP1 PUSH4 0xCA76175 EQ PUSH2 0x1CA JUMPI DUP1 PUSH4 0x14B1DD1B EQ PUSH2 0x1DF JUMPI DUP1 PUSH4 0x150B7A02 EQ PUSH2 0x1F2 JUMPI DUP1 PUSH4 0x1BEE2F2A EQ PUSH2 0x229 JUMPI DUP1 PUSH4 0x34303BCD EQ PUSH2 0x231 JUMPI JUMPDEST PUSH1 0x0 DUP1 REVERT JUMPDEST PUSH1 0x3 SLOAD PUSH2 0x1AD SWAP1 PUSH1 0x1 PUSH1 0xA8 SHL SWAP1 DIV PUSH1 0x1 PUSH1 0x1 PUSH1 0x40 SHL SUB AND DUP2 JUMP JUMPDEST PUSH1 0x40 MLOAD PUSH1 0x1 PUSH1 0x1 PUSH1 0x40 SHL SUB SWAP1 SWAP2 AND DUP2 MSTORE PUSH1 0x20 ADD JUMPDEST PUSH1 0x40 MLOAD DUP1 SWAP2 SUB SWAP1 RETURN JUMPDEST PUSH2 0x1DD PUSH2 0x1D8 CALLDATASIZE PUSH1 0x4 PUSH2 0x1691 JUMP JUMPDEST PUSH2 0x3F2 JUMP JUMPDEST STOP JUMPDEST PUSH2 0x1DD PUSH2 0x1ED CALLDATASIZE PUSH1 0x4 PUSH2 0x16FD JUMP JUMPDEST PUSH2 0x476 JUMP JUMPDEST PUSH2 0x210 PUSH2 0x200 CALLDATASIZE PUSH1 0x4 PUSH2 0x1742 JUMP JUMPDEST PUSH4 0xA85BD01 PUSH1 0xE1 SHL SWAP5 SWAP4 POP POP POP POP JUMP JUMPDEST PUSH1 0x40 MLOAD PUSH1 0x1 PUSH1 0x1 PUSH1 0xE0 SHL SUB NOT SWAP1 SWAP2 AND DUP2 MSTORE PUSH1 0x20 ADD PUSH2 0x1C1 JUMP JUMPDEST PUSH2 0x1DD PUSH2 0x4AB JUMP JUMPDEST PUSH2 0x1DD PUSH2 0x23F CALLDATASIZE PUSH1 0x4 PUSH2 0x17A9 JUMP JUMPDEST PUSH2 0x4BD JUMP JUMPDEST PUSH2 0x1DD PUSH2 0x252 CALLDATASIZE PUSH1 0x4 PUSH2 0x17CF JUMP JUMPDEST PUSH2 0x4E1 JUMP JUMPDEST PUSH2 0x1DD PUSH2 0x265 CALLDATASIZE PUSH1 0x4 PUSH2 0x1840 JUMP JUMPDEST PUSH2 0x506 JUMP JUMPDEST PUSH2 0x27D PUSH2 0x278 CALLDATASIZE PUSH1 0x4 PUSH2 0x17CF JUMP JUMPDEST PUSH2 0x513 JUMP JUMPDEST PUSH1 0x40 MLOAD PUSH2 0x1C1 SWAP3 SWAP2 SWAP1 PUSH2 0x189F JUMP JUMPDEST PUSH2 0x1DD PUSH2 0x534 JUMP JUMPDEST PUSH1 0x0 SLOAD PUSH1 0x1 PUSH1 0x1 PUSH1 0xA0 SHL SUB AND JUMPDEST PUSH1 0x40 MLOAD PUSH1 0x1 PUSH1 0x1 PUSH1 0xA0 SHL SUB SWAP1 SWAP2 AND DUP2 MSTORE PUSH1 0x20 ADD PUSH2 0x1C1 JUMP JUMPDEST PUSH2 0x2C1 PUSH1 0x6 SLOAD DUP2 JUMP JUMPDEST PUSH1 0x40 MLOAD SWAP1 DUP2 MSTORE PUSH1 0x20 ADD PUSH2 0x1C1 JUMP JUMPDEST PUSH2 0x1DD PUSH2 0x2DD CALLDATASIZE PUSH1 0x4 PUSH2 0x18C2 JUMP JUMPDEST PUSH2 0x546 JUMP JUMPDEST PUSH2 0x2F5 PUSH2 0x2F0 CALLDATASIZE PUSH1 0x4 PUSH2 0x1840 JUMP JUMPDEST PUSH2 0x55A JUMP JUMPDEST PUSH1 0x40 MLOAD PUSH2 0x1C1 SWAP2 SWAP1 PUSH2 0x18F6 JUMP JUMPDEST PUSH2 0x2C1 PUSH1 0x2 SLOAD DUP2 JUMP JUMPDEST PUSH1 0x3 SLOAD PUSH2 0x2A0 SWAP1 PUSH2 0x100 SWAP1 DIV PUSH1 0x1 PUSH1 0x1 PUSH1 0xA0 SHL SUB AND DUP2 JUMP JUMPDEST PUSH2 0x1DD PUSH2 0x331 CALLDATASIZE PUSH1 0x4 PUSH2 0x1909 JUMP JUMPDEST PUSH2 0x5F4 JUMP JUMPDEST PUSH2 0x1DD PUSH2 0x344 CALLDATASIZE PUSH1 0x4 PUSH2 0x1909 JUMP JUMPDEST PUSH2 0x61E JUMP JUMPDEST PUSH2 0x2F5 PUSH2 0x64E JUMP JUMPDEST PUSH1 0x1 SLOAD PUSH2 0x2A0 SWAP1 PUSH1 0x1 PUSH1 0x1 PUSH1 0xA0 SHL SUB AND DUP2 JUMP JUMPDEST PUSH2 0x1DD PUSH2 0x372 CALLDATASIZE PUSH1 0x4 PUSH2 0x1840 JUMP JUMPDEST PUSH2 0x65B JUMP JUMPDEST PUSH2 0x1DD PUSH2 0x385 CALLDATASIZE PUSH1 0x4 PUSH2 0x1909 JUMP JUMPDEST PUSH2 0x668 JUMP JUMPDEST PUSH2 0x1DD PUSH2 0x398 CALLDATASIZE PUSH1 0x4 PUSH2 0x1924 JUMP JUMPDEST PUSH2 0x6AB JUMP JUMPDEST PUSH1 0x7 SLOAD PUSH2 0x3AD SWAP1 PUSH4 0xFFFFFFFF AND DUP2 JUMP JUMPDEST PUSH1 0x40 MLOAD PUSH4 0xFFFFFFFF SWAP1 SWAP2 AND DUP2 MSTORE PUSH1 0x20 ADD PUSH2 0x1C1 JUMP JUMPDEST PUSH1 0x3 SLOAD PUSH2 0x3CF SWAP1 PUSH1 0xFF AND DUP2 JUMP JUMPDEST PUSH1 0x40 MLOAD SWAP1 ISZERO ISZERO DUP2 MSTORE PUSH1 0x20 ADD PUSH2 0x1C1 JUMP JUMPDEST PUSH1 0x5 SLOAD PUSH2 0x2A0 SWAP1 PUSH1 0x1 PUSH1 0x1 PUSH1 0xA0 SHL SUB AND DUP2 JUMP JUMPDEST CALLER PUSH1 0x1 PUSH1 0x1 PUSH1 0xA0 SHL SUB PUSH32 0x0 AND EQ PUSH2 0x43B JUMPI PUSH1 0x40 MLOAD PUSH4 0xC6829F83 PUSH1 0xE0 SHL DUP2 MSTORE PUSH1 0x4 ADD PUSH1 0x40 MLOAD DUP1 SWAP2 SUB SWAP1 REVERT JUMPDEST PUSH2 0x446 DUP4 DUP4 DUP4 PUSH2 0x6BF JUMP JUMPDEST PUSH1 0x40 MLOAD DUP4 SWAP1 PUSH32 0x85E1543BF2F84FE80C6BADBCE3648C8539AD1DF4D2B3D822938CA0538BE727E6 SWAP1 PUSH1 0x0 SWAP1 LOG2 POP POP POP JUMP JUMPDEST PUSH2 0x47E PUSH2 0x82C JUMP JUMPDEST PUSH1 0x3 DUP1 SLOAD PUSH1 0x1 PUSH1 0x1 PUSH1 0x40 SHL SUB SWAP1 SWAP3 AND PUSH1 0x1 PUSH1 0xA8 SHL MUL PUSH8 0xFFFFFFFFFFFFFFFF PUSH1 0xA8 SHL NOT SWAP1 SWAP3 AND SWAP2 SWAP1 SWAP2 OR SWAP1 SSTORE JUMP JUMPDEST PUSH2 0x4B3 PUSH2 0x82C JUMP JUMPDEST PUSH2 0x4BB PUSH2 0x859 JUMP JUMPDEST JUMP JUMPDEST PUSH2 0x4C5 PUSH2 0x82C JUMP JUMPDEST PUSH1 0x7 DUP1 SLOAD PUSH4 0xFFFFFFFF NOT AND PUSH4 0xFFFFFFFF SWAP3 SWAP1 SWAP3 AND SWAP2 SWAP1 SWAP2 OR SWAP1 SSTORE JUMP JUMPDEST PUSH1 0x2 SLOAD TIMESTAMP GT DUP1 ISZERO PUSH2 0x4F5 JUMPI POP PUSH1 0x3 SLOAD PUSH1 0xFF AND ISZERO JUMPDEST ISZERO PUSH2 0x502 JUMPI PUSH2 0x502 PUSH2 0x859 JUMP JUMPDEST POP POP JUMP JUMPDEST PUSH2 0x50E PUSH2 0x82C JUMP JUMPDEST PUSH1 0x6 SSTORE JUMP JUMPDEST PUSH1 0x0 PUSH1 0x60 PUSH1 0x2 SLOAD TIMESTAMP GT DUP1 ISZERO PUSH2 0x52B JUMPI POP PUSH1 0x3 SLOAD PUSH1 0xFF AND ISZERO JUMPDEST SWAP2 POP SWAP3 POP SWAP3 SWAP1 POP JUMP JUMPDEST PUSH2 0x53C PUSH2 0x82C JUMP JUMPDEST PUSH2 0x4BB PUSH1 0x0 PUSH2 0xA16 JUMP JUMPDEST PUSH2 0x54E PUSH2 0x82C JUMP JUMPDEST PUSH1 0x4 PUSH2 0x502 DUP3 DUP3 PUSH2 0x19F4 JUMP JUMPDEST PUSH1 0x8 PUSH1 0x20 MSTORE PUSH1 0x0 SWAP1 DUP2 MSTORE PUSH1 0x40 SWAP1 KECCAK256 DUP1 SLOAD PUSH2 0x573 SWAP1 PUSH2 0x196C JUMP JUMPDEST DUP1 PUSH1 0x1F ADD PUSH1 0x20 DUP1 SWAP2 DIV MUL PUSH1 0x20 ADD PUSH1 0x40 MLOAD SWAP1 DUP2 ADD PUSH1 0x40 MSTORE DUP1 SWAP3 SWAP2 SWAP1 DUP2 DUP2 MSTORE PUSH1 0x20 ADD DUP3 DUP1 SLOAD PUSH2 0x59F SWAP1 PUSH2 0x196C JUMP JUMPDEST DUP1 ISZERO PUSH2 0x5EC JUMPI DUP1 PUSH1 0x1F LT PUSH2 0x5C1 JUMPI PUSH2 0x100 DUP1 DUP4 SLOAD DIV MUL DUP4 MSTORE SWAP2 PUSH1 0x20 ADD SWAP2 PUSH2 0x5EC JUMP JUMPDEST DUP3 ADD SWAP2 SWAP1 PUSH1 0x0 MSTORE PUSH1 0x20 PUSH1 0x0 KECCAK256 SWAP1 JUMPDEST DUP2 SLOAD DUP2 MSTORE SWAP1 PUSH1 0x1 ADD SWAP1 PUSH1 0x20 ADD DUP1 DUP4 GT PUSH2 0x5CF JUMPI DUP3 SWAP1 SUB PUSH1 0x1F AND DUP3 ADD SWAP2 JUMPDEST POP POP POP POP POP DUP2 JUMP JUMPDEST PUSH2 0x5FC PUSH2 0x82C JUMP JUMPDEST PUSH1 0x5 DUP1 SLOAD PUSH1 0x1 PUSH1 0x1 PUSH1 0xA0 SHL SUB NOT AND PUSH1 0x1 PUSH1 0x1 PUSH1 0xA0 SHL SUB SWAP3 SWAP1 SWAP3 AND SWAP2 SWAP1 SWAP2 OR SWAP1 SSTORE JUMP JUMPDEST PUSH2 0x626 PUSH2 0x82C JUMP JUMPDEST PUSH1 0x3 DUP1 SLOAD PUSH1 0x1 PUSH1 0x1 PUSH1 0xA0 SHL SUB SWAP1 SWAP3 AND PUSH2 0x100 MUL PUSH2 0x100 PUSH1 0x1 PUSH1 0xA8 SHL SUB NOT SWAP1 SWAP3 AND SWAP2 SWAP1 SWAP2 OR SWAP1 SSTORE JUMP JUMPDEST PUSH1 0x4 DUP1 SLOAD PUSH2 0x573 SWAP1 PUSH2 0x196C JUMP JUMPDEST PUSH2 0x663 PUSH2 0x82C JUMP JUMPDEST PUSH1 0x2 SSTORE JUMP JUMPDEST PUSH2 0x670 PUSH2 0x82C JUMP JUMPDEST PUSH1 0x1 PUSH1 0x1 PUSH1 0xA0 SHL SUB DUP2 AND PUSH2 0x69F JUMPI PUSH1 0x40 MLOAD PUSH4 0x1E4FBDF7 PUSH1 0xE0 SHL DUP2 MSTORE PUSH1 0x0 PUSH1 0x4 DUP3 ADD MSTORE PUSH1 0x24 ADD JUMPDEST PUSH1 0x40 MLOAD DUP1 SWAP2 SUB SWAP1 REVERT JUMPDEST PUSH2 0x6A8 DUP2 PUSH2 0xA16 JUMP JUMPDEST POP JUMP JUMPDEST PUSH2 0x6B3 PUSH2 0x82C JUMP JUMPDEST PUSH1 0x9 PUSH2 0x502 DUP3 DUP3 PUSH2 0x19F4 JUMP JUMPDEST PUSH1 0x0 DUP4 DUP2 MSTORE PUSH1 0x8 PUSH1 0x20 MSTORE PUSH1 0x40 SWAP1 KECCAK256 PUSH2 0x6D7 DUP3 DUP3 PUSH2 0x19F4 JUMP JUMPDEST POP PUSH2 0x6E1 DUP3 PUSH2 0xA66 JUMP JUMPDEST PUSH1 0x1 DUP1 SLOAD PUSH1 0x1 PUSH1 0x1 PUSH1 0xA0 SHL SUB NOT AND PUSH1 0x1 PUSH1 0x1 PUSH1 0xA0 SHL SUB SWAP3 DUP4 AND SWAP1 DUP2 OR SWAP1 SWAP2 SSTORE PUSH1 0x3 SLOAD PUSH1 0x40 MLOAD PUSH4 0x21421707 PUSH1 0xE1 SHL DUP2 MSTORE ADDRESS PUSH1 0x4 DUP3 ADD MSTORE PUSH1 0x24 DUP2 ADD SWAP3 SWAP1 SWAP3 MSTORE PUSH1 0x0 PUSH1 0x44 DUP4 ADD MSTORE PUSH2 0x100 SWAP1 DIV SWAP1 SWAP2 AND SWAP1 PUSH4 0x42842E0E SWAP1 PUSH1 0x64 ADD PUSH1 0x0 PUSH1 0x40 MLOAD DUP1 DUP4 SUB DUP2 PUSH1 0x0 DUP8 DUP1 EXTCODESIZE ISZERO DUP1 ISZERO PUSH2 0x751 JUMPI PUSH1 0x0 DUP1 REVERT JUMPDEST POP GAS CALL ISZERO DUP1 ISZERO PUSH2 0x765 JUMPI RETURNDATASIZE PUSH1 0x0 DUP1 RETURNDATACOPY RETURNDATASIZE PUSH1 0x0 REVERT JUMPDEST POP POP PUSH1 0x3 SLOAD PUSH1 0x1 DUP1 SLOAD PUSH1 0x40 MLOAD PUSH4 0x21421707 PUSH1 0xE1 SHL DUP2 MSTORE ADDRESS PUSH1 0x4 DUP3 ADD MSTORE PUSH1 0x1 PUSH1 0x1 PUSH1 0xA0 SHL SUB SWAP2 DUP3 AND PUSH1 0x24 DUP3 ADD MSTORE PUSH1 0x44 DUP2 ADD SWAP3 SWAP1 SWAP3 MSTORE PUSH2 0x100 SWAP1 SWAP3 DIV SWAP1 SWAP2 AND SWAP3 POP PUSH4 0x42842E0E SWAP2 POP PUSH1 0x64 ADD PUSH1 0x0 PUSH1 0x40 MLOAD DUP1 DUP4 SUB DUP2 PUSH1 0x0 DUP8 DUP1 EXTCODESIZE ISZERO DUP1 ISZERO PUSH2 0x7C8 JUMPI PUSH1 0x0 DUP1 REVERT JUMPDEST POP GAS CALL ISZERO DUP1 ISZERO PUSH2 0x7DC JUMPI RETURNDATASIZE PUSH1 0x0 DUP1 RETURNDATACOPY RETURNDATASIZE PUSH1 0x0 REVERT JUMPDEST POP POP PUSH1 0x1 SLOAD PUSH1 0x40 MLOAD PUSH32 0x8B78BCE071B02F296D7EFEE39B7CA0F3180FB1212DF820D3F4C28BFD5DBA5C4A SWAP4 POP PUSH2 0x81F SWAP3 POP PUSH1 0x1 PUSH1 0x1 PUSH1 0xA0 SHL SUB SWAP1 SWAP2 AND SWAP1 DUP5 SWAP1 PUSH2 0x1AB3 JUMP JUMPDEST PUSH1 0x40 MLOAD DUP1 SWAP2 SUB SWAP1 LOG1 POP POP POP JUMP JUMPDEST PUSH1 0x0 SLOAD PUSH1 0x1 PUSH1 0x1 PUSH1 0xA0 SHL SUB AND CALLER EQ PUSH2 0x4BB JUMPI PUSH1 0x40 MLOAD PUSH4 0x118CDAA7 PUSH1 0xE0 SHL DUP2 MSTORE CALLER PUSH1 0x4 DUP3 ADD MSTORE PUSH1 0x24 ADD PUSH2 0x696 JUMP JUMPDEST PUSH1 0x3 DUP1 SLOAD PUSH1 0xFF NOT AND PUSH1 0x1 OR SWAP1 SSTORE PUSH2 0x8A7 PUSH1 0x40 DUP1 MLOAD PUSH1 0xE0 DUP2 ADD SWAP1 SWAP2 MSTORE DUP1 PUSH1 0x0 DUP2 MSTORE PUSH1 0x20 ADD PUSH1 0x0 DUP2 MSTORE PUSH1 0x20 ADD PUSH1 0x0 DUP2 MSTORE PUSH1 0x20 ADD PUSH1 0x60 DUP2 MSTORE PUSH1 0x20 ADD PUSH1 0x60 DUP2 MSTORE PUSH1 0x20 ADD PUSH1 0x60 DUP2 MSTORE PUSH1 0x20 ADD PUSH1 0x60 DUP2 MSTORE POP SWAP1 JUMP JUMPDEST PUSH2 0x944 PUSH1 0x9 DUP1 SLOAD PUSH2 0x8B7 SWAP1 PUSH2 0x196C JUMP JUMPDEST DUP1 PUSH1 0x1F ADD PUSH1 0x20 DUP1 SWAP2 DIV MUL PUSH1 0x20 ADD PUSH1 0x40 MLOAD SWAP1 DUP2 ADD PUSH1 0x40 MSTORE DUP1 SWAP3 SWAP2 SWAP1 DUP2 DUP2 MSTORE PUSH1 0x20 ADD DUP3 DUP1 SLOAD PUSH2 0x8E3 SWAP1 PUSH2 0x196C JUMP JUMPDEST DUP1 ISZERO PUSH2 0x930 JUMPI DUP1 PUSH1 0x1F LT PUSH2 0x905 JUMPI PUSH2 0x100 DUP1 DUP4 SLOAD DIV MUL DUP4 MSTORE SWAP2 PUSH1 0x20 ADD SWAP2 PUSH2 0x930 JUMP JUMPDEST DUP3 ADD SWAP2 SWAP1 PUSH1 0x0 MSTORE PUSH1 0x20 PUSH1 0x0 KECCAK256 SWAP1 JUMPDEST DUP2 SLOAD DUP2 MSTORE SWAP1 PUSH1 0x1 ADD SWAP1 PUSH1 0x20 ADD DUP1 DUP4 GT PUSH2 0x913 JUMPI DUP3 SWAP1 SUB PUSH1 0x1F AND DUP3 ADD SWAP2 JUMPDEST POP POP POP POP POP DUP3 PUSH2 0xAC7 SWAP1 SWAP2 SWAP1 PUSH4 0xFFFFFFFF AND JUMP JUMPDEST PUSH2 0x9E1 PUSH1 0x4 DUP1 SLOAD PUSH2 0x954 SWAP1 PUSH2 0x196C JUMP JUMPDEST DUP1 PUSH1 0x1F ADD PUSH1 0x20 DUP1 SWAP2 DIV MUL PUSH1 0x20 ADD PUSH1 0x40 MLOAD SWAP1 DUP2 ADD PUSH1 0x40 MSTORE DUP1 SWAP3 SWAP2 SWAP1 DUP2 DUP2 MSTORE PUSH1 0x20 ADD DUP3 DUP1 SLOAD PUSH2 0x980 SWAP1 PUSH2 0x196C JUMP JUMPDEST DUP1 ISZERO PUSH2 0x9CD JUMPI DUP1 PUSH1 0x1F LT PUSH2 0x9A2 JUMPI PUSH2 0x100 DUP1 DUP4 SLOAD DIV MUL DUP4 MSTORE SWAP2 PUSH1 0x20 ADD SWAP2 PUSH2 0x9CD JUMP JUMPDEST DUP3 ADD SWAP2 SWAP1 PUSH1 0x0 MSTORE PUSH1 0x20 PUSH1 0x0 KECCAK256 SWAP1 JUMPDEST DUP2 SLOAD DUP2 MSTORE SWAP1 PUSH1 0x1 ADD SWAP1 PUSH1 0x20 ADD DUP1 DUP4 GT PUSH2 0x9B0 JUMPI DUP3 SWAP1 SUB PUSH1 0x1F AND DUP3 ADD SWAP2 JUMPDEST POP POP POP POP POP DUP3 PUSH2 0xAD4 SWAP1 SWAP2 SWAP1 PUSH4 0xFFFFFFFF AND JUMP JUMPDEST PUSH2 0x502 PUSH2 0x9ED DUP3 PUSH2 0xB05 JUMP JUMPDEST PUSH1 0x3 SLOAD PUSH1 0x7 SLOAD PUSH1 0x6 SLOAD PUSH1 0x1 PUSH1 0xA8 SHL SWAP1 SWAP3 DIV PUSH1 0x1 PUSH1 0x1 PUSH1 0x40 SHL SUB AND SWAP2 PUSH4 0xFFFFFFFF SWAP1 SWAP2 AND SWAP1 PUSH2 0xDDD JUMP JUMPDEST PUSH1 0x0 DUP1 SLOAD PUSH1 0x1 PUSH1 0x1 PUSH1 0xA0 SHL SUB DUP4 DUP2 AND PUSH1 0x1 PUSH1 0x1 PUSH1 0xA0 SHL SUB NOT DUP4 AND DUP2 OR DUP5 SSTORE PUSH1 0x40 MLOAD SWAP2 SWAP1 SWAP3 AND SWAP3 DUP4 SWAP2 PUSH32 0x8BE0079C531659141344CD1FD0A4F28419497F9722A3DAAFE3B4186F6B6457E0 SWAP2 SWAP1 LOG3 POP POP JUMP JUMPDEST PUSH1 0x0 DUP1 PUSH2 0xA72 DUP4 PUSH2 0xEAF JUMP JUMPDEST SWAP1 POP PUSH1 0x15 DUP2 MLOAD LT ISZERO PUSH2 0xAB6 JUMPI PUSH1 0x40 MLOAD PUSH3 0x461BCD PUSH1 0xE5 SHL DUP2 MSTORE PUSH1 0x20 PUSH1 0x4 DUP3 ADD MSTORE PUSH1 0xD PUSH1 0x24 DUP3 ADD MSTORE PUSH13 0x4F7574206F6620626F756E6473 PUSH1 0x98 SHL PUSH1 0x44 DUP3 ADD MSTORE PUSH1 0x64 ADD PUSH2 0x696 JUMP JUMPDEST PUSH1 0x21 ADD MLOAD PUSH1 0x1 PUSH1 0x60 SHL SWAP1 DIV SWAP3 SWAP2 POP POP JUMP JUMPDEST PUSH2 0x502 DUP3 PUSH1 0x0 DUP1 DUP5 PUSH2 0xFD7 JUMP JUMPDEST DUP1 MLOAD PUSH1 0x0 SUB PUSH2 0xAF6 JUMPI PUSH1 0x40 MLOAD PUSH4 0xE889636F PUSH1 0xE0 SHL DUP2 MSTORE PUSH1 0x4 ADD PUSH1 0x40 MLOAD DUP1 SWAP2 SUB SWAP1 REVERT JUMPDEST PUSH1 0x1 PUSH1 0x20 DUP4 ADD MSTORE PUSH1 0x80 SWAP1 SWAP2 ADD MSTORE JUMP JUMPDEST PUSH1 0x60 PUSH1 0x0 PUSH2 0xB14 PUSH2 0x100 PUSH2 0x1055 JUMP JUMPDEST SWAP1 POP PUSH2 0xB4D PUSH1 0x40 MLOAD DUP1 PUSH1 0x40 ADD PUSH1 0x40 MSTORE DUP1 PUSH1 0xC DUP2 MSTORE PUSH1 0x20 ADD PUSH12 0x31B7B232A637B1B0BA34B7B7 PUSH1 0xA1 SHL DUP2 MSTORE POP DUP3 PUSH2 0x1076 SWAP1 SWAP2 SWAP1 PUSH4 0xFFFFFFFF AND JUMP JUMPDEST DUP3 MLOAD PUSH2 0xB6B SWAP1 PUSH1 0x2 DUP2 GT ISZERO PUSH2 0xB64 JUMPI PUSH2 0xB64 PUSH2 0x1AD7 JUMP JUMPDEST DUP3 SWAP1 PUSH2 0x1094 JUMP JUMPDEST PUSH1 0x40 DUP1 MLOAD DUP1 DUP3 ADD SWAP1 SWAP2 MSTORE PUSH1 0x8 DUP2 MSTORE PUSH8 0x6C616E6775616765 PUSH1 0xC0 SHL PUSH1 0x20 DUP3 ADD MSTORE PUSH2 0xB95 SWAP1 DUP3 SWAP1 PUSH2 0x1076 JUMP JUMPDEST PUSH1 0x40 DUP4 ADD MLOAD PUSH2 0xBAC SWAP1 DUP1 ISZERO PUSH2 0xB64 JUMPI PUSH2 0xB64 PUSH2 0x1AD7 JUMP JUMPDEST PUSH1 0x40 DUP1 MLOAD DUP1 DUP3 ADD SWAP1 SWAP2 MSTORE PUSH1 0x6 DUP2 MSTORE PUSH6 0x736F75726365 PUSH1 0xD0 SHL PUSH1 0x20 DUP3 ADD MSTORE PUSH2 0xBD4 SWAP1 DUP3 SWAP1 PUSH2 0x1076 JUMP JUMPDEST PUSH1 0x60 DUP4 ADD MLOAD PUSH2 0xBE4 SWAP1 DUP3 SWAP1 PUSH2 0x1076 JUMP JUMPDEST PUSH1 0xA0 DUP4 ADD MLOAD MLOAD ISZERO PUSH2 0xC78 JUMPI PUSH1 0x40 DUP1 MLOAD DUP1 DUP3 ADD SWAP1 SWAP2 MSTORE PUSH1 0x4 DUP2 MSTORE PUSH4 0x61726773 PUSH1 0xE0 SHL PUSH1 0x20 DUP3 ADD MSTORE PUSH2 0xC15 SWAP1 DUP3 SWAP1 PUSH2 0x1076 JUMP JUMPDEST PUSH2 0xC1E DUP2 PUSH2 0x10CD JUMP JUMPDEST PUSH1 0x0 JUMPDEST DUP4 PUSH1 0xA0 ADD MLOAD MLOAD DUP2 LT ISZERO PUSH2 0xC6E JUMPI PUSH2 0xC5E DUP5 PUSH1 0xA0 ADD MLOAD DUP3 DUP2 MLOAD DUP2 LT PUSH2 0xC47 JUMPI PUSH2 0xC47 PUSH2 0x1AED JUMP JUMPDEST PUSH1 0x20 MUL PUSH1 0x20 ADD ADD MLOAD DUP4 PUSH2 0x1076 SWAP1 SWAP2 SWAP1 PUSH4 0xFFFFFFFF AND JUMP JUMPDEST PUSH2 0xC67 DUP2 PUSH2 0x1B19 JUMP JUMPDEST SWAP1 POP PUSH2 0xC21 JUMP JUMPDEST POP PUSH2 0xC78 DUP2 PUSH2 0x10F1 JUMP JUMPDEST PUSH1 0x80 DUP4 ADD MLOAD MLOAD ISZERO PUSH2 0xD3C JUMPI PUSH1 0x0 DUP4 PUSH1 0x20 ADD MLOAD PUSH1 0x2 DUP2 GT ISZERO PUSH2 0xC9B JUMPI PUSH2 0xC9B PUSH2 0x1AD7 JUMP JUMPDEST SUB PUSH2 0xCB9 JUMPI PUSH1 0x40 MLOAD PUSH4 0xA80D31F7 PUSH1 0xE0 SHL DUP2 MSTORE PUSH1 0x4 ADD PUSH1 0x40 MLOAD DUP1 SWAP2 SUB SWAP1 REVERT JUMPDEST PUSH1 0x40 DUP1 MLOAD DUP1 DUP3 ADD SWAP1 SWAP2 MSTORE PUSH1 0xF DUP2 MSTORE PUSH15 0x39B2B1B932BA39A637B1B0BA34B7B7 PUSH1 0x89 SHL PUSH1 0x20 DUP3 ADD MSTORE PUSH2 0xCEA SWAP1 DUP3 SWAP1 PUSH2 0x1076 JUMP JUMPDEST PUSH2 0xD03 DUP4 PUSH1 0x20 ADD MLOAD PUSH1 0x2 DUP2 GT ISZERO PUSH2 0xB64 JUMPI PUSH2 0xB64 PUSH2 0x1AD7 JUMP JUMPDEST PUSH1 0x40 DUP1 MLOAD DUP1 DUP3 ADD SWAP1 SWAP2 MSTORE PUSH1 0x7 DUP2 MSTORE PUSH7 0x73656372657473 PUSH1 0xC8 SHL PUSH1 0x20 DUP3 ADD MSTORE PUSH2 0xD2C SWAP1 DUP3 SWAP1 PUSH2 0x1076 JUMP JUMPDEST PUSH1 0x80 DUP4 ADD MLOAD PUSH2 0xD3C SWAP1 DUP3 SWAP1 PUSH2 0x110F JUMP JUMPDEST PUSH1 0xC0 DUP4 ADD MLOAD MLOAD ISZERO PUSH2 0xDD5 JUMPI PUSH1 0x40 DUP1 MLOAD DUP1 DUP3 ADD SWAP1 SWAP2 MSTORE PUSH1 0x9 DUP2 MSTORE PUSH9 0x627974657341726773 PUSH1 0xB8 SHL PUSH1 0x20 DUP3 ADD MSTORE PUSH2 0xD72 SWAP1 DUP3 SWAP1 PUSH2 0x1076 JUMP JUMPDEST PUSH2 0xD7B DUP2 PUSH2 0x10CD JUMP JUMPDEST PUSH1 0x0 JUMPDEST DUP4 PUSH1 0xC0 ADD MLOAD MLOAD DUP2 LT ISZERO PUSH2 0xDCB JUMPI PUSH2 0xDBB DUP5 PUSH1 0xC0 ADD MLOAD DUP3 DUP2 MLOAD DUP2 LT PUSH2 0xDA4 JUMPI PUSH2 0xDA4 PUSH2 0x1AED JUMP JUMPDEST PUSH1 0x20 MUL PUSH1 0x20 ADD ADD MLOAD DUP4 PUSH2 0x110F SWAP1 SWAP2 SWAP1 PUSH4 0xFFFFFFFF AND JUMP JUMPDEST PUSH2 0xDC4 DUP2 PUSH2 0x1B19 JUMP JUMPDEST SWAP1 POP PUSH2 0xD7E JUMP JUMPDEST POP PUSH2 0xDD5 DUP2 PUSH2 0x10F1 JUMP JUMPDEST MLOAD MLOAD SWAP3 SWAP2 POP POP JUMP JUMPDEST PUSH1 0x0 DUP1 PUSH32 0x0 PUSH1 0x1 PUSH1 0x1 PUSH1 0xA0 SHL SUB AND PUSH4 0x461D2762 DUP7 DUP9 PUSH1 0x1 DUP9 DUP9 PUSH1 0x40 MLOAD DUP7 PUSH4 0xFFFFFFFF AND PUSH1 0xE0 SHL DUP2 MSTORE PUSH1 0x4 ADD PUSH2 0xE35 SWAP6 SWAP5 SWAP4 SWAP3 SWAP2 SWAP1 PUSH2 0x1B32 JUMP JUMPDEST PUSH1 0x20 PUSH1 0x40 MLOAD DUP1 DUP4 SUB DUP2 PUSH1 0x0 DUP8 GAS CALL ISZERO DUP1 ISZERO PUSH2 0xE54 JUMPI RETURNDATASIZE PUSH1 0x0 DUP1 RETURNDATACOPY RETURNDATASIZE PUSH1 0x0 REVERT JUMPDEST POP POP POP POP PUSH1 0x40 MLOAD RETURNDATASIZE PUSH1 0x1F NOT PUSH1 0x1F DUP3 ADD AND DUP3 ADD DUP1 PUSH1 0x40 MSTORE POP DUP2 ADD SWAP1 PUSH2 0xE78 SWAP2 SWAP1 PUSH2 0x1B7B JUMP JUMPDEST PUSH1 0x40 MLOAD SWAP1 SWAP2 POP DUP2 SWAP1 PUSH32 0x1131472297A800FEE664D1D89CFA8F7676FF07189ECC53F80BBB5F4969099DB8 SWAP1 PUSH1 0x0 SWAP1 LOG2 SWAP6 SWAP5 POP POP POP POP POP JUMP JUMPDEST DUP1 MLOAD PUSH1 0x60 SWAP1 DUP3 SWAP1 PUSH2 0xEC2 SWAP1 PUSH1 0x2 SWAP1 PUSH2 0x1BAA JUMP JUMPDEST ISZERO PUSH2 0xECC JUMPI PUSH1 0x0 DUP1 REVERT JUMPDEST PUSH1 0x0 PUSH1 0x2 DUP3 MLOAD PUSH2 0xEDC SWAP2 SWAP1 PUSH2 0x1BBE JUMP JUMPDEST PUSH1 0x1 PUSH1 0x1 PUSH1 0x40 SHL SUB DUP2 GT ISZERO PUSH2 0xEF3 JUMPI PUSH2 0xEF3 PUSH2 0x15E6 JUMP JUMPDEST PUSH1 0x40 MLOAD SWAP1 DUP1 DUP3 MSTORE DUP1 PUSH1 0x1F ADD PUSH1 0x1F NOT AND PUSH1 0x20 ADD DUP3 ADD PUSH1 0x40 MSTORE DUP1 ISZERO PUSH2 0xF1D JUMPI PUSH1 0x20 DUP3 ADD DUP2 DUP1 CALLDATASIZE DUP4 CALLDATACOPY ADD SWAP1 POP JUMPDEST POP SWAP1 POP PUSH1 0x0 JUMPDEST PUSH1 0x2 DUP4 MLOAD PUSH2 0xF31 SWAP2 SWAP1 PUSH2 0x1BBE JUMP JUMPDEST DUP2 LT ISZERO PUSH2 0xFCF JUMPI PUSH2 0xF6F DUP4 PUSH2 0xF47 DUP4 PUSH1 0x2 PUSH2 0x1BD2 JUMP JUMPDEST PUSH2 0xF52 SWAP1 PUSH1 0x1 PUSH2 0x1BE9 JUMP JUMPDEST DUP2 MLOAD DUP2 LT PUSH2 0xF62 JUMPI PUSH2 0xF62 PUSH2 0x1AED JUMP JUMPDEST ADD PUSH1 0x20 ADD MLOAD PUSH1 0xF8 SHR PUSH2 0x111C JUMP JUMPDEST PUSH2 0xF7E DUP5 PUSH2 0xF52 DUP5 PUSH1 0x2 PUSH2 0x1BD2 JUMP JUMPDEST PUSH2 0xF89 SWAP1 PUSH1 0x10 PUSH2 0x1BFC JUMP JUMPDEST PUSH2 0xF93 SWAP2 SWAP1 PUSH2 0x1C1F JUMP JUMPDEST PUSH1 0xF8 SHL DUP3 DUP3 DUP2 MLOAD DUP2 LT PUSH2 0xFA8 JUMPI PUSH2 0xFA8 PUSH2 0x1AED JUMP JUMPDEST PUSH1 0x20 ADD ADD SWAP1 PUSH1 0x1 PUSH1 0x1 PUSH1 0xF8 SHL SUB NOT AND SWAP1 DUP2 PUSH1 0x0 BYTE SWAP1 MSTORE8 POP PUSH2 0xFC8 DUP2 PUSH2 0x1B19 JUMP JUMPDEST SWAP1 POP PUSH2 0xF23 JUMP JUMPDEST POP SWAP4 SWAP3 POP POP POP JUMP JUMPDEST DUP1 MLOAD PUSH1 0x0 SUB PUSH2 0xFF9 JUMPI PUSH1 0x40 MLOAD PUSH4 0x22CE3EDD PUSH1 0xE0 SHL DUP2 MSTORE PUSH1 0x4 ADD PUSH1 0x40 MLOAD DUP1 SWAP2 SUB SWAP1 REVERT JUMPDEST DUP4 DUP4 PUSH1 0x2 DUP2 GT ISZERO PUSH2 0x100C JUMPI PUSH2 0x100C PUSH2 0x1AD7 JUMP JUMPDEST SWAP1 DUP2 PUSH1 0x2 DUP2 GT ISZERO PUSH2 0x101F JUMPI PUSH2 0x101F PUSH2 0x1AD7 JUMP JUMPDEST SWAP1 MSTORE POP PUSH1 0x40 DUP5 ADD DUP3 DUP1 ISZERO PUSH2 0x1035 JUMPI PUSH2 0x1035 PUSH2 0x1AD7 JUMP JUMPDEST SWAP1 DUP2 DUP1 ISZERO PUSH2 0x1045 JUMPI PUSH2 0x1045 PUSH2 0x1AD7 JUMP JUMPDEST SWAP1 MSTORE POP PUSH1 0x60 SWAP1 SWAP4 ADD SWAP3 SWAP1 SWAP3 MSTORE POP POP JUMP JUMPDEST PUSH2 0x105D PUSH2 0x15B1 JUMP JUMPDEST DUP1 MLOAD PUSH2 0x1069 SWAP1 DUP4 PUSH2 0x1206 JUMP JUMPDEST POP PUSH1 0x0 PUSH1 0x20 DUP3 ADD MSTORE SWAP2 SWAP1 POP JUMP JUMPDEST PUSH2 0x1083 DUP3 PUSH1 0x3 DUP4 MLOAD PUSH2 0x127D JUMP JUMPDEST DUP2 MLOAD PUSH2 0x108F SWAP1 DUP3 PUSH2 0x139C JUMP JUMPDEST POP POP POP JUMP JUMPDEST DUP2 MLOAD PUSH2 0x10A1 SWAP1 PUSH1 0xC2 PUSH2 0x13C4 JUMP JUMPDEST POP PUSH2 0x502 DUP3 DUP3 PUSH1 0x40 MLOAD PUSH1 0x20 ADD PUSH2 0x10B9 SWAP2 DUP2 MSTORE PUSH1 0x20 ADD SWAP1 JUMP JUMPDEST PUSH1 0x40 MLOAD PUSH1 0x20 DUP2 DUP4 SUB SUB DUP2 MSTORE SWAP1 PUSH1 0x40 MSTORE PUSH2 0x110F JUMP JUMPDEST PUSH2 0x10D8 DUP2 PUSH1 0x4 PUSH2 0x142D JUMP JUMPDEST PUSH1 0x1 DUP2 PUSH1 0x20 ADD DUP2 DUP2 MLOAD PUSH2 0x10EB SWAP2 SWAP1 PUSH2 0x1BE9 JUMP JUMPDEST SWAP1 MSTORE POP POP JUMP JUMPDEST PUSH2 0x10FC DUP2 PUSH1 0x7 PUSH2 0x142D JUMP JUMPDEST PUSH1 0x1 DUP2 PUSH1 0x20 ADD DUP2 DUP2 MLOAD PUSH2 0x10EB SWAP2 SWAP1 PUSH2 0x1C38 JUMP JUMPDEST PUSH2 0x1083 DUP3 PUSH1 0x2 DUP4 MLOAD PUSH2 0x127D JUMP JUMPDEST PUSH1 0x0 PUSH1 0x3 PUSH1 0xFC SHL PUSH1 0xF8 DUP4 SWAP1 SHL PUSH1 0x1 PUSH1 0x1 PUSH1 0xF8 SHL SUB NOT AND LT DUP1 ISZERO SWAP1 PUSH2 0x1152 JUMPI POP PUSH1 0x39 PUSH1 0xF8 SHL PUSH1 0xF8 DUP4 SWAP1 SHL PUSH1 0x1 PUSH1 0x1 PUSH1 0xF8 SHL SUB NOT AND GT ISZERO JUMPDEST ISZERO PUSH2 0x1168 JUMPI PUSH2 0x1162 PUSH1 0x30 DUP4 PUSH2 0x1C4B JUMP JUMPDEST SWAP3 SWAP2 POP POP JUMP JUMPDEST PUSH1 0x61 PUSH1 0xF8 SHL PUSH1 0xF8 DUP4 SWAP1 SHL PUSH1 0x1 PUSH1 0x1 PUSH1 0xF8 SHL SUB NOT AND LT DUP1 ISZERO SWAP1 PUSH2 0x119C JUMPI POP PUSH1 0x33 PUSH1 0xF9 SHL PUSH1 0xF8 DUP4 SWAP1 SHL PUSH1 0x1 PUSH1 0x1 PUSH1 0xF8 SHL SUB NOT AND GT ISZERO JUMPDEST ISZERO PUSH2 0x11B8 JUMPI PUSH1 0x61 PUSH2 0x11AE DUP4 PUSH1 0xA PUSH2 0x1C1F JUMP JUMPDEST PUSH2 0x1162 SWAP2 SWAP1 PUSH2 0x1C4B JUMP JUMPDEST PUSH1 0x41 PUSH1 0xF8 SHL PUSH1 0xF8 DUP4 SWAP1 SHL PUSH1 0x1 PUSH1 0x1 PUSH1 0xF8 SHL SUB NOT AND LT DUP1 ISZERO SWAP1 PUSH2 0x11EC JUMPI POP PUSH1 0x23 PUSH1 0xF9 SHL PUSH1 0xF8 DUP4 SWAP1 SHL PUSH1 0x1 PUSH1 0x1 PUSH1 0xF8 SHL SUB NOT AND GT ISZERO JUMPDEST ISZERO PUSH2 0x11FE JUMPI PUSH1 0x41 PUSH2 0x11AE DUP4 PUSH1 0xA PUSH2 0x1C1F JUMP JUMPDEST POP PUSH1 0x0 SWAP2 SWAP1 POP JUMP JUMPDEST PUSH1 0x40 DUP1 MLOAD DUP1 DUP3 ADD SWAP1 SWAP2 MSTORE PUSH1 0x60 DUP2 MSTORE PUSH1 0x0 PUSH1 0x20 DUP3 ADD MSTORE PUSH2 0x1226 PUSH1 0x20 DUP4 PUSH2 0x1BAA JUMP JUMPDEST ISZERO PUSH2 0x124E JUMPI PUSH2 0x1236 PUSH1 0x20 DUP4 PUSH2 0x1BAA JUMP JUMPDEST PUSH2 0x1241 SWAP1 PUSH1 0x20 PUSH2 0x1C38 JUMP JUMPDEST PUSH2 0x124B SWAP1 DUP4 PUSH2 0x1BE9 JUMP JUMPDEST SWAP2 POP JUMPDEST PUSH1 0x20 DUP1 DUP5 ADD DUP4 SWAP1 MSTORE PUSH1 0x40 MLOAD DUP1 DUP6 MSTORE PUSH1 0x0 DUP2 MSTORE SWAP1 DUP2 DUP5 ADD ADD DUP2 DUP2 LT ISZERO PUSH2 0x1272 JUMPI PUSH1 0x0 DUP1 REVERT JUMPDEST PUSH1 0x40 MSTORE POP SWAP2 SWAP3 SWAP2 POP POP JUMP JUMPDEST PUSH1 0x17 DUP2 PUSH1 0x1 PUSH1 0x1 PUSH1 0x40 SHL SUB AND GT PUSH2 0x12A9 JUMPI DUP3 MLOAD PUSH2 0x12A3 SWAP1 PUSH1 0xE0 PUSH1 0x5 DUP6 SWAP1 SHL AND DUP4 OR PUSH2 0x13C4 JUMP JUMPDEST POP POP POP POP JUMP JUMPDEST PUSH1 0xFF DUP2 PUSH1 0x1 PUSH1 0x1 PUSH1 0x40 SHL SUB AND GT PUSH2 0x12E9 JUMPI DUP3 MLOAD PUSH2 0x12D1 SWAP1 PUSH1 0x18 PUSH2 0x1FE0 PUSH1 0x5 DUP7 SWAP1 SHL AND OR PUSH2 0x13C4 JUMP JUMPDEST POP DUP3 MLOAD PUSH2 0x12A3 SWAP1 PUSH1 0x1 PUSH1 0x1 PUSH1 0x40 SHL SUB DUP4 AND PUSH1 0x1 PUSH2 0x1444 JUMP JUMPDEST PUSH2 0xFFFF DUP2 PUSH1 0x1 PUSH1 0x1 PUSH1 0x40 SHL SUB AND GT PUSH2 0x132A JUMPI DUP3 MLOAD PUSH2 0x1312 SWAP1 PUSH1 0x19 PUSH2 0x1FE0 PUSH1 0x5 DUP7 SWAP1 SHL AND OR PUSH2 0x13C4 JUMP JUMPDEST POP DUP3 MLOAD PUSH2 0x12A3 SWAP1 PUSH1 0x1 PUSH1 0x1 PUSH1 0x40 SHL SUB DUP4 AND PUSH1 0x2 PUSH2 0x1444 JUMP JUMPDEST PUSH4 0xFFFFFFFF DUP2 PUSH1 0x1 PUSH1 0x1 PUSH1 0x40 SHL SUB AND GT PUSH2 0x136D JUMPI DUP3 MLOAD PUSH2 0x1355 SWAP1 PUSH1 0x1A PUSH2 0x1FE0 PUSH1 0x5 DUP7 SWAP1 SHL AND OR PUSH2 0x13C4 JUMP JUMPDEST POP DUP3 MLOAD PUSH2 0x12A3 SWAP1 PUSH1 0x1 PUSH1 0x1 PUSH1 0x40 SHL SUB DUP4 AND PUSH1 0x4 PUSH2 0x1444 JUMP JUMPDEST DUP3 MLOAD PUSH2 0x1384 SWAP1 PUSH1 0x1B PUSH2 0x1FE0 PUSH1 0x5 DUP7 SWAP1 SHL AND OR PUSH2 0x13C4 JUMP JUMPDEST POP DUP3 MLOAD PUSH2 0x12A3 SWAP1 PUSH1 0x1 PUSH1 0x1 PUSH1 0x40 SHL SUB DUP4 AND PUSH1 0x8 PUSH2 0x1444 JUMP JUMPDEST PUSH1 0x40 DUP1 MLOAD DUP1 DUP3 ADD SWAP1 SWAP2 MSTORE PUSH1 0x60 DUP2 MSTORE PUSH1 0x0 PUSH1 0x20 DUP3 ADD MSTORE PUSH2 0x13BD DUP4 DUP4 DUP5 MLOAD PUSH2 0x14C9 JUMP JUMPDEST SWAP4 SWAP3 POP POP POP JUMP JUMPDEST PUSH1 0x40 DUP1 MLOAD DUP1 DUP3 ADD SWAP1 SWAP2 MSTORE PUSH1 0x60 DUP2 MSTORE PUSH1 0x0 PUSH1 0x20 DUP3 ADD MSTORE DUP3 MLOAD MLOAD PUSH1 0x0 PUSH2 0x13E9 DUP3 PUSH1 0x1 PUSH2 0x1BE9 JUMP JUMPDEST SWAP1 POP DUP5 PUSH1 0x20 ADD MLOAD DUP3 LT PUSH2 0x140A JUMPI PUSH2 0x140A DUP6 PUSH2 0x1405 DUP4 PUSH1 0x2 PUSH2 0x1BD2 JUMP JUMPDEST PUSH2 0x159A JUMP JUMPDEST DUP5 MLOAD PUSH1 0x20 DUP4 DUP3 ADD ADD DUP6 DUP2 MSTORE8 POP DUP1 MLOAD DUP3 GT ISZERO PUSH2 0x1423 JUMPI DUP2 DUP2 MSTORE JUMPDEST POP SWAP4 SWAP5 SWAP4 POP POP POP POP JUMP JUMPDEST DUP2 MLOAD PUSH2 0x108F SWAP1 PUSH1 0x1F PUSH2 0x1FE0 PUSH1 0x5 DUP6 SWAP1 SHL AND OR PUSH2 0x13C4 JUMP JUMPDEST PUSH1 0x40 DUP1 MLOAD DUP1 DUP3 ADD SWAP1 SWAP2 MSTORE PUSH1 0x60 DUP2 MSTORE PUSH1 0x0 PUSH1 0x20 DUP3 ADD MSTORE DUP4 MLOAD MLOAD PUSH1 0x0 PUSH2 0x1468 DUP3 DUP6 PUSH2 0x1BE9 JUMP JUMPDEST SWAP1 POP DUP6 PUSH1 0x20 ADD MLOAD DUP2 GT ISZERO PUSH2 0x1485 JUMPI PUSH2 0x1485 DUP7 PUSH2 0x1405 DUP4 PUSH1 0x2 PUSH2 0x1BD2 JUMP JUMPDEST PUSH1 0x0 PUSH1 0x1 PUSH2 0x1495 DUP7 PUSH2 0x100 PUSH2 0x1D48 JUMP JUMPDEST PUSH2 0x149F SWAP2 SWAP1 PUSH2 0x1C38 JUMP JUMPDEST SWAP1 POP DUP7 MLOAD DUP3 DUP2 ADD DUP8 DUP4 NOT DUP3 MLOAD AND OR DUP2 MSTORE POP DUP1 MLOAD DUP4 GT ISZERO PUSH2 0x14BD JUMPI DUP3 DUP2 MSTORE JUMPDEST POP SWAP6 SWAP7 SWAP6 POP POP POP POP POP POP JUMP JUMPDEST PUSH1 0x40 DUP1 MLOAD DUP1 DUP3 ADD SWAP1 SWAP2 MSTORE PUSH1 0x60 DUP2 MSTORE PUSH1 0x0 PUSH1 0x20 DUP3 ADD MSTORE DUP3 MLOAD DUP3 GT ISZERO PUSH2 0x14EC JUMPI PUSH1 0x0 DUP1 REVERT JUMPDEST DUP4 MLOAD MLOAD PUSH1 0x0 PUSH2 0x14FB DUP5 DUP4 PUSH2 0x1BE9 JUMP JUMPDEST SWAP1 POP DUP6 PUSH1 0x20 ADD MLOAD DUP2 GT ISZERO PUSH2 0x1518 JUMPI PUSH2 0x1518 DUP7 PUSH2 0x1405 DUP4 PUSH1 0x2 PUSH2 0x1BD2 JUMP JUMPDEST DUP6 MLOAD DUP1 MLOAD DUP4 DUP3 ADD PUSH1 0x20 ADD SWAP2 PUSH1 0x0 SWAP2 DUP1 DUP6 GT ISZERO PUSH2 0x1532 JUMPI DUP5 DUP3 MSTORE JUMPDEST POP POP POP PUSH1 0x20 DUP7 ADD JUMPDEST PUSH1 0x20 DUP7 LT PUSH2 0x1572 JUMPI DUP1 MLOAD DUP3 MSTORE PUSH2 0x1551 PUSH1 0x20 DUP4 PUSH2 0x1BE9 JUMP JUMPDEST SWAP2 POP PUSH2 0x155E PUSH1 0x20 DUP3 PUSH2 0x1BE9 JUMP JUMPDEST SWAP1 POP PUSH2 0x156B PUSH1 0x20 DUP8 PUSH2 0x1C38 JUMP JUMPDEST SWAP6 POP PUSH2 0x153A JUMP JUMPDEST MLOAD DUP2 MLOAD PUSH1 0x0 NOT PUSH1 0x20 DUP9 SWAP1 SUB PUSH2 0x100 EXP ADD SWAP1 DUP2 AND SWAP1 NOT SWAP2 SWAP1 SWAP2 AND OR SWAP1 MSTORE POP DUP5 SWAP2 POP POP SWAP4 SWAP3 POP POP POP JUMP JUMPDEST DUP2 MLOAD PUSH2 0x15A6 DUP4 DUP4 PUSH2 0x1206 JUMP JUMPDEST POP PUSH2 0x12A3 DUP4 DUP3 PUSH2 0x139C JUMP JUMPDEST PUSH1 0x40 MLOAD DUP1 PUSH1 0x40 ADD PUSH1 0x40 MSTORE DUP1 PUSH2 0x15D9 PUSH1 0x40 MLOAD DUP1 PUSH1 0x40 ADD PUSH1 0x40 MSTORE DUP1 PUSH1 0x60 DUP2 MSTORE PUSH1 0x20 ADD PUSH1 0x0 DUP2 MSTORE POP SWAP1 JUMP JUMPDEST DUP2 MSTORE PUSH1 0x20 ADD PUSH1 0x0 DUP2 MSTORE POP SWAP1 JUMP JUMPDEST PUSH4 0x4E487B71 PUSH1 0xE0 SHL PUSH1 0x0 MSTORE PUSH1 0x41 PUSH1 0x4 MSTORE PUSH1 0x24 PUSH1 0x0 REVERT JUMPDEST PUSH1 0x0 PUSH1 0x1 PUSH1 0x1 PUSH1 0x40 SHL SUB DUP1 DUP5 GT ISZERO PUSH2 0x1616 JUMPI PUSH2 0x1616 PUSH2 0x15E6 JUMP JUMPDEST PUSH1 0x40 MLOAD PUSH1 0x1F DUP6 ADD PUSH1 0x1F NOT SWAP1 DUP2 AND PUSH1 0x3F ADD AND DUP2 ADD SWAP1 DUP3 DUP3 GT DUP2 DUP4 LT OR ISZERO PUSH2 0x163E JUMPI PUSH2 0x163E PUSH2 0x15E6 JUMP JUMPDEST DUP2 PUSH1 0x40 MSTORE DUP1 SWAP4 POP DUP6 DUP2 MSTORE DUP7 DUP7 DUP7 ADD GT ISZERO PUSH2 0x1657 JUMPI PUSH1 0x0 DUP1 REVERT JUMPDEST DUP6 DUP6 PUSH1 0x20 DUP4 ADD CALLDATACOPY PUSH1 0x0 PUSH1 0x20 DUP8 DUP4 ADD ADD MSTORE POP POP POP SWAP4 SWAP3 POP POP POP JUMP JUMPDEST PUSH1 0x0 DUP3 PUSH1 0x1F DUP4 ADD SLT PUSH2 0x1682 JUMPI PUSH1 0x0 DUP1 REVERT JUMPDEST PUSH2 0x13BD DUP4 DUP4 CALLDATALOAD PUSH1 0x20 DUP6 ADD PUSH2 0x15FC JUMP JUMPDEST PUSH1 0x0 DUP1 PUSH1 0x0 PUSH1 0x60 DUP5 DUP7 SUB SLT ISZERO PUSH2 0x16A6 JUMPI PUSH1 0x0 DUP1 REVERT JUMPDEST DUP4 CALLDATALOAD SWAP3 POP PUSH1 0x20 DUP5 ADD CALLDATALOAD PUSH1 0x1 PUSH1 0x1 PUSH1 0x40 SHL SUB DUP1 DUP3 GT ISZERO PUSH2 0x16C4 JUMPI PUSH1 0x0 DUP1 REVERT JUMPDEST PUSH2 0x16D0 DUP8 DUP4 DUP9 ADD PUSH2 0x1671 JUMP JUMPDEST SWAP4 POP PUSH1 0x40 DUP7 ADD CALLDATALOAD SWAP2 POP DUP1 DUP3 GT ISZERO PUSH2 0x16E6 JUMPI PUSH1 0x0 DUP1 REVERT JUMPDEST POP PUSH2 0x16F3 DUP7 DUP3 DUP8 ADD PUSH2 0x1671 JUMP JUMPDEST SWAP2 POP POP SWAP3 POP SWAP3 POP SWAP3 JUMP JUMPDEST PUSH1 0x0 PUSH1 0x20 DUP3 DUP5 SUB SLT ISZERO PUSH2 0x170F JUMPI PUSH1 0x0 DUP1 REVERT JUMPDEST DUP2 CALLDATALOAD PUSH1 0x1 PUSH1 0x1 PUSH1 0x40 SHL SUB DUP2 AND DUP2 EQ PUSH2 0x13BD JUMPI PUSH1 0x0 DUP1 REVERT JUMPDEST DUP1 CALLDATALOAD PUSH1 0x1 PUSH1 0x1 PUSH1 0xA0 SHL SUB DUP2 AND DUP2 EQ PUSH2 0x173D JUMPI PUSH1 0x0 DUP1 REVERT JUMPDEST SWAP2 SWAP1 POP JUMP JUMPDEST PUSH1 0x0 DUP1 PUSH1 0x0 DUP1 PUSH1 0x80 DUP6 DUP8 SUB SLT ISZERO PUSH2 0x1758 JUMPI PUSH1 0x0 DUP1 REVERT JUMPDEST PUSH2 0x1761 DUP6 PUSH2 0x1726 JUMP JUMPDEST SWAP4 POP PUSH2 0x176F PUSH1 0x20 DUP7 ADD PUSH2 0x1726 JUMP JUMPDEST SWAP3 POP PUSH1 0x40 DUP6 ADD CALLDATALOAD SWAP2 POP PUSH1 0x60 DUP6 ADD CALLDATALOAD PUSH1 0x1 PUSH1 0x1 PUSH1 0x40 SHL SUB DUP2 GT ISZERO PUSH2 0x1791 JUMPI PUSH1 0x0 DUP1 REVERT JUMPDEST PUSH2 0x179D DUP8 DUP3 DUP9 ADD PUSH2 0x1671 JUMP JUMPDEST SWAP2 POP POP SWAP3 SWAP6 SWAP2 SWAP5 POP SWAP3 POP JUMP JUMPDEST PUSH1 0x0 PUSH1 0x20 DUP3 DUP5 SUB SLT ISZERO PUSH2 0x17BB JUMPI PUSH1 0x0 DUP1 REVERT JUMPDEST DUP2 CALLDATALOAD PUSH4 0xFFFFFFFF DUP2 AND DUP2 EQ PUSH2 0x13BD JUMPI PUSH1 0x0 DUP1 REVERT JUMPDEST PUSH1 0x0 DUP1 PUSH1 0x20 DUP4 DUP6 SUB SLT ISZERO PUSH2 0x17E2 JUMPI PUSH1 0x0 DUP1 REVERT JUMPDEST DUP3 CALLDATALOAD PUSH1 0x1 PUSH1 0x1 PUSH1 0x40 SHL SUB DUP1 DUP3 GT ISZERO PUSH2 0x17F9 JUMPI PUSH1 0x0 DUP1 REVERT JUMPDEST DUP2 DUP6 ADD SWAP2 POP DUP6 PUSH1 0x1F DUP4 ADD SLT PUSH2 0x180D JUMPI PUSH1 0x0 DUP1 REVERT JUMPDEST DUP2 CALLDATALOAD DUP2 DUP2 GT ISZERO PUSH2 0x181C JUMPI PUSH1 0x0 DUP1 REVERT JUMPDEST DUP7 PUSH1 0x20 DUP3 DUP6 ADD ADD GT ISZERO PUSH2 0x182E JUMPI PUSH1 0x0 DUP1 REVERT JUMPDEST PUSH1 0x20 SWAP3 SWAP1 SWAP3 ADD SWAP7 SWAP2 SWAP6 POP SWAP1 SWAP4 POP POP POP POP JUMP JUMPDEST PUSH1 0x0 PUSH1 0x20 DUP3 DUP5 SUB SLT ISZERO PUSH2 0x1852 JUMPI PUSH1 0x0 DUP1 REVERT JUMPDEST POP CALLDATALOAD SWAP2 SWAP1 POP JUMP JUMPDEST PUSH1 0x0 DUP2 MLOAD DUP1 DUP5 MSTORE PUSH1 0x0 JUMPDEST DUP2 DUP2 LT ISZERO PUSH2 0x187F JUMPI PUSH1 0x20 DUP2 DUP6 ADD DUP2 ADD MLOAD DUP7 DUP4 ADD DUP3 ADD MSTORE ADD PUSH2 0x1863 JUMP JUMPDEST POP PUSH1 0x0 PUSH1 0x20 DUP3 DUP7 ADD ADD MSTORE PUSH1 0x20 PUSH1 0x1F NOT PUSH1 0x1F DUP4 ADD AND DUP6 ADD ADD SWAP2 POP POP SWAP3 SWAP2 POP POP JUMP JUMPDEST DUP3 ISZERO ISZERO DUP2 MSTORE PUSH1 0x40 PUSH1 0x20 DUP3 ADD MSTORE PUSH1 0x0 PUSH2 0x18BA PUSH1 0x40 DUP4 ADD DUP5 PUSH2 0x1859 JUMP JUMPDEST SWAP5 SWAP4 POP POP POP POP JUMP JUMPDEST PUSH1 0x0 PUSH1 0x20 DUP3 DUP5 SUB SLT ISZERO PUSH2 0x18D4 JUMPI PUSH1 0x0 DUP1 REVERT JUMPDEST DUP2 CALLDATALOAD PUSH1 0x1 PUSH1 0x1 PUSH1 0x40 SHL SUB DUP2 GT ISZERO PUSH2 0x18EA JUMPI PUSH1 0x0 DUP1 REVERT JUMPDEST PUSH2 0x18BA DUP5 DUP3 DUP6 ADD PUSH2 0x1671 JUMP JUMPDEST PUSH1 0x20 DUP2 MSTORE PUSH1 0x0 PUSH2 0x13BD PUSH1 0x20 DUP4 ADD DUP5 PUSH2 0x1859 JUMP JUMPDEST PUSH1 0x0 PUSH1 0x20 DUP3 DUP5 SUB SLT ISZERO PUSH2 0x191B JUMPI PUSH1 0x0 DUP1 REVERT JUMPDEST PUSH2 0x13BD DUP3 PUSH2 0x1726 JUMP JUMPDEST PUSH1 0x0 PUSH1 0x20 DUP3 DUP5 SUB SLT ISZERO PUSH2 0x1936 JUMPI PUSH1 0x0 DUP1 REVERT JUMPDEST DUP2 CALLDATALOAD PUSH1 0x1 PUSH1 0x1 PUSH1 0x40 SHL SUB DUP2 GT ISZERO PUSH2 0x194C JUMPI PUSH1 0x0 DUP1 REVERT JUMPDEST DUP3 ADD PUSH1 0x1F DUP2 ADD DUP5 SGT PUSH2 0x195D JUMPI PUSH1 0x0 DUP1 REVERT JUMPDEST PUSH2 0x18BA DUP5 DUP3 CALLDATALOAD PUSH1 0x20 DUP5 ADD PUSH2 0x15FC JUMP JUMPDEST PUSH1 0x1 DUP2 DUP2 SHR SWAP1 DUP3 AND DUP1 PUSH2 0x1980 JUMPI PUSH1 0x7F DUP3 AND SWAP2 POP JUMPDEST PUSH1 0x20 DUP3 LT DUP2 SUB PUSH2 0x19A0 JUMPI PUSH4 0x4E487B71 PUSH1 0xE0 SHL PUSH1 0x0 MSTORE PUSH1 0x22 PUSH1 0x4 MSTORE PUSH1 0x24 PUSH1 0x0 REVERT JUMPDEST POP SWAP2 SWAP1 POP JUMP JUMPDEST PUSH1 0x1F DUP3 GT ISZERO PUSH2 0x108F JUMPI PUSH1 0x0 DUP2 DUP2 MSTORE PUSH1 0x20 DUP2 KECCAK256 PUSH1 0x1F DUP6 ADD PUSH1 0x5 SHR DUP2 ADD PUSH1 0x20 DUP7 LT ISZERO PUSH2 0x19CD JUMPI POP DUP1 JUMPDEST PUSH1 0x1F DUP6 ADD PUSH1 0x5 SHR DUP3 ADD SWAP2 POP JUMPDEST DUP2 DUP2 LT ISZERO PUSH2 0x19EC JUMPI DUP3 DUP2 SSTORE PUSH1 0x1 ADD PUSH2 0x19D9 JUMP JUMPDEST POP POP POP POP POP POP JUMP JUMPDEST DUP2 MLOAD PUSH1 0x1 PUSH1 0x1 PUSH1 0x40 SHL SUB DUP2 GT ISZERO PUSH2 0x1A0D JUMPI PUSH2 0x1A0D PUSH2 0x15E6 JUMP JUMPDEST PUSH2 0x1A21 DUP2 PUSH2 0x1A1B DUP5 SLOAD PUSH2 0x196C JUMP JUMPDEST DUP5 PUSH2 0x19A6 JUMP JUMPDEST PUSH1 0x20 DUP1 PUSH1 0x1F DUP4 GT PUSH1 0x1 DUP2 EQ PUSH2 0x1A56 JUMPI PUSH1 0x0 DUP5 ISZERO PUSH2 0x1A3E JUMPI POP DUP6 DUP4 ADD MLOAD JUMPDEST PUSH1 0x0 NOT PUSH1 0x3 DUP7 SWAP1 SHL SHR NOT AND PUSH1 0x1 DUP6 SWAP1 SHL OR DUP6 SSTORE PUSH2 0x19EC JUMP JUMPDEST PUSH1 0x0 DUP6 DUP2 MSTORE PUSH1 0x20 DUP2 KECCAK256 PUSH1 0x1F NOT DUP7 AND SWAP2 JUMPDEST DUP3 DUP2 LT ISZERO PUSH2 0x1A85 JUMPI DUP9 DUP7 ADD MLOAD DUP3 SSTORE SWAP5 DUP5 ADD SWAP5 PUSH1 0x1 SWAP1 SWAP2 ADD SWAP1 DUP5 ADD PUSH2 0x1A66 JUMP JUMPDEST POP DUP6 DUP3 LT ISZERO PUSH2 0x1AA3 JUMPI DUP8 DUP6 ADD MLOAD PUSH1 0x0 NOT PUSH1 0x3 DUP9 SWAP1 SHL PUSH1 0xF8 AND SHR NOT AND DUP2 SSTORE JUMPDEST POP POP POP POP POP PUSH1 0x1 SWAP1 DUP2 SHL ADD SWAP1 SSTORE POP JUMP JUMPDEST PUSH1 0x1 PUSH1 0x1 PUSH1 0xA0 SHL SUB DUP4 AND DUP2 MSTORE PUSH1 0x40 PUSH1 0x20 DUP3 ADD DUP2 SWAP1 MSTORE PUSH1 0x0 SWAP1 PUSH2 0x18BA SWAP1 DUP4 ADD DUP5 PUSH2 0x1859 JUMP JUMPDEST PUSH4 0x4E487B71 PUSH1 0xE0 SHL PUSH1 0x0 MSTORE PUSH1 0x21 PUSH1 0x4 MSTORE PUSH1 0x24 PUSH1 0x0 REVERT JUMPDEST PUSH4 0x4E487B71 PUSH1 0xE0 SHL PUSH1 0x0 MSTORE PUSH1 0x32 PUSH1 0x4 MSTORE PUSH1 0x24 PUSH1 0x0 REVERT JUMPDEST PUSH4 0x4E487B71 PUSH1 0xE0 SHL PUSH1 0x0 MSTORE PUSH1 0x11 PUSH1 0x4 MSTORE PUSH1 0x24 PUSH1 0x0 REVERT JUMPDEST PUSH1 0x0 PUSH1 0x1 DUP3 ADD PUSH2 0x1B2B JUMPI PUSH2 0x1B2B PUSH2 0x1B03 JUMP JUMPDEST POP PUSH1 0x1 ADD SWAP1 JUMP JUMPDEST PUSH1 0x1 PUSH1 0x1 PUSH1 0x40 SHL SUB DUP7 AND DUP2 MSTORE PUSH1 0xA0 PUSH1 0x20 DUP3 ADD MSTORE PUSH1 0x0 PUSH2 0x1B54 PUSH1 0xA0 DUP4 ADD DUP8 PUSH2 0x1859 JUMP JUMPDEST PUSH2 0xFFFF SWAP6 SWAP1 SWAP6 AND PUSH1 0x40 DUP4 ADD MSTORE POP PUSH4 0xFFFFFFFF SWAP3 SWAP1 SWAP3 AND PUSH1 0x60 DUP4 ADD MSTORE PUSH1 0x80 SWAP1 SWAP2 ADD MSTORE SWAP3 SWAP2 POP POP JUMP JUMPDEST PUSH1 0x0 PUSH1 0x20 DUP3 DUP5 SUB SLT ISZERO PUSH2 0x1B8D JUMPI PUSH1 0x0 DUP1 REVERT JUMPDEST POP MLOAD SWAP2 SWAP1 POP JUMP JUMPDEST PUSH4 0x4E487B71 PUSH1 0xE0 SHL PUSH1 0x0 MSTORE PUSH1 0x12 PUSH1 0x4 MSTORE PUSH1 0x24 PUSH1 0x0 REVERT JUMPDEST PUSH1 0x0 DUP3 PUSH2 0x1BB9 JUMPI PUSH2 0x1BB9 PUSH2 0x1B94 JUMP JUMPDEST POP MOD SWAP1 JUMP JUMPDEST PUSH1 0x0 DUP3 PUSH2 0x1BCD JUMPI PUSH2 0x1BCD PUSH2 0x1B94 JUMP JUMPDEST POP DIV SWAP1 JUMP JUMPDEST DUP1 DUP3 MUL DUP2 ISZERO DUP3 DUP3 DIV DUP5 EQ OR PUSH2 0x1162 JUMPI PUSH2 0x1162 PUSH2 0x1B03 JUMP JUMPDEST DUP1 DUP3 ADD DUP1 DUP3 GT ISZERO PUSH2 0x1162 JUMPI PUSH2 0x1162 PUSH2 0x1B03 JUMP JUMPDEST PUSH1 0xFF DUP2 DUP2 AND DUP4 DUP3 AND MUL SWAP1 DUP2 AND SWAP1 DUP2 DUP2 EQ PUSH2 0x1C18 JUMPI PUSH2 0x1C18 PUSH2 0x1B03 JUMP JUMPDEST POP SWAP3 SWAP2 POP POP JUMP JUMPDEST PUSH1 0xFF DUP2 DUP2 AND DUP4 DUP3 AND ADD SWAP1 DUP2 GT ISZERO PUSH2 0x1162 JUMPI PUSH2 0x1162 PUSH2 0x1B03 JUMP JUMPDEST DUP2 DUP2 SUB DUP2 DUP2 GT ISZERO PUSH2 0x1162 JUMPI PUSH2 0x1162 PUSH2 0x1B03 JUMP JUMPDEST PUSH1 0xFF DUP3 DUP2 AND DUP3 DUP3 AND SUB SWAP1 DUP2 GT ISZERO PUSH2 0x1162 JUMPI PUSH2 0x1162 PUSH2 0x1B03 JUMP JUMPDEST PUSH1 0x1 DUP2 DUP2 JUMPDEST DUP1 DUP6 GT ISZERO PUSH2 0x1C9F JUMPI DUP2 PUSH1 0x0 NOT DIV DUP3 GT ISZERO PUSH2 0x1C85 JUMPI PUSH2 0x1C85 PUSH2 0x1B03 JUMP JUMPDEST DUP1 DUP6 AND ISZERO PUSH2 0x1C92 JUMPI SWAP2 DUP2 MUL SWAP2 JUMPDEST SWAP4 DUP5 SHR SWAP4 SWAP1 DUP1 MUL SWAP1 PUSH2 0x1C69 JUMP JUMPDEST POP SWAP3 POP SWAP3 SWAP1 POP JUMP JUMPDEST PUSH1 0x0 DUP3 PUSH2 0x1CB6 JUMPI POP PUSH1 0x1 PUSH2 0x1162 JUMP JUMPDEST DUP2 PUSH2 0x1CC3 JUMPI POP PUSH1 0x0 PUSH2 0x1162 JUMP JUMPDEST DUP2 PUSH1 0x1 DUP2 EQ PUSH2 0x1CD9 JUMPI PUSH1 0x2 DUP2 EQ PUSH2 0x1CE3 JUMPI PUSH2 0x1CFF JUMP JUMPDEST PUSH1 0x1 SWAP2 POP POP PUSH2 0x1162 JUMP JUMPDEST PUSH1 0xFF DUP5 GT ISZERO PUSH2 0x1CF4 JUMPI PUSH2 0x1CF4 PUSH2 0x1B03 JUMP JUMPDEST POP POP PUSH1 0x1 DUP3 SHL PUSH2 0x1162 JUMP JUMPDEST POP PUSH1 0x20 DUP4 LT PUSH2 0x133 DUP4 LT AND PUSH1 0x4E DUP5 LT PUSH1 0xB DUP5 LT AND OR ISZERO PUSH2 0x1D22 JUMPI POP DUP2 DUP2 EXP PUSH2 0x1162 JUMP JUMPDEST PUSH2 0x1D2C DUP4 DUP4 PUSH2 0x1C64 JUMP JUMPDEST DUP1 PUSH1 0x0 NOT DIV DUP3 GT ISZERO PUSH2 0x1D40 JUMPI PUSH2 0x1D40 PUSH2 0x1B03 JUMP JUMPDEST MUL SWAP4 SWAP3 POP POP POP JUMP JUMPDEST PUSH1 0x0 PUSH2 0x13BD DUP4 DUP4 PUSH2 0x1CA7 JUMP INVALID LOG2 PUSH5 0x6970667358 0x22 SLT KECCAK256 BALANCE 0x4B 0xCE MSIZE DUP4 PUSH25 0x385419A328A2C365DC785CEAF7EE8196F83A98FCBE3E3415E8 0xDC PUSH5 0x736F6C6343 STOP ADDMOD EQ STOP CALLER RETURNDATACOPY SAR MUL 0xD2 PUSH21 0xF82E20DF6B75193CC7B9D202D3E1841DEE24913F2D 0x5C 0x5E 0xFB EXTCODECOPY MLOAD 0xBB DUP2 GASPRICE 0xBA SIGNEXTEND PUSH24 0xE269B8C94106C394E311FA6EC2916704E1F2AED1AD9EE11E PUSH25 0x91EBD0AFE6FC6C11A6DFA63AA590539FE38E25F88EC5DA2103 0xD0 0xF8 MULMOD MUL PUSH3 0x88DBA6 0xCE 0x49 RETURN 0xE6 NUMBER INVALID 0xEB 0xD8 JUMP LOG4 PUSH27 0xB4A98F92449CF3B8FC5FD538ED09E7595DF512C2B2C285AF7CE9CD 0xFC PUSH1 0x5C CALL PUSH16 0x376DC530E5F749636F6E737420746974 PUSH13 0x654964203D2027334541343427 EXTCODESIZE PUSH4 0x6F6E7374 KECCAK256 PUSH20 0x74617469737469634E616D65203D20276C657665 PUSH13 0x273B636F6E7374207374617274 POP PUSH16 0x736974696F6E203D20303B636F6E7374 KECCAK256 PUSH14 0x6178526573756C7473436F756E74 KECCAK256 RETURNDATASIZE KECCAK256 BALANCE EXTCODESIZE PUSH4 0x6F6E7374 KECCAK256 PUSH8 0x65744C6561646572 PUSH3 0x6F6172 PUSH5 0x55726C203D KECCAK256 PUSH1 0x68 PUSH21 0x7470733A2F2F247B7469746C6549647D2E706C6179 PUSH7 0x61626170692E63 PUSH16 0x6D2F5365727665722F4765744C656164 PUSH6 0x72626F617264 EXTCODEHASH MSTORE8 PUSH21 0x617469737469634E616D653D247B73746174697374 PUSH10 0x634E616D657D26537461 PUSH19 0x74506F736974696F6E3D247B7374617274506F PUSH20 0x6974696F6E7D264D6178526573756C7473436F75 PUSH15 0x743D247B6D6178526573756C747343 PUSH16 0x756E747D603B636F6E73742067657455 PUSH20 0x65724163636F756E74496E666F55726C203D2060 PUSH9 0x747470733A2F2F247B PUSH21 0x69746C6549647D2E706C61796661626170692E636F PUSH14 0x2F5365727665722F476574557365 PUSH19 0x4163636F756E74496E666F603B636F6E737420 PUSH13 0x6561646572626F617264526571 KECCAK256 RETURNDATASIZE KECCAK256 PUSH2 0x7761 PUSH10 0x742046756E6374696F6E PUSH20 0x2E6D616B654874747052657175657374287B7572 PUSH13 0x3A206765744C6561646572626F PUSH2 0x7264 SSTORE PUSH19 0x6C2C6D6574686F643A2027504F5354272C6865 PUSH2 0x6465 PUSH19 0x733A207B27436F6E74656E742D54797065273A KECCAK256 0x27 PUSH2 0x7070 PUSH13 0x69636174696F6E2F6A736F6E27 0x2C 0x27 COINBASE PUSH4 0x63657074 0x2D GASLIMIT PUSH15 0x636F64696E67273A20276964656E74 PUSH10 0x7479272C27582D536563 PUSH19 0x65744B6579273A20736563726574732E706C61 PUSH26 0x6661624170694B65797D2C7D293B696620286C6561646572626F PUSH2 0x7264 MSTORE PUSH6 0x712E6572726F PUSH19 0x29207468726F77206E6577204572726F722860 0x24 PUSH28 0x6C6561646572626F6172645265712E6D6573736167657D60293B636F PUSH15 0x737420706C61794661624964203D20 PUSH13 0x6561646572626F617264526571 0x2E PUSH5 0x6174612E64 PUSH2 0x7461 0x2E 0x4C PUSH6 0x61646572626F PUSH2 0x7264 JUMPDEST ADDRESS 0x5D 0x2E POP PUSH13 0x617946616249643B636F6E7374 KECCAK256 PUSH2 0x7069 MSTORE PUSH6 0x73706F6E7365 KECCAK256 RETURNDATASIZE KECCAK256 PUSH2 0x7761 PUSH10 0x742046756E6374696F6E PUSH20 0x2E6D616B654874747052657175657374287B7572 PUSH13 0x3A20676574557365724163636F PUSH22 0x6E74496E666F55726C2C6D6574686F643A2027504F53 SLOAD 0x27 0x2C PUSH9 0x6561646572733A207B 0x27 NUMBER PUSH16 0x6E74656E742D54797065273A20276170 PUSH17 0x6C69636174696F6E2F6A736F6E272C2741 PUSH4 0x63657074 0x2D GASLIMIT PUSH15 0x636F64696E67273A20276964656E74 PUSH10 0x7479272C27582D536563 PUSH19 0x65744B6579273A20736563726574732E706C61 PUSH26 0x6661624170694B65797D2C706172616D733A7B27506C61794661 PUSH3 0x494427 GASPRICE KECCAK256 PUSH17 0x6C617946616249642C7D7D293B69662028 PUSH2 0x7069 MSTORE PUSH6 0x73706F6E7365 0x2E PUSH6 0x72726F722920 PUSH21 0x68726F77206E6577204572726F722860247B617069 MSTORE PUSH6 0x73706F6E7365 0x2E PUSH14 0x6573736167657D60293B72657475 PUSH19 0x6E2046756E6374696F6E732E656E636F646553 PUSH21 0x72696E6728617069526573706F6E73652E64617461 0x2E PUSH5 0x6174612E55 PUSH20 0x6572496E666F2E437573746F6D4964496E666F2E NUMBER PUSH22 0x73746F6D4964293B0000000000000000000000000000 "},"methodIdentifiers":{"checkUpkeep(bytes)":"6e04ff0d","donId()":"8dbe7b9d","encryptedSecretsUrls()":"dab79c40","endDate()":"c24a0f8b","errors(bytes32)":"be41cee3","factory()":"c45a0155","gasLimit()":"f68016b7","handleOracleFulfillment(bytes32,bytes,bytes)":"0ca76175","nftsSended()":"f6feca37","onERC721Received(address,address,uint256,bytes)":"150b7a02","owner()":"8da5cb5b","performUpkeep(bytes)":"4585e33b","renounceOwnership()":"715018a6","router()":"f887ea40","sendRequest()":"1bee2f2a","subscriptionId()":"09c1ba2e","transferOwnership(address)":"f2fde38b","updateDonId(bytes32)":"6df0c747","updateEncryptedSecretsUrls(bytes)":"a42f3b2f","updateEndDate(uint256)":"ef2bbbdf","updateFactory(address)":"d9f165dc","updateGasLimit(uint32)":"34303bcd","updateRouter(address)":"c851cc32","updateSource(string)":"f60ce3c4","updateSubscriptionId(uint64)":"14b1dd1b","winner()":"dfbf53ae"}}}}}